:100000008FEF06F01200FFFF04EF10F01200FFFF69
:10001000FFFFFFFFFFFFFFFF0CEF10F01200FFFFDD
:10002000FFFFFFFFFFFFFFFFFFFF000061500CE13C
:100030006596040100513C0BE842E8420D0802E1DC
:100040000ED801D046D808D0040E615C03E1659655
:1000500050D802D0000E02D0010E00D01200D9CF2D
:10006000E6FFE1CFD9FFE652040104BF046B0001B3
:10007000B76BAF6BB06BB56BB66B15EC04F0DF6AAA
:10008000DF50206E216A010E205C000E21581BE219
:100090000001B05101E017D0F76ADF34FE0BF736EC
:1000A000F66E720EF6260B0EF7220900F5CF20F041
:1000B0000800F5CF21F004D021C0FAFF2050F96EDE
:1000C000FBDFDF2ADDD7EED8E552E552E7CFD9FFD7
:1000D0001200020E0001AF5D0AE1A7D8040100BDC5
:1000E00003D0C80E006F02D0880E006F01D020D957
:1000F0001200040E0001B85D0AE112C463FF6350F0
:10010000000803E2050EB86F02D0030EB86F0001BD
:10011000AF0512E113D8020E0001B75D04E104013E
:10012000840E046F08D0040104BD03D0C80E046F10
:1001300002D0880E046F01D0FBD81200D9CFE6FFA1
:10014000E1CFD9FF020EE1260001080EB55D000ED9
:10015000B6590EE2B5C0DEFFB6C0DDFFB75103E110
:10016000010EB76F04D0B70502E1020EB76F03D0DE
:10017000080EDE6EDD6A040104930491010EDB506B
:100180000413DFCF05F4000EDB500001B55F010E54
:10019000DB50B65B180EB36F040EB46F0001B9A349
:1001A0001ED0D9CFE9FFDACFEAFFEE50ED1016E00E
:1001B000B1C0F6FFB2C0F7FF0800F550B3C0E9FFC9
:1001C000B4C0EAFFEF6E0001B32B000EB423B12BD5
:1001D000B223DF06010E01E2DB06E3D71CD0D9CF44
:1001E000E9FFDACFEAFFEE50ED1015E0B1C0E9FF0C
:1001F000B2C0EAFFEF50B3C0E9FFB4C0EAFFEF6E50
:100200000001B32B000EB423B12BB223DF06010E85
:1002100001E2DB06E4D7020EE15C02E2E16AE552AC
:10022000E16EE552E7CFD9FF1200D9CFE6FFE1CF6B
:10023000D9FF020EE126030E04010015E76E010E40
:10024000E7CFDBFF01C4DFFFDE500001B527DD5043
:10025000B623180EB16F040EB26FD9CFE9FFDACF13
:10026000EAFFEE50ED1014E0B1C0E9FFB2C0EAFFC2
:10027000EF50B3C0E9FFB4C0EAFFEF6EB32B000E3E
:10028000B423B12BB223DF06010E01E2DB06E5D772
:10029000020EE15C02E2E16AE552E16EE552E7CF6F
:1002A000D9FF120060980001B0510CE10401080E62
:1002B000016F100E026F040E036F840E006F0401B5
:1002C000046F35D0040110AF22D00001B5510401F4
:1002D000165D0001B6510401175904E216C4B5F0C9
:1002E00017C4B6F02BDF0001010EAF6F0401080E3A
:1002F000016F100E026F040E036F800E006F040179
:10030000180E066F040E076FC80E046F10D00001A0
:10031000020EAF6F0401056BC80E046F0401080ED6
:10032000016F180E026F040E036FC80E006F1200EB
:100330000001AF6B0401080E016F100E026F040E76
:10034000036F8C0E006F0401046B1200550EA76E34
:10035000AA0EA76EA68212000001420E6A6F020E5C
:100360006B6F200E6C6F12000001606B6651605D58
:100370001EE260C020F0216A226A67512024F36ED9
:1003800068512120F46E69512220F86EF4CFF7FFF6
:10039000F3CFF6FF0800F5CF61F06051EA6A6A0F0B
:1003A000E96E000EEA2261C0EFFF602BDFD7F86A2A
:1003B0001200840EA66E0001606B6651605D27E23C
:1003C0006051EA6A6A0FE96E000EEA22EFCF23F06D
:1003D00060C020F0216A226A67512024F36E6851C0
:1003E0002120F46E69512220F86EF4CFF7FFF3CF8D
:1003F000F6FF23C0F5FF0C001F0E60151F0803E079
:100400006605605D01E1A2DF0001602BD6D7120016
:100410000001606B6651605D20E2940EA66E605133
:10042000206E216A060ED89020362136E804FBE1C2
:10043000226A21BE2268000167512024F36E6851B0
:100440002120F46E69512220F86EF4CFF7FFF3CF2C
:10045000F6FF7CDF0001602BDDD7F86A1200A66A88
:100460000001606B6651605D0EE267516025A96E08
:10047000A6806051EA6A6A0FE96E000EEA22A8CFF0
:10048000EFFF602BEFD712000001606B6651605DDB
:1004900013E267516025A96E6051EA6A6A0FE96E3E
:1004A000000EEA22EF50A86E040EA66E4FDFA6B231
:1004B000FED70001602BEAD71200C40EA66E000121
:1004C000606B6651605D20E26051EA6A6A0FE96E16
:1004D000000EEA22EFCF23F060C020F0216A226AEA
:1004E00067512024F36E68512120F46E6951222057
:1004F000F86EF4CFF7FFF3CFF6FF23C0F5FF0C0043
:1005000025DF0001602BDDD7F86A1200400EE66E91
:10051000650EE66E000EE66ED5EC03F0E552E55290
:10052000E552000870E20001606B00016551FF0AAE
:1005300057E0FA0A50E0010A3BE0070A34E0010AFA
:100540002DE0030A18E0070A16E0700A01E05AD00D
:1005500003DF0001040E606F04010CBFFDD7400EE5
:10056000E66E650EE66E000EE66E9BEC03F0E5525D
:10057000E552E55248D0F8DE050E0001602704017F
:100580000CBFFDD7400EE66E650EE66E000EE66E01
:100590009BEC03F0E552E552E55235D00ADF00014D
:1005A000010E606F30D034DF0001010E606F2BD080
:1005B00056DF050E0001602704010CBFFDD7400E79
:1005C000E66E650EE66E000EE66E9BEC03F0E552FD
:1005D000E552E55218D058DF0001010E606F13D0CC
:1005E000C5EC05F00001636B646B00016307000E4E
:1005F000645B00016351641103E000000000F5D763
:10060000FF0001D000D01200040110511F0B01089F
:1006100001E079D0145101E076D0060E115D2EE193
:100620001351230A28E0010A13E0030A01E024D051
:100630000001020EB06F0001BA0505E100019C0E39
:10064000B16F0A0EB26F090E0001B56FB66B14D010
:100650000001020EB06F0001BA0505E100014B0E6A
:10066000B16F0B0EB26F0001BA0504E11D0E00015F
:10067000B56FB66B01D000D00001B98304011051F1
:10068000600BE842E842E842E842E842010801E043
:100690003AD011510B0A31E0080A21E0090A19E0A9
:1006A000080A09E00B0A05E0080A01E02CD02CD862
:1006B0002AD02BD828D00001020EB06F0001BC0E4A
:1006C000B16F000EB26F0001B9930001010EB56F5A
:1006D0001AD00001020EB06F13C4BCF014D0000198
:1006E000020EB06F0001BD0EB16F000EB26F0001BF
:1006F000B9930001010EB56F06D00001020EB06F74
:1007000012C4BDF000D01200120012000001BE6B36
:100710001E0E6B6E0401400E096F200E0A6F040E50
:100720000B6F880E086F0401600E0E6F040E0F6FC2
:10073000400E0C6F1200D9CFE6FFE1CFD9FFE65291
:10074000FC0EDB50400805E2400EF36EFC0EF3CFCA
:10075000DBFFDF6AFC0EDB50DF5C19E2DF50E76E87
:10076000FD0EDBCFE9FFFE0EDBCFEAFFE750E92607
:10077000000EEA22EF50E66EDF50EA6A600FE96E83
:10078000040EEA22E552E750EF6EDF2AE3D7FC0EB3
:10079000DBCF0DF4400E04010C170C7D880E0C13FA
:1007A000E552E552E7CFD9FF1200D9CFE6FFE1CFFE
:1007B000D9FF0001BE6B040108BF30D0FC0EDBCFB7
:1007C00020F00951D880205403E2FC0E09C4DBFF5D
:1007D0000001BE6BFC0EDB50BE5D19E2BE51EA6A41
:1007E000200FE96E040EEA22EF50E66EBE51E76E6E
:1007F000FD0EDBCFE9FFFE0EDBCFEAFFE750E92677
:10080000000EEA22E552E750EF6EBE2BE3D704015B
:10081000400E096F0817087D880E08130001BE51AD
:1008200000D0E552E7CFD9FF120004011051600B50
:10083000E842E842E842E842E842000901E098D094
:100840001151080A01E186D0010A72E00F0A0AE09C
:10085000030A01E08DD00001010EB06F0001040E0B
:10086000B86F86D00001010EB06F040113050AE1D4
:100870000001780EB16F0A0EB26F120E0001B56F53
:10088000B66B53D0020E135D1EE11251F66EF76A7D
:10089000D890F636F736680EF6260B0EF7220900CA
:1008A000F5CFB1F00A00F5CFB2F0020E0001F76A01
:1008B000B125F66EB251F7220900F5CFB5F00A0066
:1008C000F5CFB6F032D0030E135D2DE1030E125DAD
:1008D00010E10001000EB16F000EB26FB1C0E9FF70
:1008E000B2C0EAFFEF500001B56FB66B0001B993DB
:1008F0003FD01251F66EF76AD890F636F7366C0E86
:10090000F6260B0EF7220900F5CFB1F00A00F5CF5D
:10091000B2F0B1C0F6FFB2C0F7FF0800F550000119
:10092000B56FB66B02D00001B06B0001B98320D067
:100930000001010EB06F12C4BAF00401125104E1BB
:100940000001050EB86F05D00001060EB86F86ECE9
:1009500003F00ED00001010EB06F0001BA0EB16FAE
:10096000000EB26F0001B9930001010EB56F00D007
:100970001200D9CFE6FFE1CFD9FFE652948C948ED6
:100980000F015C6B938A93988A88F19E8568060EA6
:10099000E66E68EC06F0E55281AA0DD0FE0EF66E0A
:1009A0007F0EF76EF86A0800F550DF6E550EDF5CBB
:1009B00002E100EF10F005D8E552E552E7CFD9FF8C
:1009C0001200D9CFE6FFE1CFD9FF020EE1261BD8F6
:1009D000CAEC05F086EC02F0D9CFE9FFDACFEAFFE6
:1009E000EE50ED1001E18B70DF06010E01E2DB0637
:1009F000EFD7020EE15C02E2E16AE552E16EE552F8
:100A0000E7CFD9FF1200D9CFE6FFE1CFD9FFE652F9
:100A1000800E9B6E700ED36E100ED26ED2AEFED7CD
:100A2000900EB56EDF6A400EDF5C09E2DF50EA6AC5
:100A3000200FE96E040EEA22EF6ADF2AF4D7140EC3
:100A4000626E0001B86B0001B96B0001BA6B020E57
:100A5000DF6E0001030E016F090E026F040E036FBB
:100A6000020EDF24006F8B909490BAEC05F0E552F3
:100A7000E552E7CFD9FF1200120100020000000882
:100A8000D804330002000102030209022900010117
:100A90000280320904000002030000000921010065
:100AA0000001221D00070581034000010705010325
:100AB0004000010902200001020480320904000004
:100AC00002FF000000070581034000010705010344
:100AD0004000010403090434034D006900630072FF
:100AE000006F00630068006900700020005400651A
:100AF00000630068006E006F006C006F0067007993
:100B000000200049006E0063002E00400350004B9F
:100B10000032004D0020004D006900630072006F3C
:100B20000063006F006E00740072006F006C006C58
:100B300000650072002000500072006F00670072B4
:100B40000061006D006D00650072000600FF090184
:100B5000A10119012940150026FF00750895408163
:100B600002190129409102C08A0AB30AD30AD70A9E
:100B70000B0B0806080E606E60BAFED7656A110E90
:100B8000646E0001020EB86F1200606A646A0001B0
:100B9000B86B12006550040B09E06450040B06E0CA
:100BA0006092649465A402D06594FCD76550010BF3
:100BB00004E06450010B01E023D86550200B06E0EF
:100BC0006450200B03E06AB06A90659A030E00013E
:100BD000B85D01E214D00001BF6B040EBF5D0FE2EF
:100BE0006550080B0BE06450080B08E016EC00F0B1
:100BF000000901E165960001BF2BEFD700D012007C
:100C0000656A7B0E646E636A160E6A6E65A608D00E
:100C10006596000000000000000000000000F6D70C
:100C2000609898EC01F00001BA6B0001030EB86FF8
:100C300012002A0EF66E000EF76E000EF86E00011E
:100C40000900F550AA6F0900F550AB6F03E1AA67E0
:100C500001D03DD00900F550A56F0900F550A66FF1
:100C60000900F550A76F09000900F550E96E090069
:100C7000F550EA6E090009000900F550A86F090057
:100C8000F550A96F09000900F6CFACF0F7CFADF031
:100C9000F8CFAEF0A5C0F6FFA6C0F7FFA7C0F8FFDB
:100CA0000001A85302E1A95307E00900F550EE6ED8
:100CB000A807F8E2A907F9D7ACC0F6FFADC0F7FF67
:100CC000AEC0F8FF0001AA07000EAB5BBFD7120051
:100CD000FF0EE350276EEF0E01D0F30EE76EE72E06
:100CE0006FEF06F00C0E266EE76AE72E75EF06F042
:100CF000262E74EF06F0272E6DEF06F01200000E80
:100D0000F36E00EE00F0080E01D81200EA6002D087
:100D1000EE6AFCD7F350E9601200EE6AFCD713EEDE
:100D200000F023EE00F0F86A259C19EC06F09DEC2B
:0C0D300006F0B9EC04F0FBD71200120032
:040FFC00E1EF04F02D
:1020000011EF3EF01200FFFFBCEF3AF01200FFFFAD
:10201000FFFFFFFFFFFFFFFFBCEF3AF01200FFFFE3
:10202000FFFFFFFFFFFFFFFFFFFFD9CFE6FFE1CF7D
:10203000D9FFE6520F01030E5B6F92809282C16A54
:10204000030EC06E928480948994928680968996BD
:1020500092888998899A929A929C898C928E899E6C
:102060000F015C6B8A9693968A8893989388938ADB
:10207000818A8A949394F19E85680F015D6B8B90A1
:1020800094908B9294928B949494948C948E020E50
:10209000DF6E0001030E016F0001090E026F0001E7
:1020A000040E036FF00EE66E64EC2AF0E55223088E
:1020B00028E11E0EDF5C25E2DF50FE0BE842F00F48
:1020C000E66E64EC2AF0E552E66EDF50EA6A000F35
:1020D000E96E000EEA22E552E750EF6EDF28EA6A69
:1020E000000FE96E000EEA22EF6ADF50EA6A000F85
:1020F000E96E000EEA22EF5001E103D0020EDF2666
:10210000D8D7020EDF240001006F416A0001E76B9F
:102110000001010EE86F0201030EE06F0201E16BA6
:102120000201010EE26FFD0E856E8A808A92939005
:10213000DF6A640EDF5C0DE293929382020EE66E1C
:102140002DEC3EF0E55281B202D00001E78FDF2A8C
:10215000F0D793808568E8EC19F0C3EC17F0B9EC80
:1021600017F093EC17F00001400ED880E355010EF4
:10217000E4550EE30001C00EE35D000EE45908E3F0
:102180000001E651AF0804E3500E0001E65D09E2EC
:102190000001E36B010EE46F0001E56B0001800EAE
:1021A000E66F080ED56E040EBA6E4F0EBB6E0C0EA7
:1021B000BD6E1D0EBE6E0001400EE06F00013E0EB2
:1021C000E16F00013C0EE26F02017E0EFA6F020128
:1021D0002D0EFB6F7D6AF28CF28E4EEC3BF0040EFE
:1021E000E66E64EC2AF0E552500828E1050EE66E32
:1021F00064EC2AF0E5524B0821E1060EE66E64EC31
:102200002AF0E55232081AE1070EE66E64EC2AF075
:10221000E552346E020E416E546AE66A110EE66EA5
:1022200063EC16F0E552E552400EE66E12EC17F044
:10223000E5520201FA6F0201890E006FE552E55284
:10224000E7CFD9FF120004010CBFFDD7400EE66EA8
:10225000400EE66E020EE66E37EC3AF0E552E552BD
:10226000E552A3EC3CF01200D9CFE6FFE1CFD9FF55
:10227000020EE126DF6A010EDB6A81BA02D000019C
:10228000E78D400EE66E000EE66E020EE66E73EC13
:102290003AF0E552E552E552000803E2DE52010E43
:1022A000DD6E410406E1010EDB5002E08FEC2FF001
:1022B0001DD2020E415C09E1010EDB5004E0760EF6
:1022C0000201005D02E01CDA11D20001E8B396DAE7
:1022D000010EDB5001E10AD2DF50EA6A000FE96E1D
:1022E000020EEA22EF50546E5450420A28E0340A9B
:1022F00005E02C0A01E026D0DF2AF4D140EC1DF0E5
:10230000020E415C1AE1080ED56E8A889388416AF4
:10231000E668040EE66E42EC2AF0E552E552E66805
:10232000050EE66E42EC2AF0E552E552E668060E2E
:10233000E66E42EC2AF0E552E552DF2AD3D108ECF2
:102340001DF0D0D1A00E545C03E2400EDF6ECAD166
:102350005450B90803E2400EDF6EC4D1A00E545EA3
:10236000549E5446080E5426F9505424D8B0FA2AE4
:10237000F96E1AD03FD079D07CD07FD088D09FD052
:10238000BFD0C2D0CBD0CED0D1D0D4D0D7D0D9D05E
:10239000DBD0DED013D11BD123D12BD12DD135D120
:1023A00036D13DD188D19ED1DF28EA6A000FE96E8F
:1023B000020EEA22EF50E66E020EDF24EA6A000FF8
:1023C000E96E020EEA22EF50E66E63EC16F0E5527B
:1023D000E552030EDF24EA6A000FE96E020EEA22DC
:1023E000EF50E66E12EC17F0E5520201FA6F040EA0
:1023F000DF26D9D7DF28EA6A000FE96E020EEA224B
:10240000EFCFE0F0020EDF24EA6A000FE96E020E61
:10241000EA22EF50E66E12EC17F0E552010F0001D0
:10242000E16FE1C0E6FF4AEC17F0E5520001E16F11
:10243000020E0001E15D0001E26F030EDF24EA6A93
:10244000000FE96E020EEA22EF50E66E12EC17F072
:10245000E5520201FB6FFBC2E6FF4AEC17F0E552C2
:102460000201FB6F040EDF269ED720EC1DF0DF2A51
:102470009AD776EC18F0DF2A96D7DF2AD9CFE6FF75
:10248000DACFE6FF82EC1AF0E552E5528CD7DF2A6C
:10249000DF28EA6A000FE96E020EEA22EF50E66ECC
:1024A000DF50EA6A000FE96E020EEA22EF50E66E94
:1024B00097EC19F0E552E552020EDF2674D7DF2AB9
:1024C000DF50EA6A000FE96E020EEA22EF50E66E74
:1024D000DF28436A000F426E020E432242C0E6FF2D
:1024E00043C0E6FF4CEC1DF0E552E552E552DF50EB
:1024F000EA6A000FE96E020EEA22EF28DF2653D7C0
:10250000C3EC17F0DF2A4FD7DF2AD9CFE6FFDACFA7
:10251000E6FF03EC1AF0E552E55245D7B9EC17F0A7
:10252000DF2A41D7F6EC18F0DF2A3DD7E8EC19F0A6
:10253000DF2A39D749EC19F0DF2A35D7400EDF6E94
:1025400032D7FF00DF2A2FD7CBEC17F0DF2A2BD7AB
:10255000DF28EA6A000FE96E020EEA22EF5000015E
:10256000E36FE46B020EDF24EA6A000FE96E020EED
:10257000EA22EFCF42F0436A42BE436842C043F0D2
:10258000426A42500001E32743500001E423030E56
:10259000DF24EA6A000FE96E020EEA22EFCFE5F0CF
:1025A000040EDF24EA6A000FE96E020EEA22EFCF82
:1025B000E6F070EC17F0050EDF26F5D6DF2AD9CF4E
:1025C000E6FFDACFE6FFFDDAE552E552ECD6DF2A88
:1025D000D9CFE6FFDACFE6FF74DAE552E552E3D66B
:1025E000DF2AD9CFE6FFDACFE6FFB0D9E552E552D0
:1025F000DAD6DF2A17DAD7D6DF2ADFCFE6FF2FECCD
:102600002FF0E552040EDF26CED6DF2ACCD6DF2A05
:10261000DFCFE6FF4FD9E552400EDF6EC4D6DF2A8A
:10262000DF50DF2AEA6A000FE96E020EEA22EF505D
:102630005F6EDF50DF2AEA6A000FE96E020EEA22BF
:10264000EF50546EDF50DF2AEA6A000FE96E020E87
:10265000EA22EF50566EDF50DF2AEA6A000FE96E79
:10266000020EEA22EF50586EDF50DF2AEA6A000FAE
:10267000E96E020EEA22EF50596EDF50DF2AEA6A55
:10268000000FE96E020EEA22EF505A6EDF50DF2A89
:10269000EA6A000FE96E020EEA22EF285B6EDF5055
:1026A000DF2AEA6A000FE96E020EEA22EF505E6E40
:1026B000DEEC2DF078D6DF2ADF28EA6A000FE96E1B
:1026C000020EEA22EF50E66EDF50EA6A000FE96E72
:1026D000020EEA22EF50E66EB3D9E552E552020E41
:1026E000DF2661D6400EDF5C01E2F6D5020EE15C2A
:1026F00002E2E16AE552E16EE552E7CFD9FF12004E
:10270000F29A870ED56EF2A42BD0D20ED76E3A0E67
:10271000D66EF294542A5450050801E2546A040E0D
:10272000545C07E2010E5414E8B08A88E8A08A9845
:102730009398300E0001E71513E08A88938881BAD8
:10274000FED78F0E0001E717F00EE66EFAEC3DF0B3
:10275000E55281AAFED7F00EE66EFAEC3DF0E552A6
:102760000001E7AD49D08A88938837EC31F08A8838
:1027700093888A8681AAFED7546AE66A110EE66EAD
:10278000A2DAE552E552400EE66E4CDBE55202015C
:10279000FA6F300E0001E71502E081BAFED7FC0E99
:1027A0000001E81506E0080EE66E85EC36F0E5520D
:1027B00010D03B0406E1040EE66E85EC36F0E552DF
:1027C00008D039503A1005E0060EE66E85EC36F07A
:1027D000E552F00EE66EFAEC3DF0E55281AAFED726
:1027E000F00EE66EFAEC3DF0E5528F0E0001E717B1
:1027F0000001E86B0001E79D8B901200D9CFE6FF46
:10280000E1CFD9FF020EE126ABA202D0AB98AB8894
:10281000345024E0F29E3450DF6E346A3550E66E58
:10282000AEEC27F0E552F28EDE52010EDD6EDF5087
:10283000F36E010EDBCFF4FFF350F45C0FE2010EF8
:10284000DB50EA6A350FE96E000EEA22EF50E66EC1
:10285000AEEC27F0E552010EDB2AE9D70201E55183
:10286000E61106E0AC50020B03E0E3EC27F0AD6E9E
:102870008A50100B15E1C250020B12E10201FA510D
:10288000C45C0BE20C0E0201FC5D04E18A948A88B0
:10289000938802D00201FC2B02D00201FC6BC282A1
:1028A000020EE15C02E2E16AE552E16EE552E7CF39
:1028B000D9FF1200D9CFE6FFE1CFD9FFFE0EDBCF63
:1028C000E6FF4DEC2FF0E55200093CE0020E416EB0
:1028D000546AE66A110EE66EF6D9E552E552400EEC
:1028E000E66EA0DAE5520201FA6F500EE66E040EB3
:1028F000E66E42EC2AF0E552E5524B0EE66E050E0E
:10290000E66E42EC2AF0E552E552320EE66E060E15
:10291000E66E42EC2AF0E552E552FE0EDB50030F64
:10292000EA6A000FE96E020EEA22EF50346E34506C
:10293000E66E070EE66E42EC2AF0E552E552020121
:10294000890E006FE552E7CFD9FF1200D9CFE6FF1D
:10295000E1CFD9FF040EE126F29E63EC3BF0050EB9
:10296000C26EC282FD0EDBCFE9FFFE0EDBCFEAFFB7
:10297000EF50EF2AEA6A000FE96E020EEA22EFCF6B
:10298000DFFFFD0EDBCFE9FFFE0EDBCFEAFFEF50EE
:10299000EF2AEA6A000FE96E020EEA22010EEFCF7B
:1029A000DBFF346A0001E8839286928492888A94DD
:1029B000899A928E949C240EAC6E080EB86E900E7E
:1029C000AB6E230E456E466A020E476EDECF48F0B0
:1029D000DDCF49F0010ED89048364936E806FBE1D4
:1029E0004A6A4850455C426E49504658436E4A50C8
:1029F0004758446E020E42C0DBFF030E43C0DBFFAC
:102A0000020EDB50AF6E030EDB50B06E9D8AF28E6D
:102A1000040EE15C02E2E16AE552E16EE552E7CFC5
:102A2000D9FF1200F29E0001E893948C948E040E5C
:102A3000AC6EAB6A9D9A92864EEC3BF0F28E120021
:102A4000D9CFE6FFE1CFD9FF030EE126FD0EDB5023
:102A5000446E456A44C045F0446AFE0EDB500001F6
:102A60004424426E000E4520436E010E42C0DBFF3F
:102A7000020E43C0DBFFDF6ADF50426E436AD8902C
:102A8000435004E6800E425C000E435810E2010EF3
:102A9000DBCFE9FFDB2A020EDBCFEAFF01E3DB2A13
:102AA000EF50E66EAEEC27F0E552DF2AE5D7030ED5
:102AB000E15C02E2E16AE552E16EE552E7CFD9FF5F
:102AC0001200D9CFE6FFE1CFD9FF050EE126FD0EBA
:102AD000DBCFE9FFFE0EDBCFEAFFEF50EF2AEA6A19
:102AE000000FE96E020EEA22040EEFCFDBFFFD0EAF
:102AF000DBCFE9FFFE0EDBCFEAFFEF50EF2AEA6AF9
:102B0000000FE96E020EEA22EF50E66ED950020F76
:102B1000E96EDACFEAFFE552E750EE6EED6AD95082
:102B2000020FE96EDACFEAFF200ED880EE54000ED5
:102B3000ED5407E2200EF36E020EF3CFDBFF030E1F
:102B4000DB6AD950020FE96EDACFEAFFEE50ED10E2
:102B500001E12DD0DE6ADD6ADECF42F0DDCF43F049
:102B6000020EDBCF44F0030EDBCF45F04450425C55
:102B7000455043581AE2040EDBCFF3FFDB2AF35033
:102B8000E66E64EC2AF0E552E66EDECFE9FFDDCFBB
:102B9000EAFF400EE926020EEA22E552E750EF6E08
:102BA000DF2A010E01E3DB2AD7D723EC11F0050E53
:102BB000E15C02E2E16AE552E16EE552E7CFD9FF5E
:102BC0001200D9CFE6FFE1CFD9FF050EE126FD0EB9
:102BD000DBCFE9FFFE0EDBCFEAFFEF50EF2AEA6A18
:102BE000000FE96E020EEA22040EEFCFDBFFFD0EAE
:102BF000DBCFE9FFFE0EDBCFEAFFEF50EF2AEA6AF8
:102C0000000FE96E020EEA22EF50E66ED950020F75
:102C1000E96EDACFEAFFE552E750EE6EED6AD95081
:102C2000020FE96EDACFEAFF200ED880EE54000ED4
:102C3000ED5407E2200EF36E020EF3CFDBFF030E1E
:102C4000DB6AD950020FE96EDACFEAFFEE50ED10E1
:102C500001E12FD0DE6ADD6ADECF42F0DDCF43F046
:102C6000020EDBCF44F0030EDBCF45F04450425C54
:102C7000455043581EE2FD0EDBCFE9FFFE0EDBCFD1
:102C8000EAFFEF50EF2AEA6A000FE96E020EEA222D
:102C9000EF50E66E040EDBCFF3FFDB2AF350E66E57
:102CA00042EC2AF0E552E552DF2A010E01E3DB2A6D
:102CB000D3D7050EE15C02E2E16AE552E16EE5522E
:102CC000E7CFD9FF1200D9CFE6FFE1CFD9FF020E3F
:102CD000E126FE0EDB50E76E010EE7CFDBFFFD0EB7
:102CE000DB50DF6ED9CFE9FFDACFEAFF060E0F0B1C
:102CF00006E0EC52D890ED32EF32E806FAE1E5C09A
:102D000042F0436A42BE4368D9CFE9FFDACFEAFF17
:102D10004250EE264350ED220001E651426E436AD6
:102D2000D9CFE9FFDACFEAFF42C02DF043C02EF041
:102D3000EECF28F0EDCF29F070EC3DF026C0EEFF8D
:102D400027C0EDFFD9CFE9FFDACFEAFF010E0F0B65
:102D500006E0EC52D890ED32EF32E806FAE1010ECF
:102D6000DB50BE6EDF50E840E8403F0B300B426E58
:102D7000CF0EBD144210BD6E020EE15C02E2E16AAC
:102D8000E552E16EE552E7CFD9FF1200D9CFE6FF59
:102D9000E1CFD9FF040EE126E3C046F0E4C047F0DE
:102DA000486A496AFD0EDBCF42F0FE0EDBCF43F0EE
:102DB000446A456A42C026F043C027F044C028F068
:102DC00045C029F046C02BF047C02CF048C02DF07C
:102DD00049C02EF08EEC3DF022C0DEFF23C0DEFFA6
:102DE00024C0DEFF25C0DDFFDD52DD52030EDB50C7
:102DF00004E0010EDB68020EDB68010EDBCF42F05F
:102E0000020EDBCF43F042C0F3FF43C0F4FF00D01B
:102E1000040EE15C02E2E16AE552E16EE552E7CFC1
:102E2000D9FF1200D9CFE6FFE1CFD9FF020EE1268C
:102E3000E3C042F0E4C043F0000ED8804256020ED8
:102E4000435642C0DEFF43C0DDFFFE0EDB50426E44
:102E5000436AD9CFE9FFDACFEAFF42C02DF043C081
:102E60002EF0EECF28F0EDCF29F070EC3DF026C02B
:102E7000EEFF27C0EDFF010EDB5000D0426E020EC8
:102E8000E15C02E2E16AE552E16E4250E552E7CFD1
:102E9000D9FF1200D9CFE6FFE1CFD9FF020EE1261C
:102EA000FE0EDB50426E436AE00E286E296A42C075
:102EB0002DF043C02EF070EC3DF026C0DEFF27C0A1
:102EC000DDFF010EDB5000D0426E020EE15C02E23B
:102ED000E16AE552E16E4250E552E7CFD9FF1200B8
:102EE000E3C0E6FFE66A42EC2AF0E552E552E4C0B0
:102EF00042F0436A4250E66E010EE66E42EC2AF062
:102F0000E552E552E5C0E6FF020EE66E42EC2AF01D
:102F1000E552E552E6C0E6FF030EE66E42EC2AF00B
:102F2000E552E5521200E66A64EC2AF0E55200012F
:102F3000E36FE46B010EE66E64EC2AF0E552426E3C
:102F4000436A42C043F0426A42500001E3274350C3
:102F50000001E423020EE66E64EC2AF0E552000163
:102F6000E56F030EE66E64EC2AF0E5520001E66FB1
:102F700012000001E96B0001EA6B0001EB6BEC6BE6
:102F80000001E89712000201E36B0201E46B020109
:102F9000E56BE66B1200D9CFE6FFE1CFD9FF060E55
:102FA000E126DE6ADD6A020EDB6A030EDB6A040ECE
:102FB000DB6A050EDB6A040EDB6A050EDB6A040EB3
:102FC000DBCF42F0050EDBCF43F0D890435004E650
:102FD000200E425C000E43581EE2040EDBCFE9FFD8
:102FE000050EDBCFEAFF030EEA02F3CFEAFF030E82
:102FF000E902F3CFE9FFF450EA26800EE926020E3B
:10300000EA22EF50DE26000EDD22040EDB2A050E3A
:1030100001E3DB2AD4D7040EDB6A050EDB6A040E5B
:10302000DBCF42F0050EDBCF43F0DECF44F0DDCF47
:1030300045F043504518E8AE02D0453404D0445022
:10304000425C455043581EE2040EDB500001F4255B
:103050000F01E96E050EDB500001F5210F01EA6E4C
:10306000EF50426E436AD950020FE96EDACFEAFFA1
:103070004250EE264350ED22040EDB2A050E01E3FA
:10308000DB2ACDD7DECF42F0DDCF43F04250020144
:10309000406FDECF42F0DDCF43F043C042F0436AE1
:1030A00042C041F2FF0EE76E020EDBCF42F0030E8C
:1030B000DBCF43F0E7504216436A42C042F2020EB1
:1030C000DBCF42F0030EDBCF43F043C042F0436A54
:1030D00042C043F223EC11F0060EE15C02E2E16A29
:1030E000E552E16EE552E7CFD9FF1200D9CFE6FFF6
:1030F000E1CFD9FF060EE12663EC3BF0040EE66E4D
:1031000067D8E552010EC4CFDBFFC350DF6EDECFC0
:10311000E6FFDDCFE6FF3ADEE552E552F3CFDEFF14
:10312000F4CFDDFFDFCF40F2010EDBCF41F2E66AE4
:103130004FD8E552010EC4CFDBFFC350DF6EDECFA8
:10314000E6FFDDCFE6FF22DEE552E552F3CFDEFFFC
:10315000F4CFDDFFDECF42F0DDCF43F0446A456AB5
:10316000250E2B6E010E2C6E2D6A2E6A42C026F0A3
:1031700043C027F044C028F045C029F08EEC3DF054
:1031800022C042F023C043F024C044F025C045F0E3
:10319000020E42C0DBFF030E43C0DBFF040E44C03F
:1031A000DBFF050E45C0DBFF030EDBCF42F2040E52
:1031B000DBCF43F223EC11F04EEC3BF0060EE15C6A
:1031C00002E2E16AE552E16EE552E7CFD9FF120073
:1031D000D9CFE6FFE1CFD9FFFE0EDB28C26EC28257
:1031E000C2B2FED7E552E7CFD9FF1200D9CFE6FF32
:1031F000E1CFD9FF020EE126010EEBC0DBFF010E8D
:10320000DB503F0803E2DE523F0EDD6E010EDBCFE6
:1032100040F2010EDF6E010EDB50D880DF5423E355
:103220000001EA51EA2BEA6A600FE96E000EEA2219
:10323000EF50E66EDF50EA6A400FE96E020EEA22B6
:10324000E552E750EF6E0001EA51426E436AD890B2
:10325000435004E6800E425C000E435802E3000136
:10326000EA6BDF2AD8D7010EDB50426E436A425028
:103270000001EB5F43500001EC5B23EC11F0020E08
:10328000E15C02E2E16AE552E16EE552E7CFD9FF87
:103290001200D9CFE6FFE1CFD9FF020EE126010EE1
:1032A000EBC0DBFF010EDB50400803E2DE52400EB4
:1032B000DD6EDF6A010EDB50DF5C23E20001EA51C4
:1032C000EA2BEA6A600FE96E000EEA22EF50E66E22
:1032D000DF50EA6A400FE96E020EEA22E552E7503B
:1032E000EF6E0001EA51426E436AD890435004E603
:1032F000800E425C000E435802E30001EA6BDF2AB5
:10330000D9D7010EDB50426E436A42500001EB5F99
:1033100043500001EC5B23EC11F0020EE15C02E291
:10332000E16AE552E16EE552E7CFD9FF1200D9CF4D
:10333000E6FFE1CFD9FF200EF36EFE0EDBCFF4FFE8
:10334000F350F45C0DE2FE0EDB50030DF3CFE9FF0A
:10335000F4CFEAFF800EE926020EEA22EF5003E1E5
:103360000001E88B31D0FE0EDB50030DF3CFE9FFF7
:10337000F4CFEAFF800EE926020EEA22EF50E66E55
:10338000FE0EDB50030DF3CFE9FFF4CFEAFF800E12
:10339000E926020EEA22EE5200010001F451EE2469
:1033A000426E00010001F551EE20436E42C0E6FF7F
:1033B00043C0E6FF71DBE552E552E552FD0EDB0648
:1033C000FD0EDB500008CFE3E552E7CFD9FF120036
:1033D000D9CFE6FFE1CFD9FFE652DF6A200EDF5CEE
:1033E0000DE2DF50030DF3CFE9FFF4CFEAFF800ECB
:1033F000E926020EEA22EF6ADF2AF0D7E552E5520B
:10340000E7CFD9FF1200D9CFE6FFE1CFD9FF040EF5
:10341000E126FD0EDBCFE9FFFE0EDBCFEAFFEF502A
:10342000EF2AEA6A000FE96E020EEA22EF50E66E1A
:10343000D950020FE96EDACFEAFFE552E750EE6E9F
:10344000ED6A020EDB500201E5250001426E030E1B
:10345000DB500201E6210001436E000ED880425489
:10346000010E435403E20001E88F42D0DE6ADD6AB8
:10347000DECF42F0DDCF43F0020EDBCF44F0030E8F
:10348000DBCF45F04450425C4550435831E2FD0EDD
:10349000DBCFE9FFFE0EDBCFEAFFEF50EF2AEA6A4F
:1034A000000FE96E020EEA22EF50E66E0201E351D0
:1034B000E32BEA6A000FE96E010EEA22E552E750BB
:1034C000EF6E0201E351426E436AD890435004E626
:1034D000000E425C010E435802E30201E36B02015D
:1034E000E52B000EE623DF2A010E01E3DB2AC0D71D
:1034F000040EE15C02E2E16AE552E16EE552E7CFDB
:10350000D9FF1200D9CFE6FFE1CFD9FF080EE1269F
:10351000FD0EDBCFE9FFFE0EDBCFEAFFEF28EA6A04
:10352000000FE96E020EEA22EFCF42F0436A42BE7C
:103530004368040E42C0DBFF050E43C0DBFF040EF0
:10354000DBCF42F0050EDBCF43F0433404E24250C0
:103550003D08000E435403E20001E88D4FD2FD0EFA
:10356000DBCFE9FFFE0EDBCFEAFFEF50EA6A000F88
:10357000E96E020EEA22EFCF42F0436A42BE436890
:10358000060E42C0DBFF070E43C0DBFF020EDB6A04
:10359000030EDB6ADE6ADD6ADECF42F0DDCF43F088
:1035A000D890435004E6200E425C000E435823E2BC
:1035B000DECFE9FFDDCFEAFF030EEA02F3CFEAFF39
:1035C000030EE902F3CFE9FFF450EA26800EE92664
:1035D000020EEA22EF50426E436AD950020FE96EA2
:1035E000DACFEAFF4250EE264350ED22DF2A010EE9
:1035F00001E3DB2AD1D7060EDBCFE9FF070EDBCFD5
:10360000EAFF030EEA02F3CFEAFF030EE902F3CF6B
:10361000E9FFF450EA26800EE926020EEA22EF5076
:10362000426E436AD950020FE96EDACFEAFF425088
:10363000EE5E4350ED5A040EDBCF42F0050EDBCFB9
:1036400043F0020EDBCF44F0030EDBCF45F0000E5B
:10365000D8804456030E455645504318E8AE02D074
:10366000433404D04250445C4350455803E20001C7
:10367000E88DC4D1060EDBCF42F0070EDBCF43F05E
:10368000433404E242501F08000E435403E2000199
:10369000E88DB4D1060EDBCFE9FF070EDBCFEAFFE2
:1036A000030EEA02F3CFEAFF030EE902F3CFE9FFCC
:1036B000F450EA26800EE926020EEA22EF5001E1DC
:1036C00006D1060EDBCFE9FF070EDBCFEAFF030EC4
:1036D000EA02F3CFEAFF030EE902F3CFE9FFF45069
:1036E000EA26800EE926020EEA22EF50426E436A75
:1036F000000ED8804256030E43564206000E435A2F
:10370000040E42C0DBFF050E43C0DBFF060EDBCF1D
:10371000E9FF070EDBCFEAFF030EEA02F3CFEAFF71
:10372000030EE902F3CFE9FFF450EA26800EE92602
:10373000020EEA22EE52EECFDEFFEDCFDDFFDECF4E
:1037400042F0DDCF43F0040EDBCF44F0050EDBCFBB
:1037500045F043504518E8AE02D0453404D04450FB
:10376000425C4550435835E2060EDBCFE9FF070EB9
:10377000DBCFEAFF030EEA02F3CFEAFF030EE90212
:10378000F3CFE9FFF450EA26800EE926020EEA2282
:10379000EF500001436AF425426EF5514322DE509A
:1037A0004224E96EDD504320EA6EEF50E66EDE50B3
:1037B0000001F4250F01E96EDD500001F5210F0134
:1037C000EA6EE552E750EF6EDF2A010E01E3DB2AD5
:1037D000B6D7DE6ADD6ADECF42F0DDCF43F0D890A7
:1037E000435004E6200E425C000E435870E2DECFE8
:1037F000E9FFDDCFEAFF030EEA02F3CFEAFF030E93
:10380000E902F3CFE9FFF450EA26800EE926020E22
:10381000EA22EECF42F0EECF43F0EFCF44F0060EB7
:10382000DBCFE9FF070EDBCFEAFF030EEA02F3CF9F
:10383000EAFF030EE902F3CFE9FFF450EA26800E17
:10384000E926020EEA22EE52EECF45F0EFCF46F027
:10385000000146504418E8AE02D0443404D043502E
:10386000455C445046582EE2060EDBCFE9FF070EBA
:10387000DBCFEAFF030EEA02F3CFEAFF030EE90211
:10388000F3CFE9FFF450EA26800EE926020EEA2281
:10389000EF50426E436ADECFE9FFDDCFEAFF030E51
:1038A000EA02F3CFEAFF030EE902F3CFE9FFF45097
:1038B000EA26800EE926020EEA22EE524250EE5E21
:1038C0004350ED5ADF2A010E01E3DB2A84D7FD0EB7
:1038D000DBCFE9FFFE0EDBCFEAFFEF28EA6A000F3D
:1038E000E96E020EEA22EF50E66E060EDBCFE9FF2C
:1038F000070EDBCFEAFF030EEA02F3CFEAFF030E67
:10390000E902F3CFE9FFF450EA26800EE926020E21
:10391000EA22E552E750EF6E060EDBCFE9FF070E15
:10392000DBCFEAFF030EEA02F3CFEAFF030EE90260
:10393000F3CFE9FFF450EA26800EE926020EEA22D0
:10394000EE52020EDBCFEEFF030EDBCFEDFF020ED9
:10395000426EFD0EDBCFE9FFFE0EDBCFEAFF4250E9
:10396000EF26DE6ADD6ADECF42F0DDCF43F0060EE1
:10397000DBCFE9FF070EDBCFEAFF030EEA02F3CF4E
:10398000EAFF030EE902F3CFE9FFF450EA26800EC6
:10399000E926020EEA22EF50000143AE02D0D89091
:1039A00003D0425C000E435829E2FD0EDBCFE9FF55
:1039B000FE0EDBCFEAFFEF50EF2AEA6A000FE96E56
:1039C000020EEA22EF50E66E020EDB500001F425F3
:1039D0000001426E030EDB500001F5210001436E31
:1039E000DE504224E96EDD504320EA6EE552E75096
:1039F000EF6EDF2A010E01E3DB2AB5D7080EE15C8A
:103A000002E2E16AE552E16EE552E7CFD9FF12002A
:103A1000F29E9EEC3CF0840EA66EFE0EF66E7F0EBD
:103A2000F76EF86AF56A0C00550EA76EAA0EA76E1F
:103A3000A6824E0EE66EFAEC3DF0E552FF00120053
:103A4000F00E0001E71781A402D00001E78780AAE9
:103A500002D00001E7858AB802D00001E78381A681
:103A600002D00001E781E7C040F2E8C041F28F0ECA
:103A70000001E7170001E86B8B9023EC11F01200B6
:103A80000201020E406F0201200E416F0201020E80
:103A9000426F23EC11F01200D9CFE6FFE1CFD9FF3E
:103AA0000D0EE126DF6A0B0EDB6A0C0EDB6AF29A62
:103AB000070ED56EFC0EDB5004E0FC0EDB503D081B
:103AC00004E20001E88BA8EF24F0FE0E0001E815E7
:103AD00002E0A8EF24F0FC0EDB50DF5C02E3A8EF6D
:103AE00024F0DF50E76EFD0EDBCFE9FFFE0EDBCFEB
:103AF000EAFFE750E926000EEA22EF50546EB00EBE
:103B0000545C04E2FC0EDB50DF6EDFD7D50E545C54
:103B100001E2CFD3D50E545E549E5446080E54266F
:103B2000F9505424D8B0FA2AF96EAAD39FD3E4D21C
:103B300005D354D320D3DDD2D5D26BD262D24DD2AD
:103B400044D2EBD11DD2E5D1D0D197D15FD138D1BC
:103B50004AD1F3D0E2D0CED0B6D09ED075D06ED0C0
:103B600063D058D041D02BD028D024D020D01CD026
:103B700018D014D011D00ED00BD008D004D000D063
:103B80008A98939894D38A88938891D38A868FD37E
:103B90008A968DD38A848BD38A9489D30C0E976EA0
:103BA00086D3976A8B9283D3898A929E80D3899A8F
:103BB000928E7DD38B805C6A7AD38B9078D3DF2A08
:103BC000DF50E76EFD0EDBCFE9FFFE0EDBCFEAFF35
:103BD000E750E926000EEA22EFCFE0F2E0C2E6FF6E
:103BE000B2EC28F0E55263D3DF2A080EE66EDF5010
:103BF000E76EFD0EDBCFE9FFFE0EDBCFEAFFE750FD
:103C0000E926000EEA22EF50E66E42EC28F0E5527B
:103C1000E5524DD3080EE66EE3EC27F0E66E42EC7B
:103C200028F0E552E55243D3080EE66E65EC27F026
:103C3000E552E66EAEEC27F0E55239D3080EE66E9B
:103C400065EC27F0E55233D3DF2ADF50E76EFD0E37
:103C5000DBCFE9FFFE0EDBCFEAFFE750E926000EDF
:103C6000EA22EF50E66EDF50E76EFD0EDBCFE9FF94
:103C7000FE0EDBCFEAFFE750E926000EEA22010E36
:103C8000E926000EEA22EF50E66E42EC28F0E552FB
:103C9000E552020EDF260CD3DF2ADF50E76EFD0E61
:103CA000DBCFE9FFFE0EDBCFEAFFE750E926000E8F
:103CB000EA22EF50E66EE3EC27F0E66E42EC28F0E5
:103CC000E552E552F4D2DF2ADF50E76EFD0EDBCF7E
:103CD000E9FFFE0EDBCFEAFFE750E926000EEA22FD
:103CE000EF50E66E65EC27F0E552E66EAEEC27F09D
:103CF000E552DDD2DF2ADF50E76EFD0EDBCFE9FFB4
:103D0000FE0EDBCFEAFFE750E926000EEA22EF5075
:103D1000E66E65EC27F0E552CAD2DF2ADF50E76E87
:103D2000FD0EDBCFE9FFFE0EDBCFEAFFE750E92611
:103D3000000EEA22EFCFE1F2BAD20B0EDB500EE01A
:103D4000040EDB06040EDB5005E10B0EDB6A030EEE
:103D5000DF26AED2050EDB50DF6EAAD2010EF36E67
:103D60000B0EF3CFDBFFDF50E76EFD0EDBCFE9FF7D
:103D7000FE0EDBCFEAFFE750E926000EEA22010E35
:103D8000E926000EEA22EF50DF5CE76E050EE7CF72
:103D9000DBFFDF50E76EFD0EDBCFE9FFFE0EDBCF72
:103DA000EAFFE750E926000EEA22020EE926000E9D
:103DB000EA22040EEFCFDBFF050EDB50DF6E78D278
:103DC000DF2ADF50E76EFD0EDBCFE9FFFE0EDBCF13
:103DD000EAFFE750E926000EEA22EF50E66EFDEC1E
:103DE00026F0E55264D2DF2ADF50E76EFD0EDBCF0E
:103DF000E9FFFE0EDBCFEAFFE750E926000EEA22DC
:103E0000EF50E66ED7EC24F0E55251D20001E905FF
:103E1000EA6A600FE96E000EEA22010EEFCFDBFFC7
:103E2000DF50E76EFD0EDBCFE9FFFE0EDBCFEAFFD2
:103E3000E750E926000EEA22010EE926000EEA22EA
:103E4000EF50F36E010EDB50F35C14E1DF50E76ED0
:103E5000FD0EDBCFE9FFFE0EDBCFEAFFE750E926E0
:103E6000000EEA22020EE926000EEA22EF50DF24BD
:103E7000DF6E02D0030EDF261BD20001E905EA6ADD
:103E8000600FE96E000EEA22010EEFCFDBFF010E9C
:103E9000DBCF42F0DF50E76EFD0EDBCFE9FFFE0E19
:103EA000DBCFEAFFE750E926000EEA22010EE92601
:103EB000000EEA22EF50D880425414E2DF50E76E41
:103EC000FD0EDBCFE9FFFE0EDBCFEAFFE750E92670
:103ED000000EEA22020EE926000EEA22EF50DF244D
:103EE000DF6E02D0030EDF26E3D1DF50E76EFD0E5A
:103EF000DBCFE9FFFE0EDBCFEAFFE750E926000E3D
:103F0000EA22010EE926000EEA22EF50DF24DF6EDE
:103F1000CFD1FC0EDB50DF6ECBD1DF2ADF50DF2AA2
:103F2000E76EFD0EDBCFE9FFFE0EDBCFEAFFE750C9
:103F3000E926000EEA22EF50436A000F426E0F0E90
:103F40004322090E42C0DBFF0A0E43C0DBFFDF50F5
:103F5000DF2AE76EFD0EDBCFE9FFFE0EDBCFEAFFC7
:103F6000E750E926000EEA22EF50E66E090EDBCF9D
:103F7000E9FF0A0EDBCFEAFFE552E750EF6E98D17A
:103F8000DF2ADF50E76EFD0EDBCFE9FFFE0EDBCF51
:103F9000EAFFE750E926000EEA22EF50436A000FDD
:103FA000426E0F0E4322090E42C0DBFF0A0E43C0D1
:103FB000DBFF090EDBCFE9FF0A0EDBCFEAFFEF5094
:103FC000E66EAEEC27F0E55272D1DF2A57EC25F011
:103FD000E66EAEEC27F0E5526BD1DF2ADF50DF2A28
:103FE000E76EFD0EDBCFE9FFFE0EDBCFEAFFE75009
:103FF000E926000EEA22EF50E66EEAEC24F0E552E4
:1040000057D1DF2AE3EC27F0E66EEAEC24F0E55224
:104010004FD10C0EDB5016E0070EDB06080E01E256
:10402000DB06D950070FE96EDACFEAFFEE50ED104C
:1040300005E10C0EDB6A020EDF263AD1060EDB50DC
:10404000DF6E36D1DF50E76EFD0EDBCFE9FFFE0EEF
:10405000DBCFEAFFE750E926000EEA22010EE9264F
:10406000000EEA22EF50DF5CE76E060EE7CFDBFFC3
:10407000E3EC27F0E66ED950070FE96EDACFEAFFDE
:10408000E552E750EE6EED6AE3EC27F0446E456AC8
:10409000286A010E296E44C02DF045C02EF043EC75
:1040A0003DF026C042F027C043F0D950070FE96E1B
:1040B000DACFEAFF4250EE264350ED22D950070FE7
:1040C000E96EDACFEAFFEE50ED1003E1020EDF26D3
:1040D000EFD0010EF36E0C0EF3CFDBFF060EDB50BC
:1040E000DF6EE6D0D2EC28F0E66EAEEC27F0E552BB
:1040F000DED0E3EC27F0DBD0040EE66E010EE66EB8
:1041000042EC28F0E552E552080EE66EE66A42EC13
:1041100028F0E552E552080EE66E1CEC27F0E55259
:10412000E66EAEEC27F0E552080EE66E1CEC27F0CA
:10413000E552E66EAEEC27F0E552B9D0040EE66E1D
:10414000E66A42EC28F0E552E552080EE66EE66AB1
:1041500042EC28F0E552E552080EE66EE66A42ECC3
:1041600028F0E552E552080EE66EE66A42EC28F0C9
:10417000E552E5529CD0DF2A040EE66EE66A42EC78
:1041800028F0E552E552080EE66EDF50DF2AE76EB2
:10419000FD0EDBCFE9FFFE0EDBCFEAFFE750E9269D
:1041A000000EEA22EF50E66E42EC28F0E552E552AE
:1041B000080EE66EDF50DF2AE76EFD0EDBCFE9FF6B
:1041C000FE0EDBCFEAFFE750E926000EEA22EF50B1
:1041D000E66E42EC28F0E552E5526AD0DF2A040E82
:1041E000E66EE66A42EC28F0E552E552080EE66E0D
:1041F000DF50DF2AE76EFD0EDBCFE9FFFE0EDBCFDF
:10420000EAFFE750E926000EEA22EF50E66E42ECA4
:1042100028F0E552E552080EE66EDF50DF2AE76E21
:10422000FD0EDBCFE9FFFE0EDBCFEAFFE750E9260C
:10423000000EEA22EF50E66E42EC28F0E552E5521D
:10424000080EE66EDF50DF2AE76EFD0EDBCFE9FFDA
:10425000FE0EDBCFEAFFE750E926000EEA22EF5020
:10426000E66E42EC28F0E552E55222D0080EE66EEA
:104270001CEC27F0E552E66EAEEC27F0E55217D0C5
:10428000DF2ADF50E76EFD0EDBCFE9FFFE0EDBCF4E
:10429000EAFFE750E926000EEA22EF50E66E1CEC3A
:1042A00027F0E552E66EAEEC27F0E55200D0DF2AAB
:1042B0000CD4B00E545E549E5446080E5426F95049
:1042C0005424D8B0FA2AF96E38D335D333D36AD20E
:1042D00070D227D3C6D216D3C7D273D250D23CD213
:1042E00013D2D7D1ACD185D17ED16AD163D157D188
:1042F0003FD135D12DD119D10ED104D1FCD0E8D088
:10430000E4D0E0D0D8D0C2D0AAD081D06ED001D035
:1043100035D0DF2A040EE66EE66A42EC28F0E5525C
:10432000E552040EE66EDF50E76EFD0EDBCFE9FFCF
:10433000FE0EDBCFEAFFE750E926000EEA22EF503F
:10434000E66E42EC28F0E552E552080EE66EE3EC2C
:1043500027F0E66E42EC28F0E552E552080EE66ED4
:10436000E66A42EC28F0E552E552040EE66E020ED3
:10437000E66E42EC28F0E552E55299D7DF2A040EAA
:10438000E66EE66A42EC28F0E552E552040EE66E6F
:10439000DF50E76EFD0EDBCFE9FFFE0EDBCFEAFF5D
:1043A000E750E926000EEA22EF50E66E42EC28F0D4
:1043B000E552E552080EE66EE3EC27F0E66E42ECBD
:1043C00028F0E552E552080EE66EE3EC27F0E66EC3
:1043D00042EC28F0E552E552040EE66E020EE66E5F
:1043E00042EC28F0E552E55262D7DF2ADF50E76E53
:1043F000FD0EDBCFE9FFFE0EDBCFEAFFE750E9263B
:10440000000EEA22EF50E66EADDAE55250D7DF2A11
:10441000DF50E76EFD0EDBCFE9FFFE0EDBCFEAFFDC
:10442000E750E926000EEA22EF50E66EDF50E76E15
:10443000FD0EDBCFE9FFFE0EDBCFEAFFE750E926FA
:10444000000EEA22010EE926000EEA22EF50E66E87
:104450007AEC28F0E552E552020EDF2629D7DF2A52
:10446000DF50E76EFD0EDBCFE9FFFE0EDBCFEAFF8C
:10447000E750E926000EEA22EF50E66EE3EC27F063
:10448000E66E7AEC28F0E552E55211D7DF2ADF50CC
:10449000E76EFD0EDBCFE9FFFE0EDBCFEAFFE75054
:1044A000E926000EEA22EFCFE2F2E2C2E6FFE5ECF7
:1044B00028F0E552FCD6F9EC28F0E66EAEEC27F0D9
:1044C000E552F5D60AEC29F0F2D61FEC29F0EFD62A
:1044D000DF2ADF50E76EFD0EDBCFE9FFFE0EDBCFFC
:1044E000EAFFE750E926000EEA22EF50E66E34ECD0
:1044F00029F0E552DCD6E3EC27F0E66E34EC29F047
:10450000E552D5D6E66A9DEC29F0E552E66EAEECB2
:1045100027F0E552CCD60F0EE66E9DEC29F0E55261
:10452000E66EAEEC27F0E552C2D6DF2ADF50E76E2A
:10453000FD0EDBCFE9FFFE0EDBCFEAFFE750E926F9
:10454000000EEA22EF50E66E04EC2AF0E552AFD6F8
:10455000E3EC27F0E66E04EC2AF0E552A8D6E66A12
:1045600004EC2AF0E552E66EAEEC27F0E5529FD659
:10457000DF2ADF50E76EFD0EDBCFE9FFFE0EDBCF5B
:10458000EAFFE750E926000EEA22EF50E66E04EC5F
:104590002AF0E552E66EAEEC27F0E55288D6E3EC61
:1045A00027F0E66E04EC2AF0E552E66EAEEC27F05A
:1045B000E5527DD653DBE66EAEEC27F0E55277D6BA
:1045C000DF2ADF50DF2AE76EFD0EDBCFE9FFFE0EAC
:1045D000DBCFEAFFE750E926000EEA22EF50E66E55
:1045E000C6DAE55265D6E3EC27F0E66EC0DAE552AE
:1045F0005ED696DB020EF3CFDBFF030EF4CFDBFFBC
:10460000FF0EE76E020EDBCF42F0030EDBCF43F06E
:10461000E7504216436A4250E66EAEEC27F0E55290
:10462000020EDBCF42F0030EDBCF43F043C042F07B
:10463000436A4250E66EAEEC27F0E55238D6DF2AE8
:10464000E66ADF50E76EFD0EDBCFE9FFFE0EDBCF43
:10465000EAFFE750E926000EEA22010EE926000EE5
:10466000EA22EF50E66EDF50E76EFD0EDBCFE9FF8A
:10467000FE0EDBCFEAFFE750E926000EEA22EF50FC
:10468000E66E73EC2AF0E552E552E552020EDF26A3
:104690000FD6DF2ADF50E76EFD0EDBCFE9FFFE0EFF
:1046A000DBCFEAFFE750E926000EEA22020EE926F8
:1046B000000EEA22EF50E66EDF50E76EFD0EDBCF14
:1046C000E9FFFE0EDBCFEAFFE750E926000EEA2203
:1046D000010EE926000EEA22EF50E66EDF50E76E8B
:1046E000FD0EDBCFE9FFFE0EDBCFEAFFE750E92648
:1046F000000EEA22EF50E66E73EC2AF0E552E55226
:10470000E552030EDF26D4D5DF2ADF50E76EFD0E1B
:10471000DBCFE9FFFE0EDBCFEAFFE750E926000E14
:10472000EA22010EE926000EEA22EF50E66EDF5083
:10473000E76EFD0EDBCFE9FFFE0EDBCFEAFFE750B1
:10474000E926000EEA22EF50E66EC8EC2BF0E552A7
:10475000E552020EDF26ACD5DF2ADF50E76EFD0EF4
:10476000DBCFE9FFFE0EDBCFEAFFE750E926000EC4
:10477000EA22EF50E66E0CEC2CF0E55298D5DF2AD9
:10478000DF50E76EFD0EDBCFE9FFFE0EDBCFEAFF69
:10479000E750E926000EEA22EF50E66E2DEC2CF0F1
:1047A000E55285D5E66AE66A90EC2DF0E552E552D1
:1047B0007ED5010EE66EE66A90EC2DF0E552E552EC
:1047C00076D5DF2A010EE66EDF50E76EFD0EDBCFF9
:1047D000E9FFFE0EDBCFEAFFE750E926000EEA22F2
:1047E000EF50E66EDF50E76EFD0EDBCFE9FFFE0E09
:1047F000DBCFEAFFE750E926000EEA22010EE926A8
:10480000000EEA22EF50E66EDF50E76EFD0EDBCFC2
:10481000E9FFFE0EDBCFEAFFE750E926000EEA22B1
:10482000020EE926000EEA22EF50E66EDF50E76E38
:10483000FD0EDBCFE9FFFE0EDBCFEAFFE750E926F6
:10484000000EEA22030EE926000EEA22EF50E66E81
:104850005DEC2CF0426E050EE15E4250040EDF2648
:1048600027D53FEC2DF023D5DF2ADF50E76EFD0E74
:10487000DBCFE9FFFE0EDBCFEAFFE750E926000EB3
:10488000EA22EF50E66EDF50E76EFD0EDBCFE9FF68
:10489000FE0EDBCFEAFFE750E926000EEA22010E0A
:1048A000E926000EEA22EF50E66EDF50E76EFD0EBD
:1048B000DBCFE9FFFE0EDBCFEAFFE750E926000E73
:1048C000EA22020EE926000EEA22EF50E66EDF50E1
:1048D000E76EFD0EDBCFE9FFFE0EDBCFEAFFE75010
:1048E000E926000EEA22030EE926000EEA22EF5026
:1048F000E66EEEEC2CF0E552E552E552E552040E80
:10490000DF26D6D460DBE66E5EDBE66E5CDBE66E51
:104910005ADBE66EEEEC2CF0E552E552E552E5523C
:10492000C6D4010EE66E010EE66E90EC2DF0E55257
:10493000E552BDD4BCD477DBBAD489948C0E556EC5
:10494000898600008996552EFBD7B1D465EF1DF0FE
:104950000D0EE15C02E2E16AE552E16EE552E7CF5D
:10496000D9FF1200D9CFE6FFE1CFD9FF0201E35111
:10497000E32BEA6A000FE96E010EEA22FE0EDBCF9E
:10498000EFFF0201E351426E436AD890435004E6C0
:10499000000E425C010E435802E30201E36B020188
:1049A000E52B000EE623E552E7CFD9FF1200D9CF61
:1049B000E6FFE1CFD9FFF294FE0EDB50FF0DF3507E
:1049C000D76ED66AD58EF2A4FED7D59EE552E7CF34
:1049D000D9FF1200D9CFE6FFE1CFD9FFF29ECD90EB
:1049E000A40ED76E730ED66EF294D58E8050080B3F
:1049F00004E1F250040B01E1F9D7F2B44CD08994F0
:104A00009294600EE66E1FEC3EF0E5528984805071
:104A1000080B04E0F250040B01E1F9D7F2B43BD0EB
:104A2000FE0EDB50546E80A6FED7899454BE898456
:104A300080B6FED780A6FED7899454BC898480B600
:104A4000FED780A6FED7899454BA898480B6FED753
:104A500080A6FED7899454B8898480B6FED780A6F4
:104A6000FED7899454B6898480B6FED780A6FED737
:104A7000899454B4898480B6FED780A6FED78994E1
:104A800054B2898480B6FED780A6FED7899454B0EC
:104A9000898480B6FED7F2A402D00001E885D59EB5
:104AA000F28ECD8000D0E552E7CFD9FF1200CD9035
:104AB000F29EA40ED76E730ED66EF294D58E8050F1
:104AC000080B04E1F250040B01E1F9D7F2B443D032
:104AD00089949294600EE66E1FEC3EF0E552898454
:104AE0008050080B04E0F250040B01E1F9D79284E6
:104AF000F2B431D0546A80A6FED780B6FED780B417
:104B0000548E80A6FED780B6FED780B4548C80A683
:104B1000FED780B6FED780B4548A80A6FED780B672
:104B2000FED780B4548880A6FED780B6FED780B466
:104B3000548680A6FED780B6FED780B4548480A663
:104B4000FED780B6FED780B4548280A6FED780B64A
:104B5000FED780B4548089849294F2A402D00001DC
:104B6000E885D59EF28ECD80545000D01200D9CF6A
:104B7000E6FFE1CFD9FFF29ECD90A40ED76E730E63
:104B8000D66EF294D58E92848050040B04E0F250DD
:104B9000040B01E1F9D7F2B44ED092968986600EEB
:104BA000E66E1FEC3EF0E55289968050040B04E15E
:104BB000F250040B01E1F9D792869294F2B43BD003
:104BC000FE0EDB50546E80A6FED7899454BE8984B5
:104BD00080B6FED780A6FED7899454BC898480B65F
:104BE000FED780A6FED7899454BA898480B6FED7B2
:104BF00080A6FED7899454B8898480B6FED780A653
:104C0000FED7899454B6898480B6FED780A6FED795
:104C1000899454B4898480B6FED780A6FED789943F
:104C200054B2898480B6FED780A6FED7899454B04A
:104C3000898480B6FED7F2A402D00001E885600E18
:104C4000E66E1FEC3EF0E552D59EF28ECD8092844A
:104C5000929600D0E552E7CFD9FF1200CD90F29E98
:104C6000A40ED76E730ED66EF294D58E92848050B9
:104C7000040B04E0F250040B01E1F9D7F2B444D084
:104C800092968986600EE66E1FEC3EF0E55289969C
:104C90008050040B04E1F250040B01E1F9D7928437
:104CA0009286F2B431D0546A80A6FED780B6FED781
:104CB00080B4548E80A6FED780B6FED780B4548CC4
:104CC00080A6FED780B6FED780B4548A80A6FED7D1
:104CD00080B6FED780B4548880A6FED780B6FED7B3
:104CE00080B4548680A6FED780B6FED780B45484A4
:104CF00080A6FED780B6FED780B4548280A6FED7A9
:104D000080B6FED780B45480F2A402D00001E885BA
:104D1000D59E92849296F28ECD80545000D012008F
:104D2000D9CFE6FFE1CFD9FF030EE126DF6AF29487
:104D3000800ED76ED66AD58EF2AE02D0010EDF6E2F
:104D4000F29E80A40AD0F2A407D0D59EDF0401E130
:104D5000F28EF36AF46A47D0F4D780B40AD0F2A492
:104D600007D0D59EDF0401E1F28EF36AF46A3BD0EE
:104D7000F4D7800ED76ED66AF29480A40AD0F2A43B
:104D800007D0D59EDF0401E1F28EF368F4682BD0E2
:104D9000F4D7D59EDF0401E1F28ED650E66ED950ED
:104DA000010FE96EDACFEAFFE552E750EE6EED6AE9
:104DB0007F0ED714426E436A42C043F0426AD95014
:104DC000010FE96EDACFEAFF4250EE264350ED22A2
:104DD000010EDBCF42F0020EDBCF43F042C0F3FF07
:104DE00043C0F4FF00D0030EE15C02E2E16AE55249
:104DF000E16EE552E7CFD9FF1200D9CFE6FFE1CF50
:104E0000D9FFF294D768080EE66E2DEC3EF0E5521D
:104E1000FE0EDB0402E10CD002D0FE0EDB06FE0E1D
:104E2000DB50FF0DF350D66ED58EF2A4FED7D59E83
:104E3000E552E7CFD9FF1200D9CFE6FFE1CFD9FF86
:104E4000E6529284546AFE0EDB50556E020E020149
:104E5000E15D0CE280B4548089860000000000000F
:104E6000899600005442552EF5D718D00201E1056D
:104E7000566E565080B454808986000000000000B1
:104E800000000000E82EFBD7899656500000000075
:104E90000000E82EFBD75442552EEBD7FE0EDBCF99
:104EA000E6FF080EE552D880E754070B04E05442B1
:104EB000549EE806FCE10201E0A39294545000D015
:104EC000E552E552E7CFD9FF1200D9CFE6FFE1CF97
:104ED000D9FFE6529284546AFE0EDB50556E020EE4
:104EE0000201E15D0CE2898600000000000080B450
:104EF0005480899600005442552EF5D718D00201EF
:104F0000E105566E89860000000056500000000042
:104F10000000E82EFBD780B45480899656500000DC
:104F200000000000E82EFBD75442552EEBD7FE0EB2
:104F3000DBCFE6FF080EE552D880E754070B04E00C
:104F40005442549EE806FCE10201E0A392945450BE
:104F500000D0E552E552E7CFD9FF1200D9CFE6FFE6
:104F6000E1CFD9FF010E0001436AEB25426EEC51FF
:104F70004322800ED8804254000E435403E20001C5
:104F8000E8871DD00001E951E92BEA6A600FE96E5C
:104F9000000EEA22FE0EDBCFEFFF0001E951426E68
:104FA000436AD890435004E6800E425C000E43589A
:104FB00002E30001E96B0001EB2B000EEC23E5524C
:104FC000E7CFD9FF1200D9CFE6FFE1CFD9FFE652F4
:104FD0000201E551E61104E10001E889000E1ED04E
:104FE0000201E451E42BEA6A000FE96E010EEA22A5
:104FF000EFCFDFFF0201E507000EE65B0201E4519F
:10500000426E436AD890435004E6000E425C010EA3
:10501000435802E30201E46BDF5000D0E552E55251
:10502000E7CFD9FF1200D9CFE6FFE1CFD9FFE65293
:105030005C5022E10C0EDF6E080EE66EE66A22D8A6
:10504000E552E552DF06F8E1080EE66E020EE66E66
:1050500019D8E552E552080EE66E040EE66E12D837
:10506000E552E552150EDF6E040EE66EE66A0AD8CA
:10507000E552E552DF06F8E15C2AE552E552E7CF5A
:10508000D9FF1200D9CFE6FFE1CFD9FFE652FE0EDD
:10509000DB50546EFD0EDB50556E020E0201E15DD9
:1050A0000CE254A0899454B08984000089860000E1
:1050B00089965442552EF5D718D00201E105566E57
:1050C00054A0899454B08984565000000000000018
:1050D000E82EFBD789865650000000000000E82E1D
:1050E000FBD789965442552EEBD7E552E552E7CFD0
:1050F000D9FF1200D9CFE6FFE1CFD9FFE652FE0E6D
:10510000DB50546EFD0EDB50556E020E0201E15D68
:105110000CE254A0899454B0898489860000899651
:1051200000005442552EF5D718D00201E105566E05
:1051300054A0899454B08984565089860000000098
:105140000000E82EFBD789965650000000000000B2
:10515000E82EFBD75442552EEBD7E552E552E7CF68
:10516000D9FF1200D9CFE6FFE1CFD9FFFE0EDBA4B5
:1051700002D0898601D08996FE0EDBA602D08984F2
:1051800001D08994FE0EDBA002D0928601D09296C7
:10519000FE0EDBA202D0928401D09294E552E7CFBA
:1051A000D9FF1200D9CFE6FFE1CFD9FFE652DF6A7F
:1051B00080B4DF8280A602D0000EDB80DF5000D0FA
:1051C000E552E552E7CFD9FF1200D9CFE6FFE1CF94
:1051D000D9FFFE0EDBA202D0898801D08998FE0E8D
:1051E000DBA002D0928801D09298E552E7CFD9FF98
:1051F0001200D9CFE6FFE1CFD9FFE652DF6A80A8DF
:1052000002D0000EDB80DF5000D0E552E552E7CF40
:10521000D9FF12008986060EE66E2DEC3EF0E552AF
:1052200089989298060EE66E2DEC3EF0E55289962E
:10523000060EE66E2DEC3EF0E5529288120089963D
:10524000060EE66E2DEC3EF0E55289989298060E19
:10525000E66E2DEC3EF0E5528986060EE66E2DECEC
:105260003EF0E55292881200D9CFE6FFE1CFD9FF98
:10527000FE0EDB50546E080E556E8998020E020128
:10528000E15D23E254AE929854BE928800D000D0E3
:1052900000D08986000000D000D000D000D08996D0
:1052A000000000D000D05446552EECD7928800D094
:1052B00000D000D000D000D08986000000D000D0FF
:1052C00000D080B8558089962FD00201E151E824A2
:1052D000FF0F566E54AE929854BE928856500000FE
:1052E00000D000D000D0E82EFAD78986565000D0E2
:1052F00000D000D0E82EFDD7899600005446552EE8
:10530000E9D79288565000D000D0000000D000D0DD
:1053100000D0E82EFAD78986565000D000D0E82E6B
:10532000FDD780B8558089965550000802E20001EB
:10533000E885E552E7CFD9FF1200D9CFE6FFE1CFEC
:10534000D9FF546A080E556E010E566E9288020EF1
:105350000201E15D14E2544600D000D000D000D03C
:105360000000898600D000D000D0000080B85480B2
:10537000899600D000D000D0552EEDD725D002015F
:10538000E151E824FF0F566E5446000000D05650FD
:1053900000D000D000D00000E82EFAD78986565001
:1053A00000D000D0E82EFDD780B85480899600D078
:1053B000552EEAD70000565000D000D000D000D0C3
:1053C00000D00000E82EFAD78998FE0EDB5001E1EC
:1053D0009298565000D000D000D000D000D00000ED
:1053E000E82EFAD78986565000D000D0E82EFDD797
:1053F00000D0899600D0000000009288545000D060
:10540000E552E7CFD9FF1200D9CFE6FFE1CFD9FFB0
:10541000E652FE0EDB50546E080E556E020E02016F
:10542000E15D0DE254AE899854BE89888986544660
:10543000549080B454808996552EF4D71BD0020125
:10544000E105566E54AE899854BE898856500000C6
:1054500000000000E82EFBD789865446549080B4A3
:1054600054805650000000000000E82EFBD78996BB
:10547000552EE8D78998545000D0E552E552E7CF31
:10548000D9FF1200D9CFE6FFE1CFD9FFE652DF6A9C
:10549000FE0EDB50A96EFD0EDB50A86EA66AA68438
:1054A000F2AE02D0010EDF6EF29E550EA76EAA0E6E
:1054B000A76EA682DF0401E1F28EA6B2FED7E55206
:1054C000E552E7CFD9FF1200D9CFE6FFE1CFD9FFF0
:1054D000FE0EDB50A96EA66AA680A85000D0E55249
:1054E000E7CFD9FF1200D9CFE6FFE1CFD9FF040EF5
:1054F000E126DF6A010EDB6A0201E151010808E2E0
:10550000120E566E0F0EF36E030EF3CFDBFF07D0B5
:10551000C60E566E030EF36E030EF3CFDBFF8988C3
:105520009298180EE66E2DEC3EF0E552020E426E99
:10553000FD0EDBCFE7FF4250E726FD0EE7CFDBFF96
:10554000480ED56E550E546E8998D66AF294D58E53
:10555000F2AE02D0010EDF6EF29EFD0EDB06020EF1
:10556000DB6A020EDBCF42F0080EE76E4218E8AEAF
:1055700002D0E73402D0E750425C21E28950EF0BC1
:1055800054AE1009F2A4FED7896E5650D6269298D2
:10559000F294549E54468950556EFD0EDB5005E141
:1055A000FC0EDB5002E1558801D05598F2A4FED7DD
:1055B00089785650D626F294020EDB2AD2D755505F
:1055C000F2A4FED7896E5650D626F294010EDB5017
:1055D00007E0FD0EDB50000803E2F5DC546E03D05B
:1055E000FE0EDB50546EF2A4FED789785650D626B4
:1055F000F294F2A4FED792885650D626F294030E67
:10560000DBCFE6FF2DEC3EF0E552010EDB5009E06A
:105610008050100B06E00001E885FD0EDB6AFC0EF1
:10562000DB6AF2A4FED700005650D626F294030E91
:10563000DBCFE6FF2DEC3EF0E552010EDB5009E03A
:105640008050100B06E10001E885FD0EDB6AFC0EC0
:10565000DB6ADE52010EDD6EFD0EDB50000801E25A
:105660007CD7FC0EDBCFF3FFDB06F350000801E331
:105670007FD0546A020EDB6A020EDBCF42F0080EC6
:10568000E76E4218E8AE02D0E73402D0E750425C41
:1056900030E2F2A4FED70000D66AF2948950556E2B
:1056A000FC0EDB5002E1558801D05598030EDB0457
:1056B000E66E2DEC3EF0E55280B807D0F2B402D091
:1056C00080A8FCD75650D66E06D0F2B402D080B86F
:1056D000FCD75650D66EF294030EDBCFE6FF2DECCE
:1056E0003EF0E552549E544680B8542A020EDB2AFE
:1056F000C3D75550F2A4FED7896E5650D62692983D
:10570000F2945450E66E2ADCE552F2A4FED7897872
:105710005650D626F294F2A4FED792885650D6263A
:10572000F294030EDBCFE6FF2DEC3EF0E552010EC6
:10573000DB5007E08050100B04E00001E885FC0E10
:10574000DB6AF2A4FED700005650D626F294030E70
:10575000DBCFE6FF2DEC3EF0E552010EDB5007E01B
:105760008050100B04E10001E885FC0EDB6A79D75C
:10577000DF0401E1F28E070ED56E9288040EE15C23
:1057800002E2E16AE552E16EE552E7CFD9FF12008D
:10579000D9CFE6FFE1CFD9FFE652FE0EDB5001E1A3
:1057A0000FD0546AFD0EDB50556EDF6AFE0EDB50E3
:1057B000DF5C06E25DEC38F055905542DF2AF6D703
:1057C000E552E552E7CFD9FF1200D9CFE6FFE1CF8E
:1057D000D9FFE652FE0EDB5002E1000E18D0FD0E9E
:1057E000DB50546EFC0EDB50556E566ADF6AFE0EBF
:1057F000DB50DF5C0AE2569056425DEC38F0549084
:10580000544255905542DF2AF2D7565000D0E55207
:10581000E552E7CFD9FF1200D9CFE6FFE1CFD9FF9C
:10582000030EE66E040EE66EB3DFE552E552100E8F
:10583000E66EFE0EDBCFE6FF050EE66EC6DFE55236
:10584000E552E552010EE66E020EE66EA1DFE5526C
:10585000E552E552E7CFD9FF1200D9CFE6FFE1CFFD
:10586000D9FFE652DF6A010EE66E030EE66E90DFA8
:10587000E552E55256AE02D0010EDF6E800EE66EA6
:10588000FE0EDBCFE6FF080EE66E9FDFE552E55227
:10589000E5525650E824DF12DFCFE6FFAEEC27F0EA
:1058A000E552010EE66E020EE66E72DFE552E5523B
:1058B000E552E552E7CFD9FF1200D9CFE6FFE1CF9D
:1058C000D9FF020EE126DF6A010EDB6A010EE66EE9
:1058D000030EE66E5DDFE552E55256AE02D0010ED4
:1058E000DF6EE66AFB0EDBCFE6FF080EE66E6DDFCD
:1058F000E552E552E5525650E824DF12FA0EDB502D
:1059000005E0DFCFE6FFAEEC27F0E552DF6A56AEEA
:1059100002D0010EDF6EE66AFC0EDBCFE6FF080E5A
:10592000E66E53DFE552E552E5525650E824DF12A9
:10593000FA0EDB5005E0DFCFE6FFAEEC27F0E552D4
:10594000DF6A56AE02D0010EDF6EE66AFD0EDBCFD7
:10595000E6FF080EE66E39DFE552E552E552565095
:10596000E824DF12FA0EDB5005E0DFCFE6FFAEECF5
:1059700027F0E552010EDFCFDBFFDF6A56AE02D023
:10598000010EDF6E800EE66EFE0EDBCFE6FF080E28
:10599000E66E1BDFE552E552E5525650E824DF1271
:1059A000FA0EDB5005E0DFCFE6FFAEEC27F0E55264
:1059B000010EE66E020EE66EEBDEE552E552010EDA
:1059C000DB5000D0426E020EE15C02E2E16AE55279
:1059D000E16E4250E552E7CFD9FF1200D9CFE6FF82
:1059E000E1CFD9FF010EE66E030EE66ED1DEE55281
:1059F000E55256BE0AD01F0EE66E050EE66EC8DEF4
:105A0000E552E5520001E88536D0E66A010EE66E01
:105A1000BFDEE552E552E66AFB0EDBCFE6FF080E7D
:105A2000E66ED3DEE552E552E552E66AFC0EDBCFC8
:105A3000E6FF080EE66EC9DEE552E552E552E66A7B
:105A4000FD0EDBCFE6FF080EE66EBFDEE552E55247
:105A5000E552800EE66EFE0EDBCFE6FF080EE66E28
:105A6000B4DEE552E552E552010EE66E020EE66E38
:105A70008FDEE552E552E552E7CFD9FF1200D9CFCC
:105A8000E6FFE1CFD9FFE652D76AD66AF294D58E07
:105A90000A0EE66EC1DEE552E66AE66AD00EE66EF2
:105AA000040EE66EE66A09DF426E050EE15E4250C4
:105AB000DF6E040EDF1403E1F250040BEDE0F2A4FC
:105AC00004D00001E885D59E26D0090EE66EA4DE3E
:105AD000E552E66AE3EC27F0E66EE3EC27F0E66ECB
:105AE000E3EC27F0E66EE3EC27F0E66EE6DE426ECE
:105AF000050EE15E42500A0EE66E8EDEE552E66A63
:105B0000E66AC00EE66EE66AE66AD7DE426E050E0B
:105B1000E15E4250D59EE552E552E7CFD9FF120033
:105B2000D9CFE6FFE1CFD9FFE652D76AD66AF29421
:105B3000D58E0A0EE66E70DEE552E66AE66AD00E93
:105B4000E66E040EE66EE66AB8DE426E050EE15EB3
:105B50004250DF6E040EDF1403E1F250040BEDE05F
:105B6000F2A404D00001E885D59E23D0090EE66E8C
:105B700053DEE552FE0EDBCFE6FFE66AE66AE66A32
:105B8000E66A9BDE426E050EE15E4250FD0EDB5082
:105B90000FE00A0EE66E40DEE552E66AE66AC00EE7
:105BA000E66EE66AE66A89DE426E050EE15E425006
:105BB000D59EE552E552E7CFD9FF1200D9CFE6FFD7
:105BC000E1CFD9FF020EE126F29E63EC3BF0928416
:105BD00092869288E8EC19F08B80899CE950DF6E00
:105BE000010EEACFDBFF5F5002E05F6A02D058503F
:105BF0005F6E73EC38F05E50000803E2FBEC38F0A7
:105C000007D05F5003E0C0EC38F002D085EC38F0EC
:105C1000DF50E96E010EDB50EA6E8B90898C4EEC02
:105C20003BF0F28E54C040F255C041F223EC11F02B
:105C3000020EE15C02E2E16AE552E16EE552E7CF75
:105C4000D9FF12000100727C0000F4000000020085
:105C50000000D9CFE6FFE1CFD9FFE6520401B06BD7
:105C60000401B16BB26B3B6AC56AC76A280EC66E87
:105C70001F0EC86EC584C5B4FED7E552E552E7CF06
:105C8000D9FF1200D9CFE6FFE1CFD9FFE652899CB8
:105C900067D80401B06B9E960401B051B02BEA6A3C
:105CA000C00FE96E040EEA22EF50C96E9EA6FED721
:105CB000C5BCC584400E0401B05DEDE3C584C5B428
:105CC000FED70C0EE66EFAEC3DF0E5520401B06B27
:105CD0000401B12B000EB223898CE552E552E7CFC7
:105CE000D9FF1200D9CFE6FFE1CFD9FFE65238D86D
:105CF0000109DF6EC582C5B2FED79E96DF50C96E20
:105D00009EA6FED7C5BCC5840401B06B9E96C58611
:105D10009EA6FED70401B051B02BEA6AC00FE96E0F
:105D2000040EEA22C9CFEFFF400E0401B05D02E18C
:105D3000C58A01D0C59AC588C5B8FED7400E0401F2
:105D4000B05DE4E3C584C5B4FED70401B06B0401C3
:105D5000B12B000EB223E552E552E7CFD9FF120076
:105D6000D9CFE6FFE1CFD9FF020EE126DE52A80E21
:105D7000DD6E0401B251040B02E0010EDB8204016E
:105D8000B251080B02E0010EDB84C580C5B0FED71E
:105D90009E96010EDB50C96EB1C442F0B2C443F00E
:105DA000D89043324232D890433242324250DF6E72
:105DB0009EA6FED7C5BCC5849E96DF50C96EB1C4F1
:105DC00042F0B2C443F0060ED89042364336E8049F
:105DD000FBE14250DF6E9EA6FED7C5BCC5849E96F1
:105DE000DF50C96E9EA6FED7C5BCC584010EDB5030
:105DF00000D0426E020EE15C02E2E16AE552E16E21
:105E00004250E552E7CFD9FF1200D9CFE6FFE1CFEC
:105E1000D9FF0401B051B02BEA6AC00FE96E040E3D
:105E2000EA22FE0EDBCFEFFF0401B0513F0801E292
:105E300029DFE552E7CFD9FF12000401B0513F0836
:105E400003E250DF0401B06B0401B051B02BEA6AE9
:105E5000C00FE96E040EEA22EF5000D01200D9CF35
:105E6000E6FFE1CFD9FF416AFE0EDBCFE6FF15D892
:105E7000E55200090EE0FE0EDB50030FEA6A000F48
:105E8000E96E020EEA22EF50346E010E416EE1DE41
:105E90008B80E552E7CFD9FF1200D9CFE6FFE1CFE3
:105EA000D9FFFE0EDBCFF3FFDB2AF350EA6A000FC7
:105EB000E96E020EEA22EF50500802E0000E20D0F8
:105EC000FE0EDBCFF3FFDB2AF350EA6A000FE96E28
:105ED000020EEA22EF504B0802E0000E11D0FE0E37
:105EE000DBCFF3FFDB2AF350EA6A000FE96E020E04
:105EF000EA22EF50320802E0000E02D0010E00D07C
:105F0000E552E7CFD9FF1200AD0EE66E7EDFE55217
:105F10000401B0510008F8E3416A8B901200D9CF18
:105F2000E6FFE1CFD9FF020EE126DF6A010EDB6A50
:105F3000DF50EA6A000FE96E020EEA22EF50840A8F
:105F400001E14ED1210A01E129D1270A01E126D13F
:105F5000010A01E123D1040A01E120D1070A01E18C
:105F60001DD1010A01E11AD1230A01E115D1010A6B
:105F700001E112D10D0A01E10FD1010A01E10CD1B9
:105F8000080A01E1FDD00E0A01E1FAD0030A01E19D
:105F9000F7D0010A01E1F4D0070A01E1F1D0290AA2
:105FA00001E1EED0030A01E1EBD02E0A01E1BCD001
:105FB0000E0A01E18DD0020A54E0140A4FE0100AE3
:105FC00020E0010A1EE0130A19E0030A0CE0070AA8
:105FD00006E01B0A01E03CD1400EDF6E3AD1400ED4
:105FE000DF6E92DF36D1020EDF26DF50EA6A000F45
:105FF000E96E020EEA22EF28DF262BD1030EDF2600
:1060000028D1DF50DF2AEA6A000FE96E020EEA2289
:10601000EF50E66EFADEE552DF50DF2AEA6A000F43
:10602000E96E020EEA22EF50E66EEFDEE552DF5037
:10603000DF2AEA6A000FE96E020EEA22EF50E66EEE
:10604000E4DEE552DF50DF2AEA6A000FE96E020E55
:10605000EA22EF50E66ED9DEE552FBD0050EDF26D0
:10606000F8D0DF50DF2AEA6A000FE96E020EEA225A
:10607000EF50E66ECADEE552DF50DF2AEA6A000F13
:10608000E96E020EEA22EF50E66EBFDEE552DF5007
:10609000DF2AEA6A000FE96E020EEA22010EEFCF54
:1060A000DBFF010EDBCFE6FFB0DEE552DF50DF2A7B
:1060B000EA6A000FE96E020EEA22EF50E66EA5DEF4
:1060C000E552010EDB06010EDB500008EFE3C1D004
:1060D000DF50DF2AEA6A000FE96E020EEA22EF5073
:1060E000E66E93DEE552DF50DF2AEA6A000FE96EC2
:1060F000020EEA22010EEFCFDBFF010EDBCFE6FF3F
:1061000084DEE552DF50DF2AEA6A000FE96E020EF4
:10611000EA22EF50E66E79DEE552010EDB06010E53
:10612000DB500008EFE395D0DF50DF2AEA6A000F6A
:10613000E96E020EEA22EF50E66E67DEE552DF50AE
:10614000DF2AEA6A000FE96E020EEA22010EEFCFA3
:10615000DBFF010EDBCFE6FF58DEE552DF50DF2A22
:10616000EA6A000FE96E020EEA22EF50E66E4DDE9B
:10617000E552010EDB06010EDB500008EFE369D0AB
:10618000DF50DF2AEA6A000FE96E020EEA22EF50C2
:10619000E66E3BDEE5525DD0DF2A5BD0DF50DF2AC2
:1061A000EA6A000FE96E020EEA22EF50E66E2DDE7B
:1061B000E552DF50DF2AEA6A000FE96E020EEA229A
:1061C000EF50E66E22DEE552DF50DF2AEA6A000F6A
:1061D000E96E020EEA22EF50E66E17DEE55239D084
:1061E000DF50DF2AEA6A000FE96E020EEA22EF5062
:1061F000E66E0BDEE552DF50DF2AEA6A000FE96E39
:10620000020EEA22EF50E66E00DEE552DF50DF2A92
:10621000EA6A000FE96E020EEA22EF50E66EF5DD43
:10622000E552DF50DF2AEA6A000FE96E020EEA2229
:10623000EF50E66EEADDE552DF50DF2AEA6A000F32
:10624000E96E020EEA22EF50E66EDFDDE55201D084
:10625000DF2A400EDF5C01E26BD6020EE15C02E257
:10626000E16AE552E16EE552E7CFD9FF1200D9CFDE
:10627000E6FFE1CFD9FF020EE126EBDC0401400E80
:10628000B06FDBDDDF6EDF50AB0A01E1DFD0070A64
:1062900001E1DAD0060A01E1D7D0030A01E1D1D049
:1062A000010A01E1CBD00F0A01E1C5D0010A01E1E9
:1062B000AAD0030A01E198D0010A01E193D0050AAE
:1062C0006BE0010A53E0FA0A50E0DC0A4CE0030AF2
:1062D00048E0010A36E0070A2BE0040A25E0050A37
:1062E00021E0030A11E0010A01E0B3D0A6DDE76E68
:1062F000010EE7CFDBFFA1DDE66E010EDBCFE6FF8F
:106300006ED9E552E552A7D098DDE76E010EE7CFD2
:10631000DBFF93DDE66E010EDBCFE6FFBED9E55273
:10632000E55299D0396A3A6A88DD376E86DD93D0B6
:10633000391C396E3A1C3A6E80DD391A7EDD3A1A04
:106340008AD07BDD586E79DD596E77DD5A6E75DD4A
:106350005B6E8FD8000904E1010E3B6EAD0EDF6E5F
:106360007AD011D978D02FD976D075D066DDE76E86
:10637000010EE7CFDBFF010EDBCFE6FF5EDDE66E51
:1063800063EC16F0E552E55258DDE66E12EC17F0BC
:10639000E5520201FA6F5FD050DD0001E06F4DDD84
:1063A000E66E12EC17F0E552010F0001E16FE1C05B
:1063B000E6FF4AEC17F0E5520001E16F020E000122
:1063C000E15D0001E26F39DDE66E12EC17F0E55297
:1063D0000201FB6FFBC2E6FF4AEC17F0E552020137
:1063E000FB6F39D0B6D937D028DDE76E010EE7CF85
:1063F000DBFF23DDE66E010EDBCFE6FF97EC19F045
:10640000E552E55228D019DDE76E010EE7CFDBFF3C
:10641000010EDBCFE6FF01EC36F0E552010EDBCFDB
:10642000E6FF000EE66E020EE66E4CEC1DF0E55245
:10643000E552E55210D0C3EC17F00DD01EEC36F04B
:106440000AD0B9EC17F007D04ED805D0E8EC19F017
:1064500002D0AD0EDF6EAD0EDF5C01E012D7020E92
:10646000E15C02E2E16AE552E16EE552E7CFD9FF75
:106470001200010EE66EE66A97EC19F0E552E5525D
:10648000B9EC17F0010EE66E020EE66E97EC19F00D
:10649000E552E552010EE66E010EE66E97EC19F03C
:1064A000E552E5520001EA51EA2BEA6A600FE96E13
:1064B000000EEA22EF5058160001EA51EA2BEA6A70
:1064C000600FE96E000EEA22EF505916B9EC17F092
:1064D0005A50585C05E15B50595C02E1010E02D054
:1064E000000E00D01200D9CFE6FFE1CFD9FF040E95
:1064F000E126390EDE6E000EDD6E020EDB6A020E44
:10650000DBCF42F00001EB51425C000EEC552FE274
:106510000001EA51EA2BEA6A600FE96E000EEA22F6
:10652000030EEFCFDBFF375013E0020EDBA00ED0DF
:1065300037A003D0030EDB9E08D0030EDB92DB9462
:10654000DB96DB98DB9ADB9CDB9E02D0030EDB90B4
:10655000030EDB50426E436ADECFE9FFDDCFEAFF78
:106560004250EE264350ED22020EDB2AC8D7B9EC8A
:1065700017F0040EE15C02E2E16AE552E16EE552D9
:10658000E7CFD9FF1200B9EC17F0010EE66EE66A0C
:1065900097EC19F0E552E552010EE66E0D0EE66E2F
:1065A00097EC19F0E552E552010EE66E010EE66E2B
:1065B00097EC19F0E552E552600E00016115386E56
:1065C000B9EC17F01200385001010113010EE66E0C
:1065D0000F0EE66E97EC19F0E552E5521200D9CF96
:1065E000E6FFE1CFD9FFC3EC17F0B9EC17F00201D9
:1065F000E351E32BEA6A000FE96E010EEA22FE0E78
:10660000DBCFEFFF0201E351E32BEA6A000FE96EF3
:10661000010EEA22FD0EDBCFEFFF0201E351E32B77
:10662000EA6A000FE96E010EEA22EF6A030E020128
:10663000E527000E0201E623010EE66EE66A97ECFE
:1066400019F0E552E552010EE66E140EE66E97EC77
:1066500019F0E552E552010EE66E010EE66E97EC7A
:1066600019F0E552E5520001EA51EA2BEA6A600F9F
:10667000E96E000EEA22EF50366E0001EA51EA2B75
:10668000EA6A600FE96E000EEA22EF50356EB9EC4F
:1066900017F0E552E7CFD9FF1200D9CFE6FFE1CFDF
:1066A000D9FFC3EC17F0B9EC17F00201E351E32B6B
:1066B000EA6A000FE96E010EEA22FE0EDBCFEFFF61
:1066C0000201E351E32BEA6A000FE96E010EEA22B0
:1066D000FD0EDBCFEFFF0201E351E32BEA6A000F6F
:1066E000E96E010EEA22EF6A0201E351E32BEA6A46
:1066F000000FE96E010EEA2236C0EFFF0201E351FE
:10670000E32BEA6A000FE96E010EEA2235C0EFFFC3
:10671000050E0201E527000E0201E623010EE66EDA
:10672000E66A97EC19F0E552E552010EE66E150E99
:10673000E66E97EC19F0E552E552010EE66E010E99
:10674000E66E97EC19F0E552E552E552E7CFD9FF36
:106750001200D9CFE6FFE1CFD9FF0A0EE1261DECEA
:106760002FF0E66ED950060FE96EDACFEAFFE55258
:10677000E750EE6EED6A1DEC2FF0E66ED950040F77
:10678000E96EDACFEAFFE552E750EE6EED6A040EED
:10679000DBCF28F0050EDBCF29F0080E28C0DBFF89
:1067A000090E29C0DBFF040EDBCF42F0050EDBCF64
:1067B00043F0433404E242503D08000E435403E2E8
:1067C0000001E88D14D2020EDB6A030EDB6ADE6A7A
:1067D000DD6ADECF42F0DDCF43F0D890435004E6CF
:1067E000200E425C000E435823E2DECFE9FFDDCFEE
:1067F000EAFF030EEA02F3CFEAFF030EE902F3CF4A
:10680000E9FFF450EA26800EE926020EEA22EF5054
:10681000426E436AD950020FE96EDACFEAFF425066
:10682000EE264350ED22DF2A010E01E3DB2AD1D709
:10683000060EDBCFE9FF070EDBCFEAFF030EEA020D
:10684000F3CFEAFF030EE902F3CFE9FFF450EA26A3
:10685000800EE926020EEA22EF50426E436AD950BA
:10686000020FE96EDACFEAFF4250EE5E4350ED5A76
:10687000040EDBCF42F0050EDBCF43F0020EDBCF80
:1068800044F0030EDBCF45F0000ED8804456030ED3
:10689000455645504318E8AE02D0433404D0425028
:1068A000445C4350455803E20001E88DA0D1060E38
:1068B000DBCF42F0070EDBCF43F0433404E242501B
:1068C0001F08000E435403E20001E88D90D1060E2C
:1068D000DBCFE9FF070EDBCFEAFF030EEA02F3CFBF
:1068E000EAFF030EE902F3CFE9FFF450EA26800E37
:1068F000E926020EEA22EF5001E106D1060EDBCFB7
:10690000E9FF070EDBCFEAFF030EEA02F3CFEAFF4F
:10691000030EE902F3CFE9FFF450EA26800EE926E0
:10692000020EEA22EF50426E436A000ED8804256B1
:10693000030E43564206000E435A040E42C0DBFFCC
:10694000050E43C0DBFF060EDBCFE9FF070EDBCFF2
:10695000EAFF030EEA02F3CFEAFF030EE902F3CFE8
:10696000E9FFF450EA26800EE926020EEA22EE52F2
:10697000EECFDEFFEDCFDDFFDECF42F0DDCF43F027
:10698000040EDBCF44F0050EDBCF45F04350451835
:10699000E8AE02D0453404D04450425C45504358E0
:1069A00035E2060EDBCFE9FF070EDBCFEAFF030E71
:1069B000EA02F3CFEAFF030EE902F3CFE9FFF45056
:1069C000EA26800EE926020EEA22EF500001436A11
:1069D000F425426EF5514322DE504224E96EDD502B
:1069E0004320EA6EEF50E66EDE500001F4250F0101
:1069F000E96EDD500001F5210F01EA6EE552E75026
:106A0000EF6EDF2A010E01E3DB2AB6D7DE6ADD6A0C
:106A1000DECF42F0DDCF43F0D890435004E6200EA5
:106A2000425C000E435870E2DECFE9FFDDCFEAFFA3
:106A3000030EEA02F3CFEAFF030EE902F3CFE9FF08
:106A4000F450EA26800EE926020EEA22EECF42F04A
:106A5000EECF43F0EFCF44F0060EDBCFE9FF070E99
:106A6000DBCFEAFF030EEA02F3CFEAFF030EE902EF
:106A7000F3CFE9FFF450EA26800EE926020EEA225F
:106A8000EE52EECF45F0EFCF46F0000146504418ED
:106A9000E8AE02D0443404D04350455C44504658DC
:106AA0002EE2060EDBCFE9FF070EDBCFEAFF030E77
:106AB000EA02F3CFEAFF030EE902F3CFE9FFF45055
:106AC000EA26800EE926020EEA22EF50426E436A61
:106AD000DECFE9FFDDCFEAFF030EEA02F3CFEAFFE4
:106AE000030EE902F3CFE9FFF450EA26800EE9260F
:106AF000020EEA22EE524250EE5E4350ED5ADF2A79
:106B0000010E01E3DB2A84D7060EDBCFE9FF070E77
:106B1000DBCFEAFF030EEA02F3CFEAFF030EE9023E
:106B2000F3CFE9FFF450EA26800EE926020EEA22AE
:106B3000080EDBCFEFFF060EDBCFE9FF070EDBCF42
:106B4000EAFF030EEA02F3CFEAFF030EE902F3CFF6
:106B5000E9FFF450EA26800EE926020EEA22EE5200
:106B6000020EDBCFEEFF030EDBCFEDFFDE6ADD6A48
:106B7000DECF42F0DDCF43F0060EDBCFE9FF070E9C
:106B8000DBCFEAFF030EEA02F3CFEAFF030EE902CE
:106B9000F3CFE9FFF450EA26800EE926020EEA223E
:106BA000EF50000143AE02D0D89003D0425C000EFB
:106BB00043581DE21DEC2FF0E66E020EDB50000183
:106BC000F4250001426E030EDB500001F5210001A7
:106BD000436EDE504224E96EDD504320EA6EE552FA
:106BE000E750EF6EDF2A010E01E3DB2AC1D70A0E60
:106BF000E15C02E2E16AE552E16EE552E7CFD9FFDE
:106C00001200D9CFE6FFE1CFD9FFE652DF6AFE0ED0
:106C1000DB50DF5C0EE21DEC2FF0E66EDF50EA6A1F
:106C2000000FE96E020EEA22E552E750EF6EDF2A0E
:106C3000EED7E552E552E7CFD9FF1200D9CFE6FFF4
:106C4000E1CFD9FF040EE1261DEC2FF0E66ED950FE
:106C5000020FE96EDACFEAFFE552E750EE6EED6A19
:106C6000020EDB500201E5250001426E030EDB50EF
:106C70000201E6210001436E000ED8804254010E4D
:106C8000435403E20001E88F36D0DE6ADD6ADECFCE
:106C900042F0DDCF43F0020EDBCF44F0030EDBCF3A
:106CA00045F04450425C4550435825E21DEC2FF01E
:106CB000E66E0201E351E32BEA6A000FE96E010E72
:106CC000EA22E552E750EF6E0201E351426E436A59
:106CD000D890435004E6000E425C010E435802E394
:106CE0000201E36B0201E52B000EE623DF2A010E11
:106CF00001E3DB2ACCD7040EE15C02E2E16AE55253
:106D0000E16EE552E7CFD9FF1200D9CFE6FFE1CF20
:106D1000D9FFE652DF6A81AA14D0FE0EDB50D8807C
:106D2000DF5408E3DF50DF2A010BE8B08B80E8A0D6
:106D30008B9001D0DF6AF00EE66EFAEC3DF0E55282
:106D4000EAD7E552E552E7CFD9FF120061500CE1D6
:106D50006596040100513C0BE842E8420D0802E14F
:106D60000ED801D04BD808D0040E615C03E16596C3
:106D700057D802D0000E02D0010E00D01200D9CF99
:106D8000E6FFE1CFD9FFE652040104AF02D00401CF
:106D9000046B0201F96B0201F16B0201F26B02015B
