:100000007AEF06F01200FFFF04EF10F01200FFFF7E
:10001000FFFFFFFFFFFFFFFF0CEF10F01200FFFFDD
:10002000FFFFFFFFFFFFFFFFFFFF00006C500CE131
:100030006896040100513C0BE842E8420D0802E1D9
:100040000ED801D046D808D0040E6C5C03E1689647
:1000500050D802D0000E02D0010E00D01200D9CF2D
:10006000E6FFE1CFD9FFE652040104BF046B0001B3
:10007000B76BAF6BB06BB56BB66B15EC04F0DF6AAA
:10008000DF50206E216A010E205C000E21581BE219
:100090000001B05101E017D0F76ADF34FE0BF736EC
:1000A000F66E740EF6260A0EF7220900F5CF20F040
:1000B0000800F5CF21F004D021C0FAFF2050F96EDE
:1000C000FBDFDF2ADDD7EED8E552E552E7CFD9FFD7
:1000D0001200020E0001AF5D0AE1A7D8040100BDC5
:1000E00003D0C80E006F02D0880E006F01D020D957
:1000F0001200040E0001B85D0AE112C46EFF6E50DA
:10010000000803E2050EB86F02D0030EB86F0001BD
:10011000AF0512E113D8020E0001B75D04E104013E
:10012000840E046F08D0040104BD03D0C80E046F10
:1001300002D0880E046F01D0FBD81200D9CFE6FFA1
:10014000E1CFD9FF020EE1260001080EB55D000ED9
:10015000B6590EE2B5C0DEFFB6C0DDFFB75103E110
:10016000010EB76F04D0B70502E1020EB76F03D0DE
:10017000080EDE6EDD6A040104930491010EDB506B
:100180000413DFCF05F4000EDB500001B55F010E54
:10019000DB50B65B180EB36F040EB46F0001B9A349
:1001A0001ED0D9CFE9FFDACFEAFFEE50ED1016E00E
:1001B000B1C0F6FFB2C0F7FF0800F550B3C0E9FFC9
:1001C000B4C0EAFFEF6E0001B32B000EB423B12BD5
:1001D000B223DF06010E01E2DB06E3D71CD0D9CF44
:1001E000E9FFDACFEAFFEE50ED1015E0B1C0E9FF0C
:1001F000B2C0EAFFEF50B3C0E9FFB4C0EAFFEF6E50
:100200000001B32B000EB423B12BB223DF06010E85
:1002100001E2DB06E4D7020EE15C02E2E16AE552AC
:10022000E16EE552E7CFD9FF1200D9CFE6FFE1CF6B
:10023000D9FF020EE126030E04010015E76E010E40
:10024000E7CFDBFF01C4DFFFDE500001B527DD5043
:10025000B623180EB16F040EB26FD9CFE9FFDACF13
:10026000EAFFEE50ED1014E0B1C0E9FFB2C0EAFFC2
:10027000EF50B3C0E9FFB4C0EAFFEF6EB32B000E3E
:10028000B423B12BB223DF06010E01E2DB06E5D772
:10029000020EE15C02E2E16AE552E16EE552E7CF6F
:1002A000D9FF12006D980001B0510CE10401080E55
:1002B000016F100E026F040E036F840E006F0401B5
:1002C000046F35D0040110AF22D00001B5510401F4
:1002D000165D0001B6510401175904E216C4B5F0C9
:1002E00017C4B6F02BDF0001010EAF6F0401080E3A
:1002F000016F100E026F040E036F800E006F040179
:10030000180E066F040E076FC80E046F10D00001A0
:10031000020EAF6F0401056BC80E046F0401080ED6
:10032000016F180E026F040E036FC80E006F1200EB
:100330000001AF6B0401080E016F100E026F040E76
:10034000036F8C0E006F0401046B1200550EA76E34
:10035000AA0EA76EA68212000001420E6A6F020E5C
:100360006B6F200E6C6F12000001606B6651605D58
:100370001EE260C020F0216A226A67512024F36ED9
:1003800068512120F46E69512220F86EF4CFF7FFF6
:10039000F3CFF6FF0800F5CF61F06051EA6A6A0F0B
:1003A000E96E000EEA2261C0EFFF602BDFD7F86A2A
:1003B0001200840EA66E0001606B6651605D27E23C
:1003C0006051EA6A6A0FE96E000EEA22EFCF23F06D
:1003D00060C020F0216A226A67512024F36E6851C0
:1003E0002120F46E69512220F86EF4CFF7FFF3CF8D
:1003F000F6FF23C0F5FF0C001F0E60151F0803E079
:100400006605605D01E1A2DF0001602BD6D7120016
:100410000001606B6651605D20E2940EA66E605133
:10042000206E216A060ED89020362136E804FBE1C2
:10043000226A21BE2268000167512024F36E6851B0
:100440002120F46E69512220F86EF4CFF7FFF3CF2C
:10045000F6FF7CDF0001602BDDD7F86A1200A66A88
:100460000001606B6651605D0EE267516025A96E08
:10047000A6806051EA6A6A0FE96E000EEA22A8CFF0
:10048000EFFF602BEFD712000001606B6651605DDB
:1004900013E267516025A96E6051EA6A6A0FE96E3E
:1004A000000EEA22EF50A86E040EA66E4FDFA6B231
:1004B000FED70001602BEAD71200C40EA66E000121
:1004C000606B6651605D20E26051EA6A6A0FE96E16
:1004D000000EEA22EFCF23F060C020F0216A226AEA
:1004E00067512024F36E68512120F46E6951222057
:1004F000F86EF4CFF7FFF3CFF6FF23C0F5FF0C0043
:1005000025DF0001602BDDD7F86A1200400EE66E91
:10051000650EE66E000EE66ED5EC03F0E552E55290
:10052000E552000870E20001606B00016551FF0AAE
:1005300057E0FA0A50E0010A3BE0070A34E0010AFA
:100540002DE0030A18E0070A16E0700A01E05AD00D
:1005500003DF0001040E606F04010CBFFDD7400EE5
:10056000E66E650EE66E000EE66E9BEC03F0E5525D
:10057000E552E55248D0F8DE050E0001602704017F
:100580000CBFFDD7400EE66E650EE66E000EE66E01
:100590009BEC03F0E552E552E55235D00ADF00014D
:1005A000010E606F30D034DF0001010E606F2BD080
:1005B00056DF050E0001602704010CBFFDD7400E79
:1005C000E66E650EE66E000EE66E9BEC03F0E552FD
:1005D000E552E55218D058DF0001010E606F13D0CC
:1005E000B0EC05F00001636B646B00016307000E63
:1005F000645B00016351641103E000000000F5D763
:10060000FF0001D000D01200040110511F0B01089F
:1006100001E079D0145101E076D0060E115D2EE193
:100620001351230A28E0010A13E0030A01E024D051
:100630000001020EB06F0001BA0505E10001960E3F
:10064000B16F090EB26F090E0001B56FB66B14D011
:100650000001020EB06F0001BA0505E100014D0E68
:10066000B16F0A0EB26F0001BA0504E11D0E000160
:10067000B56FB66B01D000D00001B98304011051F1
:10068000600BE842E842E842E842E842010801E043
:100690003AD011510B0A31E0080A21E0090A19E0A9
:1006A000080A09E00B0A05E0080A01E02CD02CD862
:1006B0002AD02BD828D00001020EB06F0001BC0E4A
:1006C000B16F000EB26F0001B9930001010EB56F5A
:1006D0001AD00001020EB06F13C4BCF014D0000198
:1006E000020EB06F0001BD0EB16F000EB26F0001BF
:1006F000B9930001010EB56F06D00001020EB06F74
:1007000012C4BDF000D01200120012000001BE6B36
:100710001E0E716E0401400E096F200E0A6F040E4A
:100720000B6F880E086F0401600E0E6F040E0F6FC2
:10073000400E0C6F1200D9CFE6FFE1CFD9FFE65291
:10074000FC0EDB50400805E2400EF36EFC0EF3CFCA
:10075000DBFFDF6AFC0EDB50DF5C19E2DF50E76E87
:10076000FD0EDBCFE9FFFE0EDBCFEAFFE750E92607
:10077000000EEA22EF50E66EDF50EA6A600FE96E83
:10078000040EEA22E552E750EF6EDF2AE3D7FC0EB3
:10079000DBCF0DF4400E04010C170C7D880E0C13FA
:1007A000E552E552E7CFD9FF1200D9CFE6FFE1CFFE
:1007B000D9FF0001BE6B040108BF30D0FC0EDBCFB7
:1007C00020F00951D880205403E2FC0E09C4DBFF5D
:1007D0000001BE6BFC0EDB50BE5D19E2BE51EA6A41
:1007E000200FE96E040EEA22EF50E66EBE51E76E6E
:1007F000FD0EDBCFE9FFFE0EDBCFEAFFE750E92677
:10080000000EEA22E552E750EF6EBE2BE3D704015B
:10081000400E096F0817087D880E08130001BE51AD
:1008200000D0E552E7CFD9FF120004011051600B50
:10083000E842E842E842E842E842000901E098D094
:100840001151080A01E186D0010A72E00F0A0AE09C
:10085000030A01E08DD00001010EB06F0001040E0B
:10086000B86F86D00001010EB06F040113050AE1D4
:100870000001720EB16F090EB26F120E0001B56F5A
:10088000B66B53D0020E135D1EE11251F66EF76A7D
:10089000D890F636F7366A0EF6260A0EF7220900C9
:1008A000F5CFB1F00A00F5CFB2F0020E0001F76A01
:1008B000B125F66EB251F7220900F5CFB5F00A0066
:1008C000F5CFB6F032D0030E135D2DE1030E125DAD
:1008D00010E10001000EB16F000EB26FB1C0E9FF70
:1008E000B2C0EAFFEF500001B56FB66B0001B993DB
:1008F0003FD01251F66EF76AD890F636F7366E0E84
:10090000F6260A0EF7220900F5CFB1F00A00F5CF5E
:10091000B2F0B1C0F6FFB2C0F7FF0800F550000119
:10092000B56FB66B02D00001B06B0001B98320D067
:100930000001010EB06F12C4BAF00401125104E1BB
:100940000001050EB86F05D00001060EB86F86ECE9
:1009500003F00ED00001010EB06F0001BA0EB16FAE
:10096000000EB26F0001B9930001010EB56F00D007
:1009700012001201000200000008D8043300020037
:100980000102030209022900010102803209040068
:10099000000203000000092101000001221D0007E0
:1009A0000581034000010705010340000109022001
:1009B0000001020480320904000002FF0000000769
:1009C00005810340000107050103400001040309FC
:1009D0000434034D006900630072006F0063006817
:1009E0000069007000200054006500630068006E1C
:1009F000006F006C006F0067007900200049006EF6
:100A00000063002E0048035000490043006B00695A
:100A10000074002000320020004D00690063007265
:100A2000006F0063006F006E00740072006F006C56
:100A3000006C00650072002000500072006F0067BB
:100A400000720061006D006D00650072000600FF1D
:100A50000901A10119012940150026FF007508951B
:100A6000408102190129409102C08409AD09CD09D4
:100A7000D109050A0806D9CFE6FFE1CFD9FF030E59
:100A8000E126938A818AF19E580EE66E53EC06F0B9
:100A9000E55281AA0DD0FE0EF66E7F0EF76EF86A53
:100AA0000800F550DF6E550EDF5C02E100EF10F03C
:100AB0001DD8B5EC05F086EC02F0D950010FE96EB7
:100AC000DACFEAFFEE50ED1001E18B70010EDB068C
:100AD000020E01E2DB06EDD7030EE15C02E2E16A01
:100AE000E552E16EE552E7CFD9FF1200D9CFE6FF1C
:100AF000E1CFD9FFE652DF6A400EDF5C09E2DF504A
:100B0000EA6A200FE96E040EEA22EF6ADF2AF4D7C0
:100B1000140E6F6E0001B86B0001B96B0001BA6B67
:100B2000020EDF6E0001030E016F090E026F040E4C
:100B3000036F020EDF24006F8B909490A5EC05F0FC
:100B4000E552E552E7CFD9FF1200080E6D6E6DBA7F
:100B5000FED7686A110E696E0001020EB86F1200AE
:100B60006D6A696A0001B86B12006850040B09E0F5
:100B70006950040B06E06D92699468A402D06894F1
:100B8000FCD76850010B04E06950010B01E023D849
:100B90006850200B06E06950200B03E070B07090A5
:100BA000689A030E0001B85D01E214D00001BF6B2A
:100BB000040EBF5D0FE26850080B0BE06950080B94
:100BC00008E016EC00F0000901E168960001BF2B77
:100BD000EFD700D01200686A7B0E696E6E6A160E3F
:100BE000706E68A608D06896000000000000000043
:100BF00000000000F6D76D9898EC01F00001BA6B88
:100C00000001030EB86F12002A0EF66E000EF76E8A
:100C1000000EF86E00010900F550AA6F0900F550AA
:100C2000AB6F03E1AA6701D03DD00900F550A56F75
:100C30000900F550A66F0900F550A76F09000900DB
:100C4000F550E96E0900F550EA6E09000900090047
:100C5000F550A86F0900F550A96F09000900F6CFFB
:100C6000ACF0F7CFADF0F8CFAEF0A5C0F6FFA6C060
:100C7000F7FFA7C0F8FF0001A85302E1A95307E05E
:100C80000900F550EE6EA807F8E2A907F9D7ACC045
:100C9000F6FFADC0F7FFAEC0F8FF0001AA07000ED7
:100CA000AB5BBFD71200FF0EE350276EEF0E01D0F3
:100CB000F30EE76EE72E5AEF06F00C0E266EE76A8B
:100CC000E72E60EF06F0262E5FEF06F0272E58EF96
:100CD00006F01200000EF36E00EE00F0080E01D8D0
:100CE0001200EA6002D0EE6AFCD7F350E96012000D
:100CF000EE6AFCD713EE00F023EE00F0F86A259CB4
:100D000004EC06F088EC06F03BEC05F0FBD7120093
:020D10001200CF
:10200000A3EF3EF01200FFFFA7EF3AF01200FFFF30
:10201000FFFFFFFFFFFFFFFFA7EF3AF01200FFFFF8
:10202000FFFFFFFFFFFFFFFFFFFFD9CFE6FFE1CF7D
:10203000D9FFE652030ED26EA194A08492809282C0
:102040000D0EC16E030EC06E9284809489949286A8
:102050008096899692888998899A929A8A96939678
:102060008A889398938A818AF19E8A9493948B901C
:1020700094908B9294928B949494949C8B8C020E5B
:10208000DF6E0001030E016F0001090E026F0001F7
:10209000040E036FF00EE66E56EC2AF0E5522308AC
:1020A00028E11E0EDF5C25E2DF50FE0BE842F00F58
:1020B000E66E56EC2AF0E552E66EDF50EA6A000F53
:1020C000E96E000EEA22E552E750EF6EDF28EA6A79
:1020D000000FE96E000EEA22EF6ADF50EA6A000F95
:1020E000E96E000EEA22EF5001E103D0020EDF2676
:1020F000D8D7020EDF240001006F3E6A0001E76BB3
:102100000001010EE86F0201030EE06F0201E16BB6
:102110000201010EE26FD9EC19F0BBEC17F0B3EC41
:1021200017F08DEC17F00001400ED880E355010E3A
:10213000E4550EE30001C00EE35D000EE45908E330
:102140000001E651AF0804E3500E0001E65D09E22C
:102150000001E36B010EE46F0001E56B0001800EEE
:10216000E66F080ED56E040ECA6E4F0ECB6E0C0EC7
:10217000BD6E1D0EBE6E0001400EE06F00013E0EF2
:10218000E16F00013C0EE26F02017E0EFA6F020168
:102190002D0EFB6F070EB46EB56AF28CF28E9DECBD
:1021A0003BF0040EE66E56EC2AF0E552500828E1AA
:1021B000050EE66E56EC2AF0E5524B0821E1060EBC
:1021C000E66E56EC2AF0E55232081AE1070EE66E8A
:1021D00056EC2AF0E5523D6E020E3E6E546AE66AF7
:1021E000110EE66E01EC16F0E552E552400EE66E79
:1021F00026EC17F0E5520201FA6F0201890E006F1A
:10220000E552E552E7CFD9FF120004010CBFFDD71C
:10221000400EE66E400EE66E020EE66E22EC3AF0DE
:10222000E552E552E5528AEC3DF01200D9CFE6FFC7
:10223000E1CFD9FF020EE126DF6A010EDB6A81BA27
:1022400002D00001E78D400EE66E000EE66E020E33
:10225000E66E5EEC3AF0E552E552E552000803E224
:10226000DE52010EDD6E3E0406E1010EDB5002E09F
:1022700088EC2FF00ED2020E3E5C09E1010EDB501D
:1022800004E0760E0201005D02E00DDA02D20001E8
:10229000E8B383DA010EDB5001E1FBD1DF50EA6ADB
:1022A000000FE96E020EEA22EF50546E5450420ABB
:1022B00027E0340A05E02C0A01E025D0DF2AE5D129
:1022C00031EC1DF0020E3E5C19E1080ED56E8A88D5
:1022D0003E6AE668040EE66E34EC2AF0E552E552FA
:1022E000E668050EE66E34EC2AF0E552E552E66843
:1022F000060EE66E34EC2AF0E552E552DF2AC5D12F
:10230000F9EC1CF0C2D1A00E545C03E2400EDF6E6B
:10231000BCD15450B90803E2400EDF6EB6D1A00E16
:10232000545E549E5446080E5426F9505424D8B096
:10233000FA2AF96E1AD03FD06BD06ED071D07AD015
:1023400091D0B1D0B4D0BDD0C0D0C3D0C6D0C9D048
:10235000CBD0CDD0D0D005D10DD115D11DD11FD12D
:1023600027D128D12FD17AD190D1DF28EA6A000F66
:10237000E96E020EEA22EF50E66E020EDF24EA6AF0
:10238000000FE96E020EEA22EF50E66E01EC16F045
:10239000E552E552030EDF24EA6A000FE96E020EF1
:1023A000EA22EF50E66E26EC17F0E5520201FA6FD2
:1023B000040EDF26D9D7DF28EA6A000FE96E020E85
:1023C000EA22EFCFE0F0020EDF24EA6A000FE96EA6
:1023D000020EEA22EF50E66E26EC17F0E552010FEE
:1023E0000001E16F020E0001E15D0001E26F030EEA
:1023F000DF24EA6A000FE96E020EEA22EF50E66E71
:1024000026EC17F0E5520201FB6F040EDF26ACD775
:1024100011EC1DF0DF2AA8D76EEC18F0DF2AA4D744
:10242000DF2AD9CFE6FFDACFE6FF73EC1AF0E552E8
:10243000E5529AD7DF2ADF28EA6A000FE96E020E1A
:10244000EA22EF50E66EDF50EA6A000FE96E020EF4
:10245000EA22EF50E66E88EC19F0E552E552020EE2
:10246000DF2682D7DF2ADF50EA6A000FE96E020E0C
:10247000EA22EF50E66EDF28406A000F3F6E020E40
:1024800040223FC0E6FF40C0E6FF3DEC1DF0E552B4
:10249000E552E552DF50EA6A000FE96E020EEA22C9
:1024A000EF28DF2661D7BBEC17F0DF2A5DD7DF2AE4
:1024B000D9CFE6FFDACFE6FFF4EC19F0E552E552AA
:1024C00053D7B3EC17F0DF2A4FD7E7EC18F0DF2A29
:1024D0004BD7D9EC19F0DF2A47D73AEC19F0DF2AAD
:1024E00043D7400EDF6E40D7FF00DF2A3DD7C3EC55
:1024F00017F0DF2A39D7DF28EA6A000FE96E020EEB
:10250000EA22EF500001E36FE46B020EDF24EA6A77
:10251000000FE96E020EEA22EFCF3FF0406A3FBEA5
:1025200040683FC040F03F6A3F500001E327405001
:102530000001E423030EDF24EA6A000FE96E020EB5
:10254000EA22EFCFE5F0040EDF24EA6A000FE96E1D
:10255000020EEA22EFCFE6F06AEC17F0050EDF2656
:1025600003D7DF2AD9CFE6FFDACFE6FFC8DAE55294
:10257000E552FAD6DF2AD9CFE6FFDACFE6FF3FDA17
:10258000E552E552F1D6DF2AD9CFE6FFDACFE6FFF2
:1025900099D9E552E552E8D6DF2AE0D9E5D6DF2A17
:1025A000DFCFE6FF28EC2FF0E552040EDF26DCD665
:1025B000DF2ADAD6DF2ADFCFE6FF38D9E552400E30
:1025C000DF6ED2D6DF2ADF50DF2AEA6A000FE96E1B
:1025D000020EEA22EF505F6EDF50DF2AEA6A000F38
:1025E000E96E020EEA22EF50546EDF50DF2AEA6AEB
:1025F000000FE96E020EEA22EF50566EDF50DF2A1E
:10260000EA6A000FE96E020EEA22EF50586EDF50C0
:10261000DF2AEA6A000FE96E020EEA22EF50596ED5
:10262000DF50DF2AEA6A000FE96E020EEA22EF505D
:102630005A6EDF50DF2AEA6A000FE96E020EEA22C4
:10264000EF285B6EDF50DF2AEA6A000FE96E020EA8
:10265000EA22EF505E6ED0EC2DF086D6DF2ADF281E
:10266000EA6A000FE96E020EEA22EF50E66EDF50D2
:10267000EA6A000FE96E020EEA22EF50E66E7ED99A
:10268000E552E552020EDF266FD6400EDF5C01E216
:1026900005D6020EE15C02E2E16AE552E16EE55226
:1026A000E7CFD9FF1200F29A870ED56EF2A429D097
:1026B000D20ED76E3A0ED66EF294542A54500508B4
:1026C00001E2546A040E545C06E2010E5414E8B0B0
:1026D0008A88E8A08A98300E0001E71512E08A88FF
:1026E00081BAFED78F0E0001E717F00EE66E8CEC74
:1026F0003EF0E55281AAFED7F00EE66E8CEC3EF07D
:10270000E5520001E7AD47D08A8830EC31F08A8885
:102710008A8681AAFED7546AE66A110EE66E71DADD
:10272000E552E552400EE66E91DBE5520201FA6F8A
:10273000300E0001E71502E081BAFED7FC0E000161
:10274000E81506E0080EE66E70EC36F0E55210D0A3
:10275000390406E1040EE66E70EC36F0E55208D05E
:102760003650371005E0060EE66E70EC36F0E55296
:10277000F00EE66E8CEC3EF0E55281AAFED7F00E2C
:10278000E66E8CEC3EF0E5528F0E0001E71700017B
:10279000E86B0001E79D8B901200D9CFE6FFE1CFF7
:1027A000D9FFE6523D501AE03D50DF6E3D6A3A5087
:1027B000E66ECFEC27F0E552DF50010805E23B5012
:1027C000E66ECFEC27F0E552DF50020805E23C5000
:1027D000E66ECFEC27F0E5523D50E6E10201E5510F
:1027E000E61108E0A050020B05E104EC28F0396E78
:1027F000A182A0828150100B14E1C250020B11E1A2
:102800000201FA51C45C0AE20C0E0201FC5D03E114
:102810008A948A8802D00201FC2B02D00201FC6B50
:10282000C282E552E552E7CFD9FF1200D9CFE6FFC9
:10283000E1CFD9FFFE0EDBCFE6FF46EC2FF0E552ED
:1028400000093CE0020E3E6E546AE66A110EE66E26
:10285000D8D9E552E552400EE66EF8DAE5520201AB
:10286000FA6F500EE66E040EE66E34EC2AF0E55276
:10287000E5524B0EE66E050EE66E34EC2AF0E5529C
:10288000E552320EE66E060EE66E34EC2AF0E552A4
:10289000E552FE0EDB50030FEA6A000FE96E020EEE
:1028A000EA22EF503D6E3D50E66E070EE66E34ECC8
:1028B0002AF0E552E5520201890E006FE552E7CF9A
:1028C000D9FF1200D9CFE6FFE1CFD9FFF29EB2ECDB
:1028D0003BF0050EC26EC282FD0EDBCFE9FFFE0E9D
:1028E000DBCFEAFFEF50EF2AEA6A000FE96E020E33
:1028F000EA22EF50346EFD0EDBCFE9FFFE0EDBCF98
:10290000EAFFEF50EF2AEA6A000FE96E020EEA22B0
:10291000EF50356E366A376A386A396A3A6A3D6A04
:102920000001E88392968986928492888A94899A93
:102930002E0EB46EA50EB56E0C0EE66EBFEC3EF01C
:10294000E5529D90A092910ECD6E910EB16EA19C1C
:10295000A08CF28EE552E7CFD9FF1200F29E000163
:10296000E893A09C9D90A092CD6AB16A070EB46EC8
:10297000B56A92869DEC3BF0F28E1200D9CFE6FF4D
:10298000E1CFD9FF030EE126FD0EDB50416E426A16
:1029900041C042F0416AFE0EDB50000141243F6E0F
:1029A000000E4220406E010E3FC0DBFF020E40C011
:1029B000DBFFDF6ADF503F6E406AD890405004E68C
:1029C000800E3F5C000E405810E2010EDBCFE9FFA5
:1029D000DB2A020EDBCFEAFF01E3DB2AEF50E66ED3
:1029E000CFEC27F0E552DF2AE5D7030EE15C02E2E7
:1029F000E16AE552E16EE552E7CFD9FF1200D9CF87
:102A0000E6FFE1CFD9FF050EE126FD0EDBCFE9FFA2
:102A1000FE0EDBCFEAFFEF50EF2AEA6A000FE96E05
:102A2000020EEA22040EEFCFDBFFFD0EDBCFE9FF43
:102A3000FE0EDBCFEAFFEF50EF2AEA6A000FE96EE5
:102A4000020EEA22EF50E66ED950020FE96EDACF9D
:102A5000EAFFE552E750EE6EED6AD950020FE96EDB
:102A6000DACFEAFF200ED880EE54000EED5407E2D4
:102A7000200EF36E020EF3CFDBFF030EDB6AD9509C
:102A8000020FE96EDACFEAFFEE50ED1001E12DD032
:102A9000DE6ADD6ADECF3FF0DDCF40F0020EDBCF35
:102AA00041F0030EDBCF42F041503F5C42504058B2
:102AB0001AE2040EDBCFF3FFDB2AF350E66E56EC8E
:102AC0002AF0E552E66EDECFE9FFDDCFEAFF400EE9
:102AD000E926020EEA22E552E750EF6EDF2A010EE8
:102AE00001E3DB2AD7D705EC11F0050EE15C02E229
:102AF000E16AE552E16EE552E7CFD9FF1200D9CF86
:102B0000E6FFE1CFD9FF050EE126FD0EDBCFE9FFA1
:102B1000FE0EDBCFEAFFEF50EF2AEA6A000FE96E04
:102B2000020EEA22040EEFCFDBFFFD0EDBCFE9FF42
:102B3000FE0EDBCFEAFFEF50EF2AEA6A000FE96EE4
:102B4000020EEA22EF50E66ED950020FE96EDACF9C
:102B5000EAFFE552E750EE6EED6AD950020FE96EDA
:102B6000DACFEAFF200ED880EE54000EED5407E2D3
:102B7000200EF36E020EF3CFDBFF030EDB6AD9509B
:102B8000020FE96EDACFEAFFEE50ED1001E12FD02F
:102B9000DE6ADD6ADECF3FF0DDCF40F0020EDBCF34
:102BA00041F0030EDBCF42F041503F5C42504058B1
:102BB0001EE2FD0EDBCFE9FFFE0EDBCFEAFFEF509A
:102BC000EF2AEA6A000FE96E020EEA22EF50E66E83
:102BD000040EDBCFF3FFDB2AF350E66E34EC2AF071
:102BE000E552E552DF2A010E01E3DB2AD3D7050EB9
:102BF000E15C02E2E16AE552E16EE552E7CFD9FF1E
:102C00001200D9CFE6FFE1CFD9FF030EE126FE0E79
:102C1000DB50426E436A42C043F0426AFD0EDB5015
:102C2000000142243F6E000E4320406E416A40BEC8
:102C300041683FC0DFFF010E40C0DBFF020E41C014
:102C4000DBFFD9CFE9FFDACFEAFF060EE76ED890B7
:102C5000020EEB32010EEB32EF32E706F8E1E5C08F
:102C60003FF0406A416A3FAE02D040684168D9CF28
:102C7000E9FFDACFEAFF3F50EE264050EE22415006
:102C8000EE22E6C03FF0406A416AD9CFE9FFDACFD1
:102C9000EAFF3FC02CF040C02DF041C02EF0EECF37
:102CA00027F0EECF28F0EFCF29F0AFEC3CF026C0B4
:102CB000EDFF25C0EDFF24C0EFFFD9CFE9FFDACF4C
:102CC000EAFFD890020EEB32010EEB32EF32080E23
:102CD000426ED9CFE9FFDACFEAFF42501F0BEECFA9
:102CE0003FF0EECF40F0EECF41F006E0D890413219
:102CF00040323F32E806FAE13F50BE6ED9CFE9FFDD
:102D0000DACFEAFFEE52EE6AEE6ACF0EBD14426EE3
:102D1000436A446A020E486ED9CFE9FFDACFEAFF70
:102D200048501F0BEECF45F0EECF46F0EECF47F008
:102D300006E0D890473246324532E806FAE1425082
:102D400045103F6E43504610406E44504710416E50
:102D50003F50BD6E030EE15C02E2E16AE552E16EB6
:102D6000E552E7CFD9FF1200D9CFE6FFE1CFD9FF77
:102D7000040EE126FD0EDBCF3FF0FE0EDBCF40F070
:102D8000000E3FC0DBFF010E40C0DBFF020EDB6A1E
:102D9000030EDB6AE3C03FF0E4C040F0416A426AE0
:102DA000D9CFE9FFDACFEAFF3FC02BF040C02CF0CB
:102DB00041C02DF042C02EF0EECF26F0EECF27F02E
:102DC000EECF28F0EFCF29F02AEC3EF025C0EDFF42
:102DD00024C0EDFF23C0EDFF22C0EFFFD9CFE9FFF4
:102DE000DACFEAFF080EE76ED890030EEB32020E40
:102DF000EB32010EEB32EF32E706F6E1D9CFE9FF15
:102E0000DACFEAFFD880FF0EEE54FF0EEE54000E2C
:102E1000EE54000EEE5406E2DE68DE68DE6ADD6A1D
:102E2000DD52DD52DFCF3FF0010EDBCF40F03FC07F
:102E3000F3FF40C0F4FF00D0040EE15C02E2E16A5F
:102E4000E552E16EE552E7CFD9FF1200D9CFE6FF98
:102E5000E1CFD9FF020EE126E3C03FF0E4C040F02D
:102E6000000ED8803F56020E40563FC0DEFF40C0E5
:102E7000DDFFFE0EDB503F6E406AD9CFE9FFDACFAF
:102E8000EAFF3FC02DF040C02EF0EECF28F0EDCF8E
:102E900029F091EC3CF026C0EEFF27C0EDFFD9CF22
:102EA000E9FFDACFEAFF080E0F0B06E0EC52D890EC
:102EB000ED32EF32E806FAE1DF5000D03F6E020E4D
:102EC000E15C02E2E16AE552E16E3F50E552E7CF94
:102ED000D9FF1200E3C0E6FFE66A34EC2AF0E552BF
:102EE000E552E4C03FF0406A3F50E66E010EE66EE8
:102EF00034EC2AF0E552E552E5C0E6FF020EE66E3C
:102F000034EC2AF0E552E552E6C0E6FF030EE66E29
:102F100034EC2AF0E552E5521200E66A56EC2AF04B
:102F2000E5520001E36FE46B010EE66E56EC2AF009
:102F3000E5523F6E406A3FC040F03F6A3F5000019B
:102F4000E32740500001E423020EE66E56EC2AF01F
:102F5000E5520001E56F030EE66E56EC2AF0E552ED
:102F60000001E66F12000001E96B0001EA6B00014D
:102F7000EB6BEC6B12000201E36B0201E46B0201EC
:102F8000E56BE66B1200D9CFE6FFE1CFD9FF060E65
:102F9000E126DE6ADD6A020EDB6A030EDB6A040EDE
:102FA000DB6A050EDB6A040EDB6A050EDB6A040EC3
:102FB000DBCF3FF0050EDBCF40F0D890405004E669
:102FC000200E3F5C000E40581EE2040EDBCFE9FFEE
:102FD000050EDBCFEAFF030EEA02F3CFEAFF030E92
:102FE000E902F3CFE9FFF450EA26800EE926020E4B
:102FF000EA22EF50DE26000EDD22040EDB2A050E4B
:1030000001E3DB2AD4D7040EDB6A050EDB6A040E6B
:10301000DBCF3FF0050EDBCF40F0DECF41F0DDCF60
:1030200042F040504218E8AE02D0423404D0415041
:103030003F5C425040581EE2040EDB500001F42574
:103040000F01E96E050EDB500001F5210F01EA6E5C
:10305000EF503F6E406AD950020FE96EDACFEAFFB7
:103060003F50EE264050ED22040EDB2A050E01E310
:10307000DB2ACDD7DECF3FF0DDCF40F03F5002015D
:10308000406FDECF3FF0DDCF40F040C03FF0406A00
:103090003FC041F2FF0EE76E020EDBCF3FF0030EA2
:1030A000DBCF40F0E7503F16406A3FC042F2020ECD
:1030B000DBCF3FF0030EDBCF40F040C03FF0406A73
:1030C0003FC043F205EC11F0060EE15C02E2E16A5A
:1030D000E552E16EE552E7CFD9FF1200D9CFE6FF06
:1030E000E1CFD9FF020EE126B2EC3BF0040EE66E12
:1030F00060D8E552C450416E426A41C042F0416A14
:10310000C350000141243F6E000E4220406E3FC07C
:10311000DEFF40C0DDFFDECFE6FFDDCFE6FF24DED1
:10312000E552E552F3CFDEFFF4CFDDFFDFCF40F213
:10313000DECF3FF0DDCF40F040C03FF0406A3FC0FF
:1031400041F2E66A36D8E552C450416E426A41C047
:1031500042F0416AC350000141243F6E000E4220FC
:10316000406E3FC0DEFF40C0DDFFDECFE6FFDDCFBB
:10317000E6FFFADDE552E552F3CFDEFFF4CFDDFFE7
:10318000DFCF42F2DECF3FF0DDCF40F040C03FF076
:10319000406A3FC043F205EC11F09DEC3BF0020E9B
:1031A000E15C02E2E16AE552E16EE552E7CFD9FF68
:1031B0001200D9CFE6FFE1CFD9FFFE0EDB28C26EA9
:1031C000C282C2B2FED7E552E7CFD9FF1200D9CFF3
:1031D000E6FFE1CFD9FF020EE126010EEBC0DBFFD7
:1031E000010EDB503F0803E2DE523F0EDD6E010EA2
:1031F000DBCF40F2010EDF6E010EDB50D880DF54D2
:1032000023E30001EA51EA2BEA6A600FE96E000E3F
:10321000EA22EF50E66EDF50EA6A400FE96E020ED6
:10322000EA22E552E750EF6E0001EA513F6E406A34
:10323000D890405004E6800E3F5C000E405802E3F8
:103240000001EA6BDF2AD8D7010EDB503F6E406ADF
:103250003F500001EB5F40500001EC5B05EC11F0CA
:10326000020EE15C02E2E16AE552E16EE552E7CF6F
:10327000D9FF1200D9CFE6FFE1CFD9FF020EE12638
:10328000010EEBC0DBFF010EDB50400803E2DE5213
:10329000400EDD6EDF6A010EDB50DF5C23E20001D1
:1032A000EA51EA2BEA6A600FE96E000EEA22EF505B
:1032B000E66EDF50EA6A400FE96E020EEA22E5523E
:1032C000E750EF6E0001EA513F6E406AD8904050DF
:1032D00004E6800E3F5C000E405802E30001EA6BFA
:1032E000DF2AD9D7010EDB503F6E406A3F50000104
:1032F000EB5F40500001EC5B05EC11F0020EE15C6D
:1033000002E2E16AE552E16EE552E7CFD9FF120031
:10331000D9CFE6FFE1CFD9FF200EF36EFE0EDBCF53
:10332000F4FFF350F45C0DE2FE0EDB50030DF3CF1F
:10333000E9FFF4CFEAFF800EE926020EEA22EF5001
:1033400003E10001E88B31D0FE0EDB50030DF3CF1B
:10335000E9FFF4CFEAFF800EE926020EEA22EF50E1
:10336000E66EFE0EDB50030DF3CFE9FFF4CFEAFF6C
:10337000800EE926020EEA22EE5200010001F4510D
:10338000EE243F6E00010001F551EE20406E3FC07B
:10339000E6FF40C0E6FF71DBE552E552E552FD0E67
:1033A000DB06FD0EDB500008CFE3E552E7CFD9FF87
:1033B0001200D9CFE6FFE1CFD9FFE652DF6A200E37
:1033C000DF5C0DE2DF50030DF3CFE9FFF4CFEAFF3E
:1033D000800EE926020EEA22EF6ADF2AF0D7E552D4
:1033E000E552E7CFD9FF1200D9CFE6FFE1CFD9FFF1
:1033F000040EE126FD0EDBCFE9FFFE0EDBCFEAFF78
:10340000EF50EF2AEA6A000FE96E020EEA22EF504F
:10341000E66ED950020FE96EDACFEAFFE552E750C7
:10342000EE6EED6A020EDB500201E52500013F6EF3
:10343000030EDB500201E6210001406E000ED88031
:103440003F54010E405403E20001E88F42D0DE6A8F
:10345000DD6ADECF3FF0DDCF40F0020EDBCF41F082
:10346000030EDBCF42F041503F5C4250405831E206
:10347000FD0EDBCFE9FFFE0EDBCFEAFFEF50EF2AB8
:10348000EA6A000FE96E020EEA22EF50E66E0201D0
:10349000E351E32BEA6A000FE96E010EEA22E552DE
:1034A000E750EF6E0201E3513F6E406AD890405002
:1034B00004E6000E3F5C010E405802E30201E36B9C
:1034C0000201E52B000EE623DF2A010E01E3DB2AD1
:1034D000C0D7040EE15C02E2E16AE552E16EE5521A
:1034E000E7CFD9FF1200D9CFE6FFE1CFD9FF080E11
:1034F000E126FD0EDBCFE9FFFE0EDBCFEAFFEF2872
:10350000EA6A000FE96E020EEA22EFCF3FF0406A4E
:103510003FBE4068040E3FC0DBFF050E40C0DBFF2E
:10352000040EDBCF3FF0050EDBCF40F0403404E269
:103530003F503D08000E405403E20001E88D4FD299
:10354000FD0EDBCFE9FFFE0EDBCFEAFFEF50EA6AAC
:10355000000FE96E020EEA22EFCF3FF0406A3FBE55
:103560004068060E3FC0DBFF070E40C0DBFF020EC7
:10357000DB6A030EDB6ADE6ADD6ADECF3FF0DDCF99
:1035800040F0D890405004E6200E3F5C000E4058BA
:1035900023E2DECFE9FFDDCFEAFF030EEA02F3CF3D
:1035A000EAFF030EE902F3CFE9FFF450EA26800EAA
:1035B000E926020EEA22EF503F6E406AD950020F10
:1035C000E96EDACFEAFF3F50EE264050ED22DF2AC7
:1035D000010E01E3DB2AD1D7060EDBCFE9FF070E90
:1035E000DBCFEAFF030EEA02F3CFEAFF030EE902A4
:1035F000F3CFE9FFF450EA26800EE926020EEA2214
:10360000EF503F6E406AD950020FE96EDACFEAFF01
:103610003F50EE5E4050ED5A040EDBCF3FF0050EFA
:10362000DBCF40F0020EDBCF41F0030EDBCF42F0E8
:10363000000ED8804156030E425642504018E8AE64
:1036400002D0403404D03F50415C4050425803E225
:103650000001E88DC4D1060EDBCF3FF0070EDBCFB3
:1036600040F0403404E23F501F08000E405403E293
:103670000001E88DB4D1060EDBCFE9FF070EDBCFEA
:10368000EAFF030EEA02F3CFEAFF030EE902F3CFEB
:10369000E9FFF450EA26800EE926020EEA22EF50F6
:1036A00001E106D1060EDBCFE9FF070EDBCFEAFF13
:1036B000030EEA02F3CFEAFF030EE902F3CFE9FFBC
:1036C000F450EA26800EE926020EEA22EF503F6E01
:1036D000406A000ED8803F56030E40563F06000E4B
:1036E000405A040E3FC0DBFF050E40C0DBFF060E54
:1036F000DBCFE9FF070EDBCFEAFF030EEA02F3CFD1
:10370000EAFF030EE902F3CFE9FFF450EA26800E48
:10371000E926020EEA22EE52EECFDEFFEDCFDDFF0C
:10372000DECF3FF0DDCF40F0040EDBCF41F0050EE1
:10373000DBCF42F040504218E8AE02D0423404D011
:1037400041503F5C4250405835E2060EDBCFE9FF66
:10375000070EDBCFEAFF030EEA02F3CFEAFF030E08
:10376000E902F3CFE9FFF450EA26800EE926020EC3
:10377000EA22EF500001406AF4253F6EF5514022E5
:10378000DE503F24E96EDD504020EA6EEF50E66ED9
:10379000DE500001F4250F01E96EDD500001F52136
:1037A0000F01EA6EE552E750EF6EDF2A010E01E3EA
:1037B000DB2AB6D7DE6ADD6ADECF3FF0DDCF40F030
:1037C000D890405004E6200E3F5C000E405870E256
:1037D000DECFE9FFDDCFEAFF030EEA02F3CFEAFF17
:1037E000030EE902F3CFE9FFF450EA26800EE92642
:1037F000020EEA22EECF3FF0EECF40F0EFCF41F0E5
:10380000060EDBCFE9FF070EDBCFEAFF030EEA026D
:10381000F3CFEAFF030EE902F3CFE9FFF450EA2603
:10382000800EE926020EEA22EE52EECF42F0EFCFF2
:1038300043F0000143504118E8AE02D0413404D0B7
:103840004050425C415043582EE2060EDBCFE9FF68
:10385000070EDBCFEAFF030EEA02F3CFEAFF030E07
:10386000E902F3CFE9FFF450EA26800EE926020EC2
:10387000EA22EF503F6E406ADECFE9FFDDCFEAFF7C
:10388000030EEA02F3CFEAFF030EE902F3CFE9FFEA
:10389000F450EA26800EE926020EEA22EE523F504C
:1038A000EE5E4050ED5ADF2A010E01E3DB2A84D799
:1038B000FD0EDBCFE9FFFE0EDBCFEAFFEF28EA6A61
:1038C000000FE96E020EEA22EF50E66E060EDBCF25
:1038D000E9FF070EDBCFEAFF030EEA02F3CFEAFFB0
:1038E000030EE902F3CFE9FFF450EA26800EE92641
:1038F000020EEA22E552E750EF6E060EDBCFE9FF3B
:10390000070EDBCFEAFF030EEA02F3CFEAFF030E56
:10391000E902F3CFE9FFF450EA26800EE926020E11
:10392000EA22EE52020EDBCFEEFF030EDBCFEDFFFD
:10393000020E3F6EFD0EDBCFE9FFFE0EDBCFEAFF8E
:103940003F50EF26DE6ADD6ADECF3FF0DDCF40F08C
:10395000060EDBCFE9FF070EDBCFEAFF030EEA021C
:10396000F3CFEAFF030EE902F3CFE9FFF450EA26B2
:10397000800EE926020EEA22EF50000140AE02D08E
:10398000D89003D03F5C000E405829E2FD0EDBCFFB
:10399000E9FFFE0EDBCFEAFFEF50EF2AEA6A000FE5
:1039A000E96E020EEA22EF50E66E020EDB500001D5
:1039B000F42500013F6E030EDB500001F5210001EC
:1039C000406EDE503F24E96EDD504020EA6EE55245
:1039D000E750EF6EDF2A010E01E3DB2AB5D7080EB0
:1039E000E15C02E2E16AE552E16EE552E7CFD9FF20
:1039F0001200F29E85EC3DF0840EA66EFE0EF66E71
:103A00007F0EF76EF86AF56A0C00550EA76EAA0EC7
:103A1000A76EA6824E0EE66E8CEC3EF0E552FF00DD
:103A20001200F00E0001E71781A402D00001E78721
:103A300080AA02D00001E78581B802D00001E783A7
:103A400081A602D00001E781E7C040F2E8C041F260
:103A50008F0E0001E7170001E86B8B9005EC11F069
:103A600012000201020E406F0201200E416F02019E
:103A7000010E426F05EC11F01200D9CFE6FFE1CF45
:103A8000D9FF0D0EE126DF6A0B0EDB6A0C0EDB6A36
:103A9000F29A070ED56EFC0EDB5004E0FC0EDB50F4
:103AA0003D0804E20001E88B85EF24F0FE0E0001E2
:103AB000E81502E085EF24F0FC0EDB50DF5C02E34A
:103AC00085EF24F0DF50E76EFD0EDBCFE9FFFE0E41
:103AD000DBCFEAFFE750E926000EEA22EF50546EF2
:103AE000B30E545C04E2FC0EDB50DF6EDFD7D50E64
:103AF000545C01E2CAD3D50E545E549E5446080E5F
:103B00005426F9505424D8B0FA2AF96EA5D39AD382
:103B1000DFD200D34FD31BD3D8D2D0D266D25DD25E
:103B200048D23FD2E6D118D2E0D1CBD192D15AD1EE
:103B300033D145D1EED0DDD0C9D0B1D099D070D03D
:103B400069D05ED053D03CD026D023D020D01DD019
:103B50001AD016D012D00FD00CD009D006D003D076
:103B600000D08A9890D38A888ED38A868CD38A96FE
:103B70008AD38A8488D38A9486D30C0EBA6E83D370
:103B8000BA6A8B9280D3898A7ED3899A7CD38B80C0
:103B90007AD38B9078D3DF2ADF50E76EFD0EDBCF30
:103BA000E9FFFE0EDBCFEAFFE750E926000EEA222E
:103BB000EFCFE0F2E0C2E6FFA4EC28F0E55263D3D9
:103BC000DF2A080EE66EDF50E76EFD0EDBCFE9FF61
:103BD000FE0EDBCFEAFFE750E926000EEA22EF50A7
:103BE000E66E34EC28F0E552E5524DD3080EE66E51
:103BF00004EC28F0E66E34EC28F0E552E55243D3AD
:103C0000080EE66E86EC27F0E552E66ECFEC27F064
:103C1000E55239D3080EE66E86EC27F0E55233D331
:103C2000DF2ADF50E76EFD0EDBCFE9FFFE0EDBCFB4
:103C3000EAFFE750E926000EEA22EF50E66EDF5079
:103C4000E76EFD0EDBCFE9FFFE0EDBCFEAFFE750AC
:103C5000E926000EEA22010EE926000EEA22EF50C4
:103C6000E66E34EC28F0E552E552020EDF260CD366
:103C7000DF2ADF50E76EFD0EDBCFE9FFFE0EDBCF64
:103C8000EAFFE750E926000EEA22EF50E66E04EC68
:103C900028F0E66E34EC28F0E552E552F4D2DF2A43
:103CA000DF50E76EFD0EDBCFE9FFFE0EDBCFEAFF54
:103CB000E750E926000EEA22EF50E66E86EC27F088
:103CC000E552E66ECFEC27F0E552DDD2DF2ADF5079
:103CD000E76EFD0EDBCFE9FFFE0EDBCFEAFFE7501C
:103CE000E926000EEA22EF50E66E86EC27F0E55258
:103CF000CAD2DF2ADF50E76EFD0EDBCFE9FFFE0EF2
:103D0000DBCFEAFFE750E926000EEA22EFCFE1F22F
:103D1000BAD20B0EDB500EE0040EDB06040EDB50B5
:103D200005E10B0EDB6A030EDF26AED2050EDB507B
:103D3000DF6EAAD2010EF36E0B0EF3CFDBFFDF5066
:103D4000E76EFD0EDBCFE9FFFE0EDBCFEAFFE750AB
:103D5000E926000EEA22010EE926000EEA22EF50C3
:103D6000DF5CE76E050EE7CFDBFFDF50E76EFD0E91
:103D7000DBCFE9FFFE0EDBCFEAFFE750E926000EBE
:103D8000EA22020EE926000EEA22040EEFCFDBFF44
:103D9000050EDB50DF6E78D2DF2ADF50E76EFD0EB6
:103DA000DBCFE9FFFE0EDBCFEAFFE750E926000E8E
:103DB000EA22EF50E66E1EEC27F0E55264D2DF2ACD
:103DC000DF50E76EFD0EDBCFE9FFFE0EDBCFEAFF33
:103DD000E750E926000EEA22EF50E66EB4EC24F03C
:103DE000E55251D20001E905EA6A600FE96E000E62
:103DF000EA22010EEFCFDBFFDF50E76EFD0EDBCFD7
:103E0000E9FFFE0EDBCFEAFFE750E926000EEA22CB
:103E1000010EE926000EEA22EF50F36E010EDB5090
:103E2000F35C14E1DF50E76EFD0EDBCFE9FFFE0E21
:103E3000DBCFEAFFE750E926000EEA22020EE92670
:103E4000000EEA22EF50DF24DF6E02D0030EDF26E1
:103E50001BD20001E905EA6A600FE96E000EEA2252
:103E6000010EEFCFDBFF010EDBCF3FF0DF50E76E3F
:103E7000FD0EDBCFE9FFFE0EDBCFEAFFE750E926C0
:103E8000000EEA22010EE926000EEA22EF50D88049
:103E90003F5414E2DF50E76EFD0EDBCFE9FFFE0E6C
:103EA000DBCFEAFFE750E926000EEA22020EE92600
:103EB000000EEA22EF50DF24DF6E02D0030EDF2671
:103EC000E3D1DF50E76EFD0EDBCFE9FFFE0EDBCF67
:103ED000EAFFE750E926000EEA22010EE926000E6D
:103EE000EA22EF50DF24DF6ECFD1FC0EDB50DF6E15
:103EF000CBD1DF2ADF50DF2AE76EFD0EDBCFE9FFF3
:103F0000FE0EDBCFEAFFE750E926000EEA22EF5073
:103F1000406A000F3F6E0F0E4022090E3FC0DBFFCC
:103F20000A0E40C0DBFFDF50DF2AE76EFD0EDBCF5D
:103F3000E9FFFE0EDBCFEAFFE750E926000EEA229A
:103F4000EF50E66E090EDBCFE9FF0A0EDBCFEAFF8A
:103F5000E552E750EF6E98D1DF2ADF50E76EFD0E95
:103F6000DBCFE9FFFE0EDBCFEAFFE750E926000ECC
:103F7000EA22EF50406A000F3F6E0F0E4022090EFA
:103F80003FC0DBFF0A0E40C0DBFF090EDBCFE9FFBD
:103F90000A0EDBCFEAFFEF50E66ECFEC27F0E552DA
:103FA00072D1DF2A45EC25F0E66ECFEC27F0E55222
:103FB0006BD1DF2ADF50DF2AE76EFD0EDBCFE9FF92
:103FC000FE0EDBCFEAFFE750E926000EEA22EF50B3
:103FD000E66EC7EC24F0E55257D1DF2A04EC28F056
:103FE000E66EC7EC24F0E5524FD10C0EDB5016E024
:103FF000070EDB06080E01E2DB06D950070FE96E5B
:10400000DACFEAFFEE50ED1005E10C0EDB6A020E8E
:10401000DF263AD1060EDB50DF6E36D1DF50E76E79
:10402000FD0EDBCFE9FFFE0EDBCFEAFFE750E9260E
:10403000000EEA22010EE926000EEA22EF50DF5CB4
:10404000E76E060EE7CFDBFF04EC28F0E66ED950F2
:10405000070FE96EDACFEAFFE552E750EE6EED6A40
:1040600004EC28F0416E426A286A010E296E41C0B4
:104070002DF042C02EF064EC3CF026C03FF027C08B
:1040800040F0D950070FE96EDACFEAFF3F50EE2635
:104090004050ED22D950070FE96EDACFEAFFEE501B
:1040A000ED1003E1020EDF26EFD0010EF36E0C0ED1
:1040B000F3CFDBFF060EDB50DF6EE6D0C4EC28F05A
:1040C000E66ECFEC27F0E552DED004EC28F0DBD032
:1040D000040EE66E010EE66E34EC28F0E552E55271
:1040E000080EE66EE66A34EC28F0E552E552080E5A
:1040F000E66E3DEC27F0E552E66ECFEC27F0E55298
:10410000080EE66E3DEC27F0E552E66ECFEC27F0A8
:10411000E552B9D0040EE66EE66A34EC28F0E552BA
:10412000E552080EE66EE66A34EC28F0E552E552F8
:10413000080EE66EE66A34EC28F0E552E552080E09
:10414000E66EE66A34EC28F0E552E5529CD0DF2AB0
:10415000040EE66EE66A34EC28F0E552E552080EED
:10416000E66EDF50DF2AE76EFD0EDBCFE9FFFE0EC5
:10417000DBCFEAFFE750E926000EEA22EF50E66EB9
:1041800034EC28F0E552E552080EE66EDF50DF2AE7
:10419000E76EFD0EDBCFE9FFFE0EDBCFEAFFE75057
:1041A000E926000EEA22EF50E66E34EC28F0E552E4
:1041B000E5526AD0DF2A040EE66EE66A34EC28F097
:1041C000E552E552080EE66EDF50DF2AE76EFD0E7F
:1041D000DBCFE9FFFE0EDBCFEAFFE750E926000E5A
:1041E000EA22EF50E66E34EC28F0E552E552080E74
:1041F000E66EDF50DF2AE76EFD0EDBCFE9FFFE0E35
:10420000DBCFEAFFE750E926000EEA22EF50E66E28
:1042100034EC28F0E552E552080EE66EDF50DF2A56
:10422000E76EFD0EDBCFE9FFFE0EDBCFEAFFE750C6
:10423000E926000EEA22EF50E66E34EC28F0E55253
:10424000E55222D0080EE66E3DEC27F0E552E66E10
:10425000CFEC27F0E55217D0DF2ADF50E76EFD0ED6
:10426000DBCFE9FFFE0EDBCFEAFFE750E926000EC9
:10427000EA22EF50E66E3DEC27F0E552E66ECFEC19
:1042800027F0E55200D0DF2A11D4B30E545E549EBD
:104290005446080E5426F9505424D8B0FA2AF96E20
:1042A0006AD270D227D3C6D216D3C7D273D250D215
:1042B0003CD213D2D7D1ACD185D17ED16AD163D1D2
:1042C00057D13FD135D12DD119D10ED104D1FCD048
:1042D000E8D0E4D0E0D0D8D0C2D0AAD081D06ED07F
:1042E00001D035D0DF2A040EE66EE66A34EC28F001
:1042F000E552E552040EE66EDF50E76EFD0EDBCFB1
:10430000E9FFFE0EDBCFEAFFE750E926000EEA22C6
:10431000EF50E66E34EC28F0E552E552080EE66EFA
:1043200004EC28F0E66E34EC28F0E552E552080E75
:10433000E66EE66A34EC28F0E552E552040EE66ECD
:10434000020EE66E34EC28F0E552E5529CD7DF2AE7
:10435000040EE66EE66A34EC28F0E552E552040EEF
:10436000E66EDF50E76EFD0EDBCFE9FFFE0EDBCF22
:10437000EAFFE750E926000EEA22EF50E66E34EC41
:1043800028F0E552E552080EE66E04EC28F0E66EE1
:1043900034EC28F0E552E552080EE66E04EC28F005
:1043A000E66E34EC28F0E552E552040EE66E020E9D
:1043B000E66E34EC28F0E552E55265D7DF2ADF508F
:1043C000E76EFD0EDBCFE9FFFE0EDBCFEAFFE75025
:1043D000E926000EEA22EF50E66EA1DAE55253D745
:1043E000DF2ADF50E76EFD0EDBCFE9FFFE0EDBCFED
:1043F000EAFFE750E926000EEA22EF50E66EDF50B2
:10440000E76EFD0EDBCFE9FFFE0EDBCFEAFFE750E4
:10441000E926000EEA22010EE926000EEA22EF50FC
:10442000E66E6CEC28F0E552E552020EDF262CD742
:10443000DF2ADF50E76EFD0EDBCFE9FFFE0EDBCF9C
:10444000EAFFE750E926000EEA22EF50E66E04ECA0
:1044500028F0E66E6CEC28F0E552E55214D7DF2A1E
:10446000DF50E76EFD0EDBCFE9FFFE0EDBCFEAFF8C
:10447000E750E926000EEA22EFCFE2F2E2C2E6FFC1
:10448000D7EC28F0E552FFD6EBEC28F0E66ECFEC47
:1044900027F0E552F8D6FCEC28F0F5D611EC29F01F
:1044A000F2D6DF2ADF50E76EFD0EDBCFE9FFFE0E0E
:1044B000DBCFEAFFE750E926000EEA22EF50E66E76
:1044C00026EC29F0E552DFD604EC28F0E66E26EC67
:1044D00029F0E552D8D6E66A8FEC29F0E552E66E6F
:1044E000CFEC27F0E552CFD60F0EE66E8FEC29F019
:1044F000E552E66ECFEC27F0E552C5D6DF2ADF5055
:10450000E76EFD0EDBCFE9FFFE0EDBCFEAFFE750E3
:10451000E926000EEA22EF50E66EF6EC29F0E552AD
:10452000B2D604EC28F0E66EF6EC29F0E552ABD6F4
:10453000E66AF6EC29F0E552E66ECFEC27F0E5529C
:10454000A2D6DF2ADF50E76EFD0EDBCFE9FFFE0EBD
:10455000DBCFEAFFE750E926000EEA22EF50E66ED5
:10456000F6EC29F0E552E66ECFEC27F0E5528BD65B
:1045700004EC28F0E66EF6EC29F0E552E66ECFEC9E
:1045800027F0E55280D67ADBE66ECFEC27F0E552D5
:104590007AD6DF2ADF50DF2AE76EFD0EDBCFE9FF98
:1045A000FE0EDBCFEAFFE750E926000EEA22EF50CD
:1045B000E66EDCDAE55268D604EC28F0E66ED6DA70
:1045C000E55261D6CEDB020EF3CFDBFF030EF4CF54
:1045D000DBFFFF0EE76E020EDBCF3FF0030EDBCFFB
:1045E00040F0E7503F16406A3F50E66ECFEC27F0B0
:1045F000E552020EDBCF3FF0030EDBCF40F040C0B0
:104600003FF0406A3F50E66ECFEC27F0E5523BD6D4
:10461000DF2AE66ADF50E76EFD0EDBCFE9FFFE0E14
:10462000DBCFEAFFE750E926000EEA22010EE92679
:10463000000EEA22EF50E66EDF50E76EFD0EDBCF94
:10464000E9FFFE0EDBCFEAFFE750E926000EEA2283
:10465000EF50E66E65EC2AF0E552E552E552020EA7
:10466000DF2612D6DF2ADF50E76EFD0EDBCFE9FF33
:10467000FE0EDBCFEAFFE750E926000EEA22020E2B
:10468000E926000EEA22EF50E66EDF50E76EFD0EDF
:10469000DBCFE9FFFE0EDBCFEAFFE750E926000E95
:1046A000EA22010EE926000EEA22EF50E66EDF5004
:1046B000E76EFD0EDBCFE9FFFE0EDBCFEAFFE75032
:1046C000E926000EEA22EF50E66E65EC2AF0E5528C
:1046D000E552E552030EDF26D7D5DF2ADF50E76E1D
:1046E000FD0EDBCFE9FFFE0EDBCFEAFFE750E92648
:1046F000000EEA22010EE926000EEA22EF50E66ED5
:10470000DF50E76EFD0EDBCFE9FFFE0EDBCFEAFFE9
:10471000E750E926000EEA22EF50E66EBAEC2BF0E5
:10472000E552E552020EDF26AFD5DF2ADF50E76EF5
:10473000FD0EDBCFE9FFFE0EDBCFEAFFE750E926F7
:10474000000EEA22EF50E66EFEEC2BF0E5529BD510
:10475000DF2ADF50E76EFD0EDBCFE9FFFE0EDBCF79
:10476000EAFFE750E926000EEA22EF50E66E1FEC62
:104770002CF0E55288D5E66AE66A82EC2DF0E55227
:10478000E55281D5010EE66EE66A82EC2DF0E55227
:10479000E55279D5DF2A010EE66EDF50E76EFD0E99
:1047A000DBCFE9FFFE0EDBCFEAFFE750E926000E84
:1047B000EA22EF50E66EDF50E76EFD0EDBCFE9FF39
:1047C000FE0EDBCFEAFFE750E926000EEA22010EDB
:1047D000E926000EEA22EF50E66EDF50E76EFD0E8E
:1047E000DBCFE9FFFE0EDBCFEAFFE750E926000E44
:1047F000EA22020EE926000EEA22EF50E66EDF50B2
:10480000E76EFD0EDBCFE9FFFE0EDBCFEAFFE750E0
:10481000E926000EEA22030EE926000EEA22EF50F6
:10482000E66E4FEC2CF03F6E050EE15E3F50040E3D
:10483000DF262AD531EC2DF026D5DF2ADF50E76EB2
:10484000FD0EDBCFE9FFFE0EDBCFEAFFE750E926E6
:10485000000EEA22EF50E66EDF50E76EFD0EDBCF72
:10486000E9FFFE0EDBCFEAFFE750E926000EEA2261
:10487000010EE926000EEA22EF50E66EDF50E76EE9
:10488000FD0EDBCFE9FFFE0EDBCFEAFFE750E926A6
:10489000000EEA22020EE926000EEA22EF50E66E32
:1048A000DF50E76EFD0EDBCFE9FFFE0EDBCFEAFF48
:1048B000E750E926000EEA22030EE926000EEA225E
:1048C000EF50E66EE0EC2CF0E552E552E552E55291
:1048D000040EDF26D9D498DBE66E96DBE66E94DB19
:1048E000E66E92DBE66EE0EC2CF0E552E552E55226
:1048F000E552C9D4010EE66E010EE66E82EC2DF093
:10490000E552E552C0D456EF1DF00D0EE15C02E217
:10491000E16AE552E16EE552E7CFD9FF1200D9CF47
:10492000E6FFE1CFD9FF0201E351E32BEA6A000F72
:10493000E96E010EEA22FE0EDBCFEFFF0201E3512A
:104940003F6E406AD890405004E6000E3F5C010E76
:10495000405802E30201E36B0201E52B000EE6235F
:10496000E552E7CFD9FF1200D9CFE6FFE1CFD9FF5B
:10497000F294FE0EDB50FF0DF350D76ED66AD58E43
:10498000F2A4FED7D59EE552E7CFD9FF1200D9CFCA
:10499000E6FFE1CFD9FFF29ECD90A40ED76E730E45
:1049A000D66EF294D58E8050080B04E1F250040BC1
:1049B00001E1F9D7F2B45DD089949294600EE66E6D
:1049C000B1EC3EF0E55289848050080B04E0F250CF
:1049D000040B01E1F9D7F2B44CD0FE0EDB50546E5B
:1049E000F2B646D080A6FCD7899454BE898480B69E
:1049F000FED7F2B63DD080A6FCD7899454BC8984FA
:104A000080B6FED7F2B634D080A6FCD7899454BACB
:104A1000898480B6FED7F2B62BD080A6FCD78994C5
:104A200054B8898480B6FED7F2B622D080A6FCD7CF
:104A3000899454B6898480B6FED7F2B619D080A680
:104A4000FCD7899454B4898480B6FED7F2B610D0CE
:104A500080A6FCD7899454B2898480B6FED7F2B67A
:104A600007D080A6FCD7899454B0898480B6FED73D
:104A70000000F2A402D00001E885D59EF28ECD8020
:104A800000D0E552E7CFD9FF1200CD90F29EA40EE0
:104A9000D76E730ED66EF294D58E8050080B04E15B
:104AA000F250040B01E1F9D7F2B454D089949294F6
:104AB000600EE66EB1EC3EF0E55289848050080B42
:104AC00004E0F250040B01E1F9D79284F2B442D031
:104AD000546AF2B63ED080A6FCD780B6FED780B42A
:104AE000548EF2B636D080A6FCD780B6FED780B4FE
:104AF000548CF2B62ED080A6FCD780B6FED780B4F8
:104B0000548AF2B626D080A6FCD780B6FED780B4F1
:104B10005488F2B61ED080A6FCD780B6FED780B4EB
:104B20005486F2B616D080A6FCD780B6FED780B4E5
:104B30005484F2B60ED080A6FCD780B6FED780B4DF
:104B40005482F2B606D080A6FCD780B6FED780B4D9
:104B50005480000089849294F2A402D00001E88578
:104B6000D59EF28ECD80545000D01200D9CFE6FFF2
:104B7000E1CFD9FFF29ECD90A40ED76E730ED66E04
:104B8000F294D58E92848050040B04E0F250040B12
:104B900001E1F9D7F2B45FD092968986600EE66E95
:104BA000B1EC3EF0E55289968050040B04E1F250DE
:104BB000040B01E1F9D792869294F2B44CD0FE0E28
:104BC000DB50546EF2B646D080A6FCD7899454BE12
:104BD000898480B6FED7F2B63DD080A6FCD78994F2
:104BE00054BC898480B6FED7F2B634D080A6FCD7F8
:104BF000899454BA898480B6FED7F2B62BD080A6A9
:104C0000FCD7899454B8898480B6FED7F2B622D0F6
:104C100080A6FCD7899454B6898480B6FED7F2B6B4
:104C200019D080A6FCD7899454B4898480B6FED765
:104C3000F2B610D080A6FCD7899454B2898480B68D
:104C4000FED7F2B607D080A6FCD7899454B08984E9
:104C500080B6FED70000F2A402D00001E885600E05
:104C6000E66EB1EC3EF0E552D59EF28ECD80928498
:104C7000929600D0E552E7CFD9FF1200CD90F29E78
:104C8000A40ED76E730ED66EF294D58E9284805099
:104C9000040B04E0F250040B01E1F9D7F2B455D053
:104CA00092968986600EE66EB1EC3EF0E5528996EA
:104CB0008050040B04E1F250040B01E1F9D7928417
:104CC0009286F2B442D0546AF2B63ED080A6FCD7A7
:104CD00080B6FED780B4548EF2B636D080A6FCD70C
:104CE00080B6FED780B4548CF2B62ED080A6FCD706
:104CF00080B6FED780B4548AF2B626D080A6FCD700
:104D000080B6FED780B45488F2B61ED080A6FCD7F9
:104D100080B6FED780B45486F2B616D080A6FCD7F3
:104D200080B6FED780B45484F2B60ED080A6FCD7ED
:104D300080B6FED780B45482F2B606D080A6FCD7E7
:104D400080B6FED780B454800000F2A402D00001E7
:104D5000E885D59E92849296F28ECD80545000D0F4
:104D60001200D9CFE6FFE1CFD9FF030EE126DF6ABB
:104D7000F294800ED76ED66AD58EF2AE02D0010EB6
:104D8000DF6EF29E80A40AD0F2A407D0D59EDF0485
:104D900001E1F28EF36AF46A47D0F4D780B40AD006
:104DA000F2A407D0D59EDF0401E1F28EF36AF46A23
:104DB0003BD0F4D7800ED76ED66AF29480A40AD086
:104DC000F2A407D0D59EDF0401E1F28EF368F46807
:104DD0002BD0F4D7D59EDF0401E1F28ED650E66EDB
:104DE000D950010FE96EDACFEAFFE552E750EE6ED7
:104DF000ED6A7F0ED7143F6E406A3FC040F03F6AB5
:104E0000D950010FE96EDACFEAFF3F50EE2640504D
:104E1000ED22010EDBCF3FF0020EDBCF40F03FC0B2
:104E2000F3FF40C0F4FF00D0030EE15C02E2E16A50
:104E3000E552E16EE552E7CFD9FF1200D9CFE6FF88
:104E4000E1CFD9FFF294D768080EE66EBFEC3EF0D2
:104E5000E552FE0EDB0402E10CD002D0FE0EDB06B2
:104E6000FE0EDB50FF0DF350D66ED58EF2A4FED7AA
:104E7000D59EE552E7CFD9FF1200D9CFE6FFE1CFAB
:104E8000D9FFE6529284546AFE0EDB50556E020E34
:104E90000201E15D0CE280B45480898600000000CC
:104EA0000000899600005442552EF5D718D0020113
:104EB000E105566E565080B454808986000000008B
:104EC000000000000000E82EFBD789965650000035
:104ED00000000000E82EFBD75442552EEBD7FE0E03
:104EE000DBCFE6FF080EE552D880E754070B04E05D
:104EF0005442549EE806FCE10201E0A3929454500F
:104F000000D0E552E552E7CFD9FF1200D9CFE6FF36
:104F1000E1CFD9FFE6529284546AFE0EDB50556E03
:104F2000020E0201E15D0CE2898600000000000033
:104F300080B45480899600005442552EF5D718D07D
:104F40000201E105566E89860000000056500000FF
:104F500000000000E82EFBD780B45480899656509C
:104F6000000000000000E82EFBD75442552EEBD77E
:104F7000FE0EDBCFE6FF080EE552D880E754070BA4
:104F800004E05442549EE806FCE10201E0A392943E
:104F9000545000D0E552E552E7CFD9FF1200D9CFE7
:104FA000E6FFE1CFD9FF010E0001406AEB253F6E1D
:104FB000EC514022800ED8803F54000E405403E252
:104FC0000001E8871DD00001E951E92BEA6A600F72
:104FD000E96E000EEA22FE0EDBCFEFFF0001E95181
:104FE0003F6E406AD890405004E6800E3F5C000E51
:104FF000405802E30001E96B0001EB2B000EEC23AB
:10500000E552E7CFD9FF1200D9CFE6FFE1CFD9FFB4
:10501000E6520201E551E61104E10001E889000EC3
:105020001ED00201E451E42BEA6A000FE96E010E82
:10503000EA22EFCFDFFF0201E507000EE65B020187
:10504000E4513F6E406AD890405004E6000E3F5C49
:10505000010E405802E30201E46BDF5000D0E5523C
:10506000E552E7CFD9FF1200D9CFE6FFE1CFD9FF54
:10507000E652FE0EDB50546EFD0EDB50556E020EF6
:105080000201E15D0CE254A0899454B089840000CF
:105090008986000089965442552EF5D718D0020112
:1050A000E105566E54A0899454B08984565000008E
:1050B00000000000E82EFBD7898656500000000053
:1050C0000000E82EFBD789965442552EEBD7E552C7
:1050D000E552E7CFD9FF1200D9CFE6FFE1CFD9FFE4
:1050E000E652FE0EDB50546EFD0EDB50556E020E86
:1050F0000201E15D0CE254A0899454B08984898650
:105100000000899600005442552EF5D718D00201B0
:10511000E105566E54A0899454B08984565089860E
:10512000000000000000E82EFBD7899656500000D2
:1051300000000000E82EFBD75442552EEBD7E55275
:10514000E552E7CFD9FF1200D9CFE6FFE1CFD9FF73
:10515000FE0EDBA402D0898601D08996FE0EDBA666
:1051600002D0898401D08994FE0EDBA002D0928601
:1051700001D09296FE0EDBA202D0928401D09294CE
:10518000E552E7CFD9FF1200D9CFE6FFE1CFD9FF33
:10519000E652DF6A80B4DF8280A602D0000EDB8098
:1051A000DF5000D0E552E552E7CFD9FF1200D9CF4A
:1051B000E6FFE1CFD9FFFE0EDBA202D0898801D045
:1051C0008998FE0EDBA002D0928801D09298E55219
:1051D000E7CFD9FF1200D9CFE6FFE1CFD9FFE652E2
:1051E000DF6A80A802D0000EDB80DF5000D0E552DD
:1051F000E552E7CFD9FF12008986060EE66EBFECB6
:105200003EF0E55289989298060EE66EBFEC3EF0AD
:10521000E5528996060EE66EBFEC3EF0E5529288A6
:1052200012008996060EE66EBFEC3EF0E5528998B4
:105230009298060EE66EBFEC3EF0E5528986060EA9
:10524000E66EBFEC3EF0E55292881200D9CFE6FF41
:10525000E1CFD9FFFE0EDB50546E080E556E8998D3
:10526000020E0201E15D23E254AE929854BE928890
:1052700000D000D000D08986000000D000D000D03F
:1052800000D08996000000D000D05446552EECD7AF
:10529000928800D000D000D000D000D089860000D5
:1052A00000D000D000D080B8558089962FD0020160
:1052B000E151E824FF0F566E54AE929854BE928886
:1052C0005650000000D000D000D0E82EFAD78986D2
:1052D000565000D000D000D0E82EFDD789960000AF
:1052E0005446552EE9D79288565000D000D0000081
:1052F00000D000D000D0E82EFAD78986565000D0D2
:1053000000D0E82EFDD780B855808996555000080A
:1053100002E20001E885E552E7CFD9FF1200D9CFBC
:10532000E6FFE1CFD9FF546A080E556E010E566EA6
:105330009288020E0201E15D14E2544600D000D0D2
:1053400000D000D00000898600D000D000D000003E
:1053500080B85480899600D000D000D0552EEDD76B
:1053600025D00201E151E824FF0F566E544600009B
:1053700000D0565000D000D000D00000E82EFAD760
:105380008986565000D000D0E82EFDD780B85480D2
:10539000899600D0552EEAD70000565000D000D094
:1053A00000D000D000D00000E82EFAD78998FE0E79
:1053B000DB5001E19298565000D000D000D000D0D0
:1053C00000D00000E82EFAD78986565000D000D0D1
:1053D000E82EFDD700D0899600D00000000092880A
:1053E000545000D0E552E7CFD9FF1200D9CFE6FFE5
:1053F000E1CFD9FFE652FE0EDB50546E080E556E1B
:10540000020E0201E15D0DE254AE899854BE898816
:1054100089865446549080B454808996552EF4D78A
:105420001BD00201E105566E54AE899854BE89889E
:105430005650000000000000E82EFBD78986544635
:10544000549080B454805650000000000000E82EB4
:10545000FBD78996552EE8D78998545000D0E5524D
:10546000E552E7CFD9FF1200D9CFE6FFE1CFD9FF50
:10547000E652DF6AFE0EDB50A96EFD0EDB50A86E11
:10548000A66AA684F2AE02D0010EDF6EF29E550E21
:10549000A76EAA0EA76EA682DF0401E1F28EA6B265
:1054A000FED7E552E552E7CFD9FF1200D9CFE6FF8C
:1054B000E1CFD9FFFE0EDB50A96EA66AA680A850E8
:1054C00000D0E552E7CFD9FF1200D9CFE6FFE1CFF8
:1054D000D9FF040EE126DF6A010EDB6A0201E15109
:1054E000010808E2120E566E0F0EF36E030EF3CF94
:1054F000DBFF07D0C60E566E030EF36E030EF3CF1E
:10550000DBFF89889298180EE66EBFEC3EF0E552FC
:10551000020E3F6EFD0EDBCFE7FF3F50E726FD0E8C
:10552000E7CFDBFF480ED56E550E546E8998D66ACC
:10553000F294D58EF2AE02D0010EDF6EF29EFD0E19
:10554000DB06020EDB6A020EDBCF3FF0080EE76ED1
:105550003F18E8AE02D0E73402D0E7503F5C21E2CA
:105560008950EF0B54AE1009F2A4FED7896E565045
:10557000D6269298F294549E54468950556EFD0E4C
:10558000DB5005E1FC0EDB5002E1558801D0559857
:10559000F2A4FED789785650D626F294020EDB2A62
:1055A000D2D75550F2A4FED7896E5650D626F29423
:1055B000010EDB5007E0FD0EDB50000803E224DDA6
:1055C000546E03D0FE0EDB50546EF2A4FED78978E1
:1055D0005650D626F294F2A4FED792885650D6267C
:1055E000F294030EDBCFE6FFBFEC3EF0E552010E76
:1055F000DB5009E08050100B06E00001E885FD0E4D
:10560000DB6AFC0EDB6AF2A4FED700005650D626F9
:10561000F294030EDBCFE6FFBFEC3EF0E552010E45
:10562000DB5009E08050100B06E10001E885FD0E1B
:10563000DB6AFC0EDB6ADE52010EDD6EFD0EDB5016
:10564000000801E27CD7FC0EDBCFF3FFDB06F35052
:10565000000801E37FD0546A020EDB6A020EDBCF42
:105660003FF0080EE76E3F18E8AE02D0E73402D0F4
:10567000E7503F5C30E2F2A4FED70000D66AF29415
:105680008950556EFC0EDB5002E1558801D05598CB
:10569000030EDB04E66EBFEC3EF0E55280B807D0A7
:1056A000F2B402D080A8FCD75650D66E06D0F2B421
:1056B00002D080B8FCD75650D66EF294030EDBCFE2
:1056C000E6FFBFEC3EF0E552549E544680B8542AA3
:1056D000020EDB2AC3D75550F2A4FED7896E56506E
:1056E000D6269298F2945450E66E59DCE552F2A414
:1056F000FED789785650D626F294F2A4FED7928827
:105700005650D626F294030EDBCFE6FFBFEC3EF0F8
:10571000E552010EDB5007E08050100B04E0000161
:10572000E885FC0EDB6AF2A4FED700005650D626B0
:10573000F294030EDBCFE6FFBFEC3EF0E552010E24
:10574000DB5007E08050100B04E10001E885FC0EFF
:10575000DB6A79D7DF0401E1F28E070ED56E9288FD
:10576000040EE15C02E2E16AE552E16EE552E7CF48
:10577000D9FF1200D9CFE6FFE1CFD9FFE652FE0EE6
:10578000DB5001E10FD0546AFD0EDB50556EDF6A2D
:10579000FE0EDB50DF5C06E248EC38F055905542D7
:1057A000DF2AF6D7E552E552E7CFD9FF1200D9CF6D
:1057B000E6FFE1CFD9FFE652FE0EDB5002E1000E1C
:1057C00018D0FD0EDB50546EFC0EDB50556E566A41
:1057D000DF6AFE0EDB50DF5C0AE25690564248EC70
:1057E00038F05490544255905542DF2AF2D7565023
:1057F00000D0E552E552E7CFD9FF1200D9CFE6FF3E
:10580000E1CFD9FF030EE66E040EE66EB3DFE5527C
:10581000E552100EE66EFE0EDBCFE6FF050EE66EDD
:10582000C6DFE552E552E552010EE66E020EE66E67
:10583000A1DFE552E552E552E7CFD9FF1200D9CFFB
:10584000E6FFE1CFD9FFE652DF6A010EE66E030EF6
:10585000E66E90DFE552E55256AE02D0010EDF6EE5
:10586000800EE66EFE0EDBCFE6FF080EE66E9FDFD3
:10587000E552E552E5525650E824DF12DFCFE6FF4D
:10588000CFEC27F0E552010EE66E020EE66E72DFF7
:10589000E552E552E552E552E7CFD9FF1200D9CFE4
:1058A000E6FFE1CFD9FF020EE126DF6A010EDB6AD7
:1058B000010EE66E030EE66E5DDFE552E55256AE72
:1058C00002D0010EDF6EE66AFB0EDBCFE6FF080EAC
:1058D000E66E6DDFE552E552E5525650E824DF12E0
:1058E000FA0EDB5005E0DFCFE6FFCFEC27F0E55204
:1058F000DF6A56AE02D0010EDF6EE66AFC0EDBCF29
:10590000E6FF080EE66E53DFE552E552E5525650CB
:10591000E824DF12FA0EDB5005E0DFCFE6FFCFEC24
:1059200027F0E552DF6A56AE02D0010EDF6EE66A5E
:10593000FD0EDBCFE6FF080EE66E39DFE552E552DD
:10594000E5525650E824DF12FA0EDB5005E0DFCFB7
:10595000E6FFCFEC27F0E552010EDFCFDBFFDF6A79
:1059600056AE02D0010EDF6E800EE66EFE0EDBCF6D
:10597000E6FF080EE66E1BDFE552E552E552565093
:10598000E824DF12FA0EDB5005E0DFCFE6FFCFECB4
:1059900027F0E552010EE66E020EE66EEBDEE552F2
:1059A000E552010EDB5000D03F6E020EE15C02E2D8
:1059B000E16AE552E16E3F50E552E7CFD9FF1200B0
:1059C000D9CFE6FFE1CFD9FF010EE66E030EE66EFA
:1059D000D1DEE552E55256BE0AD01F0EE66E050E28
:1059E000E66EC8DEE552E5520001E88536D0E66A8B
:1059F000010EE66EBFDEE552E552E66AFB0EDBCF36
:105A0000E6FF080EE66ED3DEE552E552E552E66AA1
:105A1000FC0EDBCFE6FF080EE66EC9DEE552E5526E
:105A2000E552E66AFD0EDBCFE6FF080EE66EBFDE4E
:105A3000E552E552E552800EE66EFE0EDBCFE6FF44
:105A4000080EE66EB4DEE552E552E552010EE66E52
:105A5000020EE66E8FDEE552E552E552E7CFD9FF42
:105A60001200D9CFE6FFE1CFD9FFE652D76AD66A56
:105A7000F294D58E0A0EE66EC1DEE552E66AE66A5B
:105A8000D00EE66E040EE66EE66A09DF3F6E050E86
:105A9000E15E3F50DF6E040EDF1403E1F250040BB1
:105AA000EDE0F2A404D00001E885D59E26D0090ED1
:105AB000E66EA4DEE552E66A04EC28F0E66E04EC3D
:105AC00028F0E66E04EC28F0E66E04EC28F0E66EB2
:105AD000E6DE3F6E050EE15E3F500A0EE66E8EDE9C
:105AE000E552E66AE66AC00EE66EE66AE66AD7DE68
:105AF0003F6E050EE15E3F50D59EE552E552E7CF81
:105B0000D9FF1200D9CFE6FFE1CFD9FFE652D76A1D
:105B1000D66AF294D58E0A0EE66E70DEE552E66A1B
:105B2000E66AD00EE66E040EE66EE66AB8DE3F6EFA
:105B3000050EE15E3F50DF6E040EDF1403E1F2500C
:105B4000040BEDE0F2A404D00001E885D59E23D03B
:105B5000090EE66E53DEE552FE0EDBCFE6FFE66A87
:105B6000E66AE66AE66A9BDE3F6E050EE15E3F503E
:105B7000FD0EDB500FE00A0EE66E40DEE552E66AEF
:105B8000E66AC00EE66EE66AE66A89DE3F6E050EDC
:105B9000E15E3F50D59EE552E552E7CFD9FF1200B6
:105BA000D9CFE6FFE1CFD9FF020EE126F29EB2EC9B
:105BB0003BF0928492869288D9EC19F08B80E95060
:105BC000DF6E010EEACFDBFF5F5002E05F6A02D0BA
:105BD00058505F6E5EEC38F05E50000803E2E6EC71
:105BE00038F007D05F5003E0ABEC38F002D070EC37
:105BF00038F0DF50E96E010EDB50EA6E8B909DECC1
:105C00003BF0F28E54C040F255C041F205EC11F069
:105C1000020EE15C02E2E16AE552E16EE552E7CF95
:105C2000D9FF12000100967D0000F4000000020080
:105C30000000D9CFE6FFE1CFD9FFE6520401B06BF7
:105C40000401B16BB26B396AC56AC76A280EC66EA9
:105C50001F0EC86EC584C5B4FED7E552E552E7CF26
:105C6000D9FF1200D9CFE6FFE1CFD9FFE6528B9CD6
:105C700067D80401B06B9E960401B051B02BEA6A5C
:105C8000C00FE96E040EEA22EF50C96E9EA6FED741
:105C9000C5BCC584400E0401B05DEDE3C584C5B448
:105CA000FED7060EE66E8CEC3EF0E5520401B06BBA
:105CB0000401B12B000EB2238B8CE552E552E7CFE5
:105CC000D9FF1200D9CFE6FFE1CFD9FFE65238D88D
:105CD0000109DF6EC582C5B2FED79E96DF50C96E40
:105CE0009EA6FED7C5BCC5840401B06B9E96C58632
:105CF0009EA6FED70401B051B02BEA6AC00FE96E30
:105D0000040EEA22C9CFEFFF400E0401B05D02E1AC
:105D1000C58A01D0C59AC588C5B8FED7400E040112
:105D2000B05DE4E3C584C5B4FED70401B06B0401E3
:105D3000B12B000EB223E552E552E7CFD9FF120096
:105D4000D9CFE6FFE1CFD9FF020EE126DE52A00E49
:105D5000DD6E3D5007E10401B251040B02E0010E7B
:105D6000DB820CD00401B251080B02E0010EDB8291
:105D70000401B251040B02E0010EDB86C580C5B000
:105D8000FED79E96010EDB50C96EB1C43FF0B2C47F
:105D900040F0D89040323F32D89040323F323F50AE
:105DA000DF6E9EA6FED7C5BCC5849E96DF50C96E29
:105DB000B1C43FF0B2C440F0060ED8903F36403632
:105DC000E804FBE13F50DF6E9EA6FED7C5BCC5844C
:105DD0009E96DF50C96E9EA6FED7C5BCC584010E37
:105DE000DB5000D03F6E020EE15C02E2E16AE55258
:105DF000E16E3F50E552E7CFD9FF1200D9CFE6FF61
:105E0000E1CFD9FF0401B051B02BEA6AC00FE96EAF
:105E1000040EEA22FE0EDBCFEFFF0401B0513F0873
:105E200001E220DFE552E7CFD9FF12000401B051B3
:105E30003F0803E247DF0401B06B0401B051B02B0F
:105E4000EA6AC00FE96E040EEA22EF5000D0120099
:105E5000D9CFE6FFE1CFD9FF3E6AFE0EDBCFE6FFEA
:105E600015D8E55200090EE0FE0EDB50030FEA6A7A
:105E7000000FE96E020EEA22EF503D6E010E3E6EFB
:105E8000D8DE8B80E552E7CFD9FF1200D9CFE6FFED
:105E9000E1CFD9FFFE0EDBCFF3FFDB2AF350EA6A36
:105EA000000FE96E020EEA22EF50500802E0000EE9
:105EB00020D0FE0EDBCFF3FFDB2AF350EA6A000F9F
:105EC000E96E020EEA22EF504B0802E0000E11D0FC
:105ED000FE0EDBCFF3FFDB2AF350EA6A000FE96E18
:105EE000020EEA22EF50320802E0000E02D0010E4C
:105EF00000D0E552E7CFD9FF1200AD0EE66E7EDF8F
:105F0000E5520401B0510008F8E33E6A8B9012009C
:105F1000D9CFE6FFE1CFD9FF020EE126DF6A010EFD
:105F2000DB6ADF50EA6A000FE96E020EEA22EF50E8
:105F3000840A01E14ED1210A01E129D1270A01E1B8
:105F400026D1010A01E123D1040A01E120D1070A87
:105F500001E11DD1010A01E11AD1230A01E115D1A4
:105F6000010A01E112D10D0A01E10FD1010A01E19B
:105F70000CD1080A01E1FDD00E0A01E1FAD0030AB2
:105F800001E1F7D0010A01E1F4D0070A01E1F1D003
:105F9000290A01E1EED0030A01E1EBD02E0A01E16A
:105FA000BCD00E0A01E18DD0020A54E0140A4FE081
:105FB000100A20E0010A1EE0130A19E0030A0CE0AF
:105FC000070A06E01B0A01E03CD1400EDF6E3AD121
:105FD000400EDF6E92DF36D1020EDF26DF50EA6A16
:105FE000000FE96E020EEA22EF28DF262BD1030E06
:105FF000DF2628D1DF50DF2AEA6A000FE96E020EA1
:10600000EA22EF50E66EFADEE552DF50DF2AEA6A56
:10601000000FE96E020EEA22EF50E66EEFDEE55267
:10602000DF50DF2AEA6A000FE96E020EEA22EF5023
:10603000E66EE4DEE552DF50DF2AEA6A000FE96E21
:10604000020EEA22EF50E66ED9DEE552FBD0050ED5
:10605000DF26F8D0DF50DF2AEA6A000FE96E020E71
:10606000EA22EF50E66ECADEE552DF50DF2AEA6A26
:10607000000FE96E020EEA22EF50E66EBFDEE55237
:10608000DF50DF2AEA6A000FE96E020EEA22010EF3
:10609000EFCFDBFF010EDBCFE6FFB0DEE552DF50D6
:1060A000DF2AEA6A000FE96E020EEA22EF50E66E7E
:1060B000A5DEE552010EDB06010EDB500008EFE322
:1060C000C1D0DF50DF2AEA6A000FE96E020EEA2231
:1060D000EF50E66E93DEE552DF50DF2AEA6A000FEA
:1060E000E96E020EEA22010EEFCFDBFF010EDBCFDD
:1060F000E6FF84DEE552DF50DF2AEA6A000FE96E30
:10610000020EEA22EF50E66E79DEE552010EDB0662
:10611000010EDB500008EFE395D0DF50DF2AEA6A7A
:10612000000FE96E020EEA22EF50E66E67DEE552DE
:10613000DF50DF2AEA6A000FE96E020EEA22010E42
:10614000EFCFDBFF010EDBCFE6FF58DEE552DF507D
:10615000DF2AEA6A000FE96E020EEA22EF50E66ECD
:106160004DDEE552010EDB06010EDB500008EFE3C9
:1061700069D0DF50DF2AEA6A000FE96E020EEA22D8
:10618000EF50E66E3BDEE5525DD0DF2A5BD0DF509C
:10619000DF2AEA6A000FE96E020EEA22EF50E66E8D
:1061A0002DDEE552DF50DF2AEA6A000FE96E020EAB
:1061B000EA22EF50E66E22DEE552DF50DF2AEA6A7D
:1061C000000FE96E020EEA22EF50E66E17DEE5528E
:1061D00039D0DF50DF2AEA6A000FE96E020EEA22A8
:1061E000EF50E66E0BDEE552DF50DF2AEA6A000F61
:1061F000E96E020EEA22EF50E66E00DEE552DF5055
:10620000DF2AEA6A000FE96E020EEA22EF50E66E1C
:10621000F5DDE552DF50DF2AEA6A000FE96E020E73
:10622000EA22EF50E66EEADDE552DF50DF2AEA6A45
:10623000000FE96E020EEA22EF50E66EDFDDE55256
:1062400001D0DF2A400EDF5C01E26BD6020EE15C7A
:1062500002E2E16AE552E16EE552E7CFD9FF1200B2
:10626000D9CFE6FFE1CFD9FF020EE126E2DC04013F
:10627000400EB06FDBDDDF6EDF50AB0A01E1D1D045
:10628000070A01E1CCD0060A01E1C9D0030A01E105
:10629000C3D0010A01E1BDD00F0A01E1B7D0010A64
:1062A00001E19CD0030A01E18AD0010A01E185D015
:1062B000050A6BE0010A53E0FA0A50E0DC0A4CE000
:1062C000030A48E0010A36E0070A2BE0040A25E049
:1062D000050A21E0030A11E0010A01E0A5D0A6DDCC
:1062E000E76E010EE7CFDBFFA1DDE66E010EDBCF2F
:1062F000E6FF60D9E552E55299D098DDE76E010ED0
:10630000E7CFDBFF93DDE66E010EDBCFE6FFB0D912
:10631000E552E5528BD0366A376A88DD386E86DD05
:1063200085D0361C366E371C376E80DD361A7EDD22
:10633000371A7CD07BDD586E79DD596E77DD5A6E69
:1063400075DD5B6E81D8000904E1010E396EAD0E7A
:10635000DF6E6CD003D96AD021D968D067D066DDF2
:10636000E76E010EE7CFDBFF010EDBCFE6FF5EDD60
:10637000E66E01EC16F0E552E55258DDE66E26ECCD
:1063800017F0E5520201FA6F51D050DD0001E06FC5
:106390004DDDE66E26EC17F0E552010F0001E16FCE
:1063A000020E0001E15D0001E26F40DDE66E26ECC9
:1063B00017F0E5520201FB6F39D0B6D937D036DD80
:1063C000E76E010EE7CFDBFF31DDE66E010EDBCFBE
:1063D000E6FF88EC19F0E552E55228D027DDE76E9C
:1063E000010EE7CFDBFF010EDBCFE6FFECEC35F073
:1063F000E552010EDBCFE6FF000EE66E020EE66E02
:106400003DEC1DF0E552E552E55210D0BBEC17F023
:106410000DD009EC36F00AD0B3EC17F007D04ED807
:1064200005D0D9EC19F002D0AD0EDF6EAD0EDF5CF9
:1064300001E020D7020EE15C02E2E16AE552E16E82
:10644000E552E7CFD9FF1200010EE66EE66A88EC4E
:1064500019F0E552E552B3EC17F0010EE66E020EAC
:10646000E66E88EC19F0E552E552010EE66E010E7B
:10647000E66E88EC19F0E552E5520001EA51EA2B8C
:10648000EA6A600FE96E000EEA22EF50581600012A
:10649000EA51EA2BEA6A600FE96E000EEA22EF5039
:1064A0005916B3EC17F05A50585C05E15B50595C33
:1064B00002E1010E02D0000E00D01200D9CFE6FF9B
:1064C000E1CFD9FF040EE126360EDE6E000EDD6E42
:1064D000020EDB6A020EDBCF3FF00001EB513F5CA6
:1064E000000EEC552FE20001EA51EA2BEA6A600F38
:1064F000E96E000EEA22030EEFCFDBFF385013E007
:10650000020EDBA00ED038A003D0030EDB9E08D015
:10651000030EDB92DB94DB96DB98DB9ADB9CDB9E45
:1065200002D0030EDB90030EDB503F6E406ADECFDD
:10653000E9FFDDCFEAFF3F50EE264050ED22020E8C
:10654000DB2AC8D7B3EC17F0040EE15C02E2E16A83
:10655000E552E16EE552E7CFD9FF1200B3EC17F038
:10656000010EE66EE66A88EC19F0E552E552010E7E
:10657000E66E0D0EE66E88EC19F0E552E552010E5E
:10658000E66E010EE66E88EC19F0E552E552600EFB
:10659000000161153A6EB3EC17F012003A50010198
:1065A0000113010EE66E0F0EE66E88EC19F0E5524F
:1065B000E5521200D9CFE6FFE1CFD9FFBBEC17F0CF
:1065C000B3EC17F00201E351E32BEA6A000FE96E26
:1065D000010EEA22FE0EDBCFEFFF0201E351E32BB7
:1065E000EA6A000FE96E010EEA22FD0EDBCFEFFF33
:1065F0000201E351E32BEA6A000FE96E010EEA2281
:10660000EF6A030E0201E527000E0201E623010EE8
:10661000E66EE66A88EC19F0E552E552010EE66E88
:10662000140EE66E88EC19F0E552E552010EE66EA6
:10663000010EE66E88EC19F0E552E5520001EA51D0
:10664000EA2BEA6A600FE96E000EEA22EF50346E20
:106650000001EA51EA2BEA6A600FE96E000EEA22B5
:10666000EF50356EB3EC17F0E552E7CFD9FF1200CB
:10667000D9CFE6FFE1CFD9FFBBEC17F0B3EC17F0B1
:106680000201E351E32BEA6A000FE96E010EEA22F0
:10669000FE0EDBCFEFFF0201E351E32BEA6A000FAE
:1066A000E96E010EEA22FD0EDBCFEFFF0201E3519E
:1066B000E32BEA6A000FE96E010EEA22EF6A02019B
:1066C000E351E32BEA6A000FE96E010EEA2234C0BF
:1066D000EFFF0201E351E32BEA6A000FE96E010EBE
:1066E000EA2235C0EFFF050E0201E527000E020188
:1066F000E623010EE66EE66A88EC19F0E552E552F3
:10670000010EE66E150EE66E88EC19F0E552E552C4
:10671000010EE66E010EE66E88EC19F0E552E552C8
:10672000E552E7CFD9FF1200D9CFE6FFE1CFD9FF7D
:106730000A0EE12616EC2FF0E66ED950060FE96E30
:10674000DACFEAFFE552E750EE6EED6A16EC2FF075
:10675000E66ED950040FE96EDACFEAFFE552E75052
:10676000EE6EED6A040EDBCF28F0050EDBCF29F0CC
:10677000080E28C0DBFF090E29C0DBFF040EDBCFAB
:106780003FF0050EDBCF40F0403404E23F503D08BF
:10679000000E405403E20001E88D14D2020EDB6AC1
:1067A000030EDB6ADE6ADD6ADECF3FF0DDCF40F04C
:1067B000D890405004E6200E3F5C000E405823E283
:1067C000DECFE9FFDDCFEAFF030EEA02F3CFEAFFF7
:1067D000030EE902F3CFE9FFF450EA26800EE92622
:1067E000020EEA22EF503F6E406AD950020FE96E66
:1067F000DACFEAFF3F50EE264050ED22DF2A010EAD
:1068000001E3DB2AD1D7060EDBCFE9FF070EDBCF92
:10681000EAFF030EEA02F3CFEAFF030EE902F3CF29
:10682000E9FFF450EA26800EE926020EEA22EF5034
:106830003F6E406AD950020FE96EDACFEAFF3F504F
:10684000EE5E4050ED5A040EDBCF3FF0050EDBCF7D
:1068500040F0020EDBCF41F0030EDBCF42F0000E22
:10686000D8804156030E425642504018E8AE02D03E
:10687000403404D03F50415C4050425803E2000194
:10688000E88DA0D1060EDBCF3FF0070EDBCF40F046
:10689000403404E23F501F08000E405403E2000160
:1068A000E88D90D1060EDBCFE9FF070EDBCFEAFFC4
:1068B000030EEA02F3CFEAFF030EE902F3CFE9FF8A
:1068C000F450EA26800EE926020EEA22EF5001E19A
:1068D00006D1060EDBCFE9FF070EDBCFEAFF030E82
:1068E000EA02F3CFEAFF030EE902F3CFE9FFF45027
:1068F000EA26800EE926020EEA22EF503F6E406A39
:10690000000ED8803F56030E40563F06000E405AF8
:10691000040E3FC0DBFF050E40C0DBFF060EDBCFE1
:10692000E9FF070EDBCFEAFF030EEA02F3CFEAFF2F
:10693000030EE902F3CFE9FFF450EA26800EE926C0
:10694000020EEA22EE52EECFDEFFEDCFDDFFDECF0C
:106950003FF0DDCF40F0040EDBCF41F0050EDBCF82
:1069600042F040504218E8AE02D0423404D04150C8
:106970003F5C4250405835E2060EDBCFE9FF070E80
:10698000DBCFEAFF030EEA02F3CFEAFF030EE902D0
:10699000F3CFE9FFF450EA26800EE926020EEA2240
:1069A000EF500001406AF4253F6EF5514022DE5061
:1069B0003F24E96EDD504020EA6EEF50E66EDE5077
:1069C0000001F4250F01E96EDD500001F5210F01F2
:1069D000EA6EE552E750EF6EDF2A010E01E3DB2A93
:1069E000B6D7DE6ADD6ADECF3FF0DDCF40F0D8906B
:1069F000405004E6200E3F5C000E405870E2DECFAF
:106A0000E9FFDDCFEAFF030EEA02F3CFEAFF030E50
:106A1000E902F3CFE9FFF450EA26800EE926020EE0
:106A2000EA22EECF3FF0EECF40F0EFCF41F0060E7E
:106A3000DBCFE9FF070EDBCFEAFF030EEA02F3CF5D
:106A4000EAFF030EE902F3CFE9FFF450EA26800ED5
:106A5000E926020EEA22EE52EECF42F0EFCF43F0EB
:106A6000000143504118E8AE02D0413404D04050F8
:106A7000425C415043582EE2060EDBCFE9FF070E81
:106A8000DBCFEAFF030EEA02F3CFEAFF030EE902CF
:106A9000F3CFE9FFF450EA26800EE926020EEA223F
:106AA000EF503F6E406ADECFE9FFDDCFEAFF030E15
:106AB000EA02F3CFEAFF030EE902F3CFE9FFF45055
:106AC000EA26800EE926020EEA22EE523F50EE5EE2
:106AD0004050ED5ADF2A010E01E3DB2A84D7060E6F
:106AE000DBCFE9FF070EDBCFEAFF030EEA02F3CFAD
:106AF000EAFF030EE902F3CFE9FFF450EA26800E25
:106B0000E926020EEA22080EDBCFEFFF060EDBCFEE
:106B1000E9FF070EDBCFEAFF030EEA02F3CFEAFF3D
:106B2000030EE902F3CFE9FFF450EA26800EE926CE
:106B3000020EEA22EE52020EDBCFEEFF030EDBCF97
:106B4000EDFFDE6ADD6ADECF3FF0DDCF40F0060EFE
:106B5000DBCFE9FF070EDBCFEAFF030EEA02F3CF3C
:106B6000EAFF030EE902F3CFE9FFF450EA26800EB4
:106B7000E926020EEA22EF50000140AE02D0D89082
:106B800003D03F5C000E40581DE216EC2FF0E66E7D
:106B9000020EDB500001F42500013F6E030EDB50B6
:106BA0000001F5210001406EDE503F24E96EDD500A
:106BB0004020EA6EE552E750EF6EDF2A010E01E356
:106BC000DB2AC1D70A0EE15C02E2E16AE552E16E1E
:106BD000E552E7CFD9FF1200D9CFE6FFE1CFD9FFC9
:106BE000E652DF6AFE0EDB50DF5C0EE216EC2FF0A1
:106BF000E66EDF50EA6A000FE96E020EEA22E55205
:106C0000E750EF6EDF2AEED7E552E552E7CFD9FF26
:106C10001200D9CFE6FFE1CFD9FF040EE12616EC32
:106C20002FF0E66ED950020FE96EDACFEAFFE55297
:106C3000E750EE6EED6A020EDB500201E525000121
:106C40003F6E030EDB500201E6210001406E000E94
:106C5000D8803F54010E405403E20001E88F36D043
:106C6000DE6ADD6ADECF3FF0DDCF40F0020EDBCF23
:106C700041F0030EDBCF42F041503F5C42504058A0
:106C800025E216EC2FF0E66E0201E351E32BEA6AEF
:106C9000000FE96E010EEA22E552E750EF6E0201A5
:106CA000E3513F6E406AD890405004E6000E3F5CCE
:106CB000010E405802E30201E36B0201E52B000ED6
:106CC000E623DF2A010E01E3DB2ACCD7040EE15CC8
:106CD00002E2E16AE552E16EE552E7CFD9FF120028
:106CE000D9CFE6FFE1CFD9FFE652DF6A81AA14D0FF
:106CF000FE0EDB50D880DF5408E3DF50DF2A010BA3
:106D0000E8B08B80E8A08B9001D0DF6AF00EE66ED1
:106D10008CEC3EF0E552EAD7E552E552E7CFD9FFD9
:106D200012006C500CE16896040100513C0BE842E3
:106D3000E8420D0802E10ED801D04BD808D0040E6D
:106D40006C5C03E1689657D802D0000E02D0010EA9
:106D500000D01200D9CFE6FFE1CFD9FFE6520401FF
:106D600004AF02D00401046B0201F96B0201F16B64
:106D70000201F26B0201F76BF86BB8EC3BF0DF6AD3
:106D8000DF503F6E406A010E3F5C000E40581BE230
:106D90000201F25101E017D0F76ADF34FE0BF7363B
:106DA000F66EF20EF6267A0EF7220900F5CF3FF0C6
:106DB0000800F5CF40F004D040C0FAFF3F50F96E14
:106DC000FBDFDF2ADDD705D9E552E552E7CFD9FF52
