:020000040000fa
:08104000a66c04000000000092
:020000040000fa
:10100000501a00000002000014020000000000005e
:020000040000fa
:101048007c0e040000000000b21104000000000043
:10105800b811040000000000be11040000000000e8
:10106800c4110400000000007c0e04000000000011
:101078007c0e0400000000007c0e0400000000004c
:101088007c0e0400000000007c0e0400000000003c
:101098007c0e040000000000a224040000000000f0
:1010a8007c0e0400000000007c0e0400000000001c
:1010b8007c0e040000000000b00f040000000000d7
:1010c8007c0e0400000000007c0e040000000000fc
:1010d8007c0e0400000000007c0e040000000000ec
:1010e8007c0e040000000000461b04000000000005
:1010f8007c0e0400000000007c0e040000000000cc
:101108007c0e0400000000007c0e040000000000bb
:101118007c0e040000000000b41004000000000071
:101128007c0e0400000000007c0e0400000000009b
:101138007c0e0400000000007c0e0400000000008b
:101148007c0e0400000000007c0e0400000000007b
:101158007c0e0400000000007c0e0400000000006b
:101168007e100400000000007c0e04000000000057
:10117800d2100400000000007c0e040000000000f3
:101188007c0e0400000000007c0e0400000000003b
:101198007c0e0400000000007c0e0400000000002b
:1011a8007c0e0400000000007c0e0400000000001b
:1011b8007c0e0400000000007c0e0400000000000b
:1011c8007c0e0400000000007c0e040000000000fb
:1011d8007c0e0400000000007c0e040000000000eb
:1011e8007c0e0400000000007c0e040000000000db
:1011f8007c0e0400000000007c0e040000000000cb
:101208007c0e0400000000007c0e040000000000ba
:101218007c0e0400000000007c0e040000000000aa
:101228007c0e0400000000007c0e0400000000009a
:101238007c0e0400000000007c0e0400000000008a
:101248007c0e0400000000007c0e0400000000007a
:101258007c0e0400000000007c0e0400000000006a
:101268007c0e0400000000007c0e0400000000005a
:101278007c0e0400000000007c0e0400000000004a
:101288007c0e0400000000007c0e0400000000003a
:101298007c0e0400000000007c0e0400000000002a
:1012a8007c0e0400000000007c0e0400000000001a
:1012b8007c0e0400000000007c0e0400000000000a
:1012c8007c0e0400000000007c0e040000000000fa
:1012d8007c0e0400000000007c0e040000000000ea
:1012e8007c0e0400000000007c0e040000000000da
:1012f8007c0e0400000000007c0e040000000000ca
:101308007c0e0400000000007c0e040000000000b9
:101318007c0e0400000000007c0e040000000000a9
:101328007c0e0400000000007c0e04000000000099
:101338000e100400000000007c0e040000000000f5
:101348007c0e0400000000007c0e04000000000079
:101358007c0e0400000000007c0e04000000000069
:101368007c0e0400000000007c0e04000000000059
:101378007c0e0400000000007c0e04000000000049
:101388007c0e0400000000007c0e04000000000039
:101398007c0e0400000000007c0e04000000000029
:1013a8007c0e0400000000007c0e04000000000019
:1013b8007c0e0400000000007c0e04000000000009
:1013c8007c0e0400000000007c0e040000000000f9
:1013d8007c0e0400000000007c0e040000000000e9
:1013e8007c0e0400000000007c0e040000000000d9
:1013f8007c0e0400000000007c0e040000000000c9
:101408007c0e0400000000007c0e040000000000b8
:101418007c0e0400000000007c0e040000000000a8
:101428007c0e0400000000007c0e04000000000098
:020000040000fa
:10160000481e0400000000006022b800060220000e
:101610000000d0008180d2000482d2008582d200f6
:101620000000a0000202520083825a000300310031
:101630000202420083824a000000a1000603e90082
:10164000f3ff3a0000000600889fbe008a9fbe009c
:10165000010578000100e0000400350008003c00ae
:101660000000e0002000320005003700600010009c
:10167000e080180002003b0001f02c001a00370047
:101680000004be006011b8006b0920000982cf0081
:10169000020039000882cf000441b00069425200c4
:1016a0000e00320008003b0082817100610164007d
:1016b0008904d1000884d3008b05e8000442e800c7
:1016c000f9ff3a00050037000804440089844c0003
:1016d0008b05e9000442e900fbff3a000a0107001c
:1016e0000af0a70001f0a0004f05be004f04be00a5
:1016f00000000600889fbe008a9fbe008c1f7800f5
:10170000270107002e01330003866c006450e100be
:101710002e0032006420e100330032006150e1000d
:101720002f0032006120e100310032008585550034
:10173000eb07b00009002000080420000500370076
:101740000804440089844c000a0031000603430069
:1017500087834b000001530081815b00f8ff330059
:101760000203be000800a0000804440089844c0065
:10177000f6ff3900c639dd00830173000100320035
:10178000130020008904d1000884d3000998a30025
:10179000050032000800a7000300a0008904d10062
:1017a0000884d3008b05e8008904d1000884d300a5
:1017b0000001eb000281d200d300070001f0a1007c
:1017c0000cf0a70001f0a000060137006420e10042
:1017d000080132000801be000200be00f7ff37001a
:1017e0006120e100030132006000b800f3ff370020
:1017f0000000200001f82700f0ff37000001be00c4
:10180000ff0007000470a70003f0a10003f8a30085
:1018100013003a006509b1001000320009003500dc
:101820006928e100020035000100280000000500e1
:1018300000004000818048008502e900fcff3a007a
:1018400000000600f88f4200050035008100d1003d
:101850000080d3008502e800fcff3a00000006008b
:101860008000eb000000050003f0a200889fbe008e
:101870008a9fbe008c1f7800c9000700d00033008b
:101880006450e1004f0032006420e1005200320059
:1018900003826c0007003b000905d0000306d0005e
:1018a000820f54000c065d00020039000200320075
:1018b00089017800030678008582550004003d0008
:1018c0000003fd008103fd008502ea008b854200d4
:1018d000840f720002003b0060001000e0801800de
:1018e0006011b8000005eb007a28e1000a00390019
:1018f00006007800c75ddd00f707b200878075003d
:101900002d003700828171000a01780061056000b6
:101910008180d1000080d3008502e900f9ff3b00ff
:10192000060440008784480002003b006004140065
:10193000e0841c000988a300070032008a8171003e
:1019400082817100610164008904d1000884d300a0
:101950008b05e800170037000978a30013003a0050
:101960000b00e000130034008b05e900080444007c
:1019700089844c000a4474000978a3000d003a00e1
:101980000b00e000070034008b05e9000804440068
:1019900089844c0001003a000b0020000978a30064
:1019a000f7ff32000001eb00020037008281710076
:1019b0000a017800540007000cf0a70001f0a00015
:1019c000880037006420e10002003a00838f6c0039
:1019d000880033000801be000200be00810037000d
:1019e000889fbe008a9fbe008c1f78006c00070095
:1019f0007300330003866c006450e1002400320061
:101a00006420e100270032006150e1002200320032
:101a10006120e100210032008b854200eb07b1001c
:101a20000134b800003ab8000804420089844a0032
:101a3000013ab8000030b8008880400009014a002f
:101a4000040033000000400081804800020149008a
:101a50008b05e900c909dd00830170000100320037
:101a600013002000c814de004814dd004709de0022
:101a70001200b200c808de000884700022000700cf
:101a800001f0a1000cf0a70001f0a0005500370004
:101a90006120e100570032000801be000200be00d4
:101aa000f7ff37006150e100fcff3a0051003700ba
:101ab000f4ff2f0067003700140020006500370096
:101ac000d1fe07000400be0000000600839f6800ee
:101ad0000100e00002003d0060001000e0801800fe
:101ae0000300e00002003d0060011100e0811900e8
:101af000c5fe07004f00e00002003b006000100040
:101b0000e080180000000600810020006180550080
:101b10000b003d000b00200061fe2f000100e100e2
:101b20001d00340082817100610164008904d100cc
:101b30000884d3000000e800faff3a00710020009a
:101b400061006400030070000200600009003200c0
:101b500061044400e0844c000988a50005003200bf
:101b60008b05e8006808e10002003a008904d10012
:101b70000884d300f20f20000258e10005003d0068
:101b8000c75ddd00f907b2008980750008007800a4
:101b9000000006000bf827008b007800000005000d
:101ba0000004be00160007000003be000405be00ce
:101bb0000200be0012000700844f750000000600fe
:101bc0000200be006450e100050036006420e10020
:101bd000020036000968a30001003a000800be00b8
:101be0000160a0004f0678004f05be004f04be0004
:101bf00000000600f0ff2f00f1ff2700f9ff37007b
:101c0000c70ade00f107b200f50fb200080032008b
:101c1000e1cf4200020032000170a0002400050064
:101c2000810f700001003200040805004400050027
:101c3000810f700002003a00140005008502e900df
:101c40000000400081c04800fcff3b000170a00084
:101c500024000500889fbe008a9fbe00841f780074
:101c6000cfff07004f00780011003300f0ff2f0076
:101c7000838f6c0006003b00040565000a00a70086
:101c80000800370009f0a600100020000800370007
:101c9000820f5400838f5c00030039001000200085
:101ca00001003e000000200009f0a7000000ea004b
:101cb0004f05be004f04be000000e000000006001b
:101cc0008001eb0002003700817178008301e80099
:101cd000828f5100fcff3a00000006008001eb00fb
:101ce0000200370061f079008301e800828f510023
:101cf000fcff3a00000006000040da000000fe0091
:101d00000200fa0011000700004f780000003700c1
:101d10001e04e0000200320048140700fcff3700f8
:101d2000cd42a800cd62a90060d8230001002000a8
:101d300028020700cd42a900cd62a90060d8230087
:101d40000100200023020700f1ff37000400fa0021
:101d500010c0b3002047980090028000000f780068
:101d6000ff3ffc0042c0bf007f40600042e0b70080
:101d70001e00780090028800a03a2100109d880083
:101d80009f13070020302300103a88000000eb006a
:101d9000203a88002000070051000700609d2200c3
:101da000010020000b02070086010700bf11070099
:101db000260207004e020700e50107000000eb00c5
:101dc00090010700e20607000004e00002003a006c
:101dd0000040eb0020479800b40707000004e00033
:101de00002003a000040eb0020479800bb040700c7
:101df0002e4090000004e00002003200cd42a90015
:101e0000cd62a900d11307002e4090000080fb0096
:101e10000080fa00000006000000fa0020ff2f00fa
:101e200060198800c922a900c962a900c942a90095
:101e3000cd22a800cd42a800cd62a800e862a9008a
:101e4000e042a900ec62a900e442a900e862a8000f
:101e5000e402a800d842a900e002a900e422a800f8
:101e6000e022a900cc22a900dcc2a900c822a90056
:101e7000d8c2a900d862a800d882a900d842a80078
:101e8000dc82a900da42a900e4a2a900cca2a90040
:101e9000cc82a900e0a2a900e0c2a900c8a2a900c2
:101ea000c882a900e4e2a800e462a900e662a800f2
:101eb000e0e2a900e062a900c862a800c842a80048
:101ec000d8c2a900c822a900d942a900d922a900d4
:101ed000c9c2a900d822a9000080fa0000000600ab
:101ee0000000fa00603a21008040eb0001487800d1
:101ef0000000e8008040eb00014878000000e800a6
:101f00008040eb00014878000000e8008040eb00d2
:101f1000014878000040eb00a6f3b70020c0b300f2
:101f2000a7f3b70040c1b300a8f3b70020c0b300c7
:101f3000a9f3b7000080fa00000006000000fa00d4
:101f400002003700bd130700ed0707004606070033
:101f50000004e000fbff3a000080fa0000000600e9
:101f6000809fbe000800fa0042c0bf000080fb0056
:101f70004500de000080fb003007980090028000e2
:101f800010079800ff3ffc0042c0bf007f40600088
:101f900001ccb3000140700042e0b7001e00900089
:101fa00090028800119d80000000eb0080087800fe
:101fb00034c0bf000080fb00200798000000200014
:101fc00034e0b70084e0a900cd22a8002e009000e4
:101fd00034e0b700119d80003000200080087800b8
:101fe00090028000000f7800ff3ffc003e00900050
:101ff00067406000c500dd0042c0bf007f40600058
:102000000140700042e0b7001e0078009002880096
:102010000080fa004f00be00004006003600f800c5
:10202000809fbe00829fbe00849fbe00869fbe0030
:102030000800fa0042c0bf000080fb004500de003f
:102040000080fb0030079800900280001007980085
:10205000ff3ffc0042c0bf007f40600001ccb300e6
:102060000140700042e0b7001e009000900288001e
:10207000119d80000000eb008008780034c0bf0094
:102080000080fb00200798000000200034e0b7002b
:10209000c10a07008ec0a9009ec0a8002e009000b3
:1020a00034e0b700119d80003000200080087800e7
:1020b00090028000000f7800ff3ffc003e0090007f
:1020c00067406000c500dd0042c0bf007f40600087
:1020d0000140700042e0b7001e00780090028800c6
:1020e0000080fa004f03be004f02be004f01be0049
:1020f0004f00be003600f900004006003600f80030
:10210000809fbe00829fbe00849fbe00869fbe004f
:102110000000fa008780a900f08680000000e0003f
:1021200001003a009780a900e08680000000e000ee
:1021300006003200e0868000e10f5000030032000c
:10214000e186800000878000010001000080fa0025
:102150004f03be004f02be004f01be004f00be0045
:102160003600f90000400600801f78000200fa00e7
:1021700034c0bf000080fb00000f7800000020008a
:1021800034e0b7008660a90010c0b300acf3b7001c
:102190001e00780034e0b7000080fa004f0078009d
:1021a00000400600809fbe00821f78003400f800c7
:1021b00000002000a00188000000fa0087c0a900ec
:1021c0000f00370018d3bf000081fb00b011800062
:1021d00080407800903121000000410001487800e3
:1021e0008131210091407800e0c3b30080cf5000de
:1021f00003003e0018d3bf000040e80018f3b7000a
:1022000032c2bf00614060000004e000edff3a0010
:102210000080fa003400f9004f0178004f00be0042
:10222000004006000c00fa004007980042c0bf00c2
:102230000080fb004500de000080fb0030079800b6
:102240009002800010079800ff3ffc00210420004e
:102250009140780000ceb30000c0700042e0b700ab
:102260001e00900090028800109d80009000780071
:1022700021079800109d800010007800e30f5000a7
:1022800010003a00be009000000e20008080600028
:10229000000e2000808f500004003a00119d800045
:1022a0000000eb008008780003003700119d8000db
:1022b0001000200080087800109d800090007800b9
:1022c00021079800109d8000900078004e0090003b
:1022d000808f5000140032004e009000500798008c
:1022e000de0090000100e000040032005e0090007b
:1022f000e10f5000070032000b0037007000200093
:1023000030079800109d8000ce00900001087800f2
:10231000050037000000eb0030079800109d80009a
:10232000ce0090000108780090028000000f780035
:10233000ff3ffc003e00900067406000c500dd00ec
:1023400042c0bf007f4060000140700042e0b70023
:102350001e007800900288002e0090000080fa0095
:10236000000006000000fa008020a900ffff3700ef
:102370000000fa008060a900ffff37000000fa00ab
:102380008040a900ffff37000000fa008080a9000c
:10239000ffff37000000fa008020a900ffff370090
:1023a0000000fa008060a900ffff37000000fa007b
:1023b0008040a900ffff37000000fa008080a900dc
:1023c000ffff37000000fa0000e020000003880053
:1023d0000000eb00100388008660a900d10a2000ed
:1023e00091407800f0c8b30000c060000044a00035
:1023f000ade0b7006340a8009660a8000080fa0036
:10240000000006000200fa00000f78001e00e00045
:1024100003003a00e4e2a800e462a80002003700ea
:10242000e4e2a800e462a9000080fa0000000600cf
:102430000a00fa00008fbe002207980033079800b8
:10244000440798000000eb00000988000000eb0042
:10245000f00888001e61a8003e009000e086880019
:102460004e009000008788002e009000f0868800c3
:102470001e01be0000242400f1002000800f510046
:10248000818f5900110036001e00be004206200058
:10249000030020005cfc07000003be0086007800fb
:1024a000006420000009b8006030b9000302780021
:1024b000000242000064200000b8b900000242009f
:1024c00084017800028fbe00100037001e03be009a
:1024d0008600780000642000000ab8006030b9006f
:1024e00005017800000141000064200000b8b90037
:1024f0000001410082027800420620000300200013
:102500000400be0040fc0700008fbe000e007800f3
:102510000080e80010007800e00888000e007800d5
:1025200010007800d00888008780a900210b2000c7
:102530009140780080cfb30000c060000004a0008c
:10254000b2e0b7009780a8000080fa000000060003
:102550000000fa00000320008008880084e0a90041
:10256000c014250060088800710a2000914078009e
:10257000f0c8b30000c0600001c2b30001407000a9
:10258000a7e0b70094e0a8000080fa000000060071
:102590000000fa0011e1a8000080fa000000060027
:1025a0000000fa000000eb00c00888000000eb000b
:1025b000a00888008780a9001fe1a8000080fa0019
:1025c000000006000000fa001fe1a9000080fa00e8
:1025d000000006000400fa00008fbe001e00be00ce
:1025e000e00f5000e08f580016003200f5ff0700a2
:1025f0002001200001002000be0f1000ae8f180047
:1026000004003600e0fe2f00f1ff2f001e0f4000f7
:102610005e9748000002eb008001eb000001eb0038
:102620001e00be0082ff07009780a900dcff0700a4
:1026300087c0bf00704060000004e000fcff320073
:102640008780a9000080fa00000006000200fa005e
:10265000200e2100020220008000eb0098fd070000
:10266000200e210004000700004f78001e80fb00b0
:102670000080fa00000006000400fa00100798002d
:1026800010c0b300104798001e019000e400200025
:102690000500200040002000010020008e0f0700f0
:1026a000104798001e00900010407800004f7800fe
:1026b00000c0eb009e4f1000050032001e04e00039
:1026c000030032001e4090000004e00004003a00c5
:1026d000210e210080bb2e000c000900b0587800ac
:1026e0001e4090000080fb000080fa000000060001
:1026f0000200fa0020102100020220008000eb00fe
:102700006ffd07002010210004000700004f780033
:102710001e80fb000080fa00000006000400fa00a2
:102720001007980010c0b300104798001e019000d9
:1027300004022000050020006001200001002000ac
:10274000650f0700104798001e00900010407800a9
:10275000004f780030c2b3009e4f100003003a00d3
:102760001e4090000004e00002003a000040eb0030
:10277000104798001e4090000080fb000080fa0087
:10278000000006000600fa00000f7800110798000c
:10279000220798009e0078002e0090008008bb0061
:1027a0009e0078001e0090008088bb000080fa0028
:1027b000000006000000fa0010002400003b880022
:1027c00050052000303b8800a00a2000303b8800e4
:1027d00061e7a800000000000000000061c7bf0022
:1027e00001c8b300014060000004e000fbff3a00b4
:1027f0000080fa00000006001000fa006007980050
:102800007107980042c0bf000080fb004500de0059
:102810000080fb005007980090028000100798008d
:10282000ff3ffc0042c0bf007f40600001ccb3000e
:102830000140700042e0b7001e0090009002880046
:10284000119d80000000eb00800878006e00900071
:10285000fe0090004008de000100200040079800c4
:102860006e0090003007980032c0bf000080fb006f
:10287000200798004e00900032e0b70020042400aa
:10288000003b8800be0090003e0090008008bb0026
:1028900050052000303b8800a00a2000303b880013
:1028a00061e7a800000000000000000061c7bf0051
:1028b00001c8b300014060000004e000fbff3a00e3
:1028c0002e00900032e0b700119d80003000200003
:1028d0008008780090028000000f7800ff3ffc0025
:1028e0005e00900067406000c500dd0042c0bf0090
:1028f0007f4060000140700042e0b7001e00780099
:10290000900288000080fa00000006001800fa001b
:10291000100f9800220f9800330f980042c0bf009c
:102920000080fb004500de000080fb00000f9800e7
:102930009002800010079800ff3ffc0042c0bf00db
:102940007f40600001ccb3000140700042e0b7005e
:102950001e00900090028800119d80000000eb0096
:10296000800878002e089000be0890004008de0025
:1029700001002000500798002e08900040079800a2
:1029800032c0bf000080fb00600798005e0090002e
:1029900032e0b7000000eb0070079800220037001b
:1029a0001e089000104078000080fb00200798006f
:1029b0001e0890000000e800100f98001e0890000c
:1029c000104078000080fb00c800dd002e00900061
:1029d00001007000200798001e0890000000e80029
:1029e000100f98001e089000104078000080fb0037
:1029f000300798001e0890000000e800100f9800b3
:102a00002e019000be0090004e0090005dff070078
:102a10004e0090000080e800400798007e00900083
:102a20000000e80070079800fe009000f00320000e
:102a3000808f5000daff36005eff07006e009000c6
:102a400032e0b700119d800030002000800878003f
:102a500090028000000f7800ff3ffc000e089000fd
:102a600067406000c500dd0042c0bf007f406000dd
:102a70000140700042e0b7001e007800900288001c
:102a80000080fa00000006000000fa0000002a00a2
:102a90002100200058ff0700f0ceb30022f1b7005c
:102aa000e0cbb30023f1b7000040eb0024f1b70006
:102ab00002002a00230020002012210093ff0700bb
:102ac0000080fa00000006000c00fa000040eb0055
:102ad000004f780068004700325e8700435e870041
:102ae0000288be0034c0bf000080fb0030079800a1
:102af00010c0b30034e0b70000002f00200798009a
:102b00002e00900090017800130798009e0090001e
:102b1000a0992a00808f50001b003a002e009000e0
:102b20000080e800211e210003000900b058780051
:102b30004000b100e80047002e0090000080e8004f
:102b4000110178009100900010027800900290002e
:102b50008101780004007800850078003f000700bc
:102b6000004f780012c0b3009e4f110003003a00de
:102b70000c000700004f7800050037000040eb0014
:102b8000004f7800020037000040eb00004f780053
:102b90003e00900034e0b7001e80fb000080fa0089
:102ba000000006000a00fa000040eb0040479800d1
:102bb00050c0b30034e0b70000ff2900000f7800d8
:102bc0001e00780090007800110798009e00900089
:102bd000a0992a00808f50001c003a009e80e800d7
:102be0006500470003000900315878004000b1003b
:102bf0004100b1006500470090409000e3d1bf0064
:102c000080cf500011003a0065004700a0409000be
:102c1000e4d1bf0080cf50000c003a0065004700af
:102c2000b0409000e5d1bf0080cf500007003a00cf
:102c30006500470090407800e2d1bf0080cf50008f
:102c400002003a0010c0b300404798004e40900088
:102c50000080fb000080fa00000006000a00fa0075
:102c60000e82e800000a7800110298006600470012
:102c700002087800130098000040eb00004f780035
:102c80000e80e800904090006600470010409000e1
:102c900080cf50001e003e000e80e8009040900063
:102ca000660047001040900080cf500006003a00b8
:102cb0000e80e800a0409000660047002040900091
:102cc00080cf500012003e000e80e800904090003f
:102cd000660047001040900080cf500018003a0076
:102ce0000e80e800a0409000660047002040900061
:102cf00080cf500012003a000e80e800b0409000f3
:102d0000660047003040900080cf50000c00390032
:102d10000e80e80090407800660047001040780080
:102d200080cf50000400310066004700104078005a
:102d30000004e00002003a0010c0b300004f780029
:102d40001e80fb000080fa00000006000200fa006e
:102d5000004f78001e04e00002003200ec22a800c0
:102d600001003700ec22a900e822a9000080fa0047
:102d7000000006000000fa00ff0b09000000000040
:102d80000080fa00000006000400fa0095a0a900e7
:102d900085a0a9000000eb00001988000000eb00ee
:102da000401988000000eb00801988000010200006
:102db000201988000000eb001019880021e3a8000a
:102dc000ecff07000000eb00000f78000000eb00b4
:102dd000100798000c0037002023a800e5ff07002b
:102de0002023a90020c3bf00614060000004e00070
:102df000fcff32001e00900001188000010040001e
:102e0000100798001e0fe800f00020009e0f100031
:102e1000f1ff34001e0090000000e0000c003200c2
:102e20001e009000cf80de0007fa0700020020009d
:102e3000031824002ffa07000001be000000200044
:102e4000010224002bfa0700609b8800719b880018
:102e50000000eb00001988000080fa000000060066
:102e60000000fa000000eb0000198800203020006c
:102e700040198800500020001019880040022100ed
:102e800020198800000e20000019880085a0a900e4
:102e900095a0a900a10a200091407800f0c8b300d5
:102ea00000c0600001c6b30001407000aae0b70096
:102eb0002043a80021e3a800800c2000010020008e
:102ec000c4fd07000080fa00000006000200fa00be
:102ed00095a0a900809b8000000f780095a0a80015
:102ee0001e0078000080fa00000006000200fa00d0
:102ef00095a0a900b09b8000000f780095a0a800c5
:102f00001e0078000080fa00000006000e00fa00a3
:102f100030079800410798003e009000ce009000d6
:102f20000200200003e02300f2f9070033fa070053
:102f3000000f78001e007800cf80de00c2f9070085
:102f400050079800610798001e00e00007003d0050
:102f500002002000037824005e009000ee00900044
:102f600042fa07005007980061079800020020000d
:102f700003e02b005e009000ee00900098fa07003e
:102f80003e019000ce01900038fa0700100798002b
:102f9000210798000200200003d823001e009000a3
:102fa000ae009000c2fa07000000e00001003c0003
:102fb000010037001e0fe8001e0078000080fa00b4
:102fc000000006000800fa00881f7800bfff070015
:102fd000000478006140b9009bf9070020079800c1
:102fe000310798000800e00007003d0002002000c3
:102ff000037824002e009000be0090001bfa07000a
:103000002007980031079800629b8000739b800026
:103010002e009000be00900071fa0700d27d2a00b9
:1030200083eb2300b3f90700008fbe001e00be0033
:103030004f0478000080fa00000006000800fa0043
:10304000881f7800a9ff0700000478006140b900dc
:103050007df9070020079800310798000800e0007c
:1030600007003d0002002000037824002e0090009d
:10307000be009000fdf90700200798003107980076
:10308000629b8000739b80002e009000be00900029
:1030900053fa0700127e2a0083e3230095f9070004
:1030a000008fbe001e00be004f0478000080fa00b2
:1030b000000006000000fa00c2ff070093ff0700af
:1030c0000080fa00000006000000fa00dbff0700a5
:1030d0008eff07000080fa00000006000000fa00e2
:1030e000c03621006011b8000288be0064004000b4
:1030f0006011b8000288be00640040006011b80092
:103100000288be00640040006011b8000288be0062
:10311000640040006011b8000288be0064004000f6
:103120006011b8000288be00640040006011b80061
:103130000288be00ec62a900e442a900e862a9008e
:10314000e042a9000000eb009008880090062000f3
:103150007008880013e1a8000bff070040ff07007c
:103160008633a80010002000109c88000040eb006f
:1031700091010700c00020009e000700c000200051
:103180001c0007000080fa00000006000400fa009e
:10319000004f7800110798001e04e0000b003a0071
:1031a0000000eb00d00c88000000eb00000d880050
:1031b0001e009000f00c8800d0002000e00c880079
:1031c00070402000d00c8800080037000000eb00a1
:1031d000800c88000000eb00b00c88001e009000fe
:1031e000a00c8800d0002000900c88000080fa001d
:1031f000000006000c00fa00300798000040eb00c9
:10320000404798003e009000cf80de000ef9070096
:1032100040079800510798003e0090000000e00031
:1032200007003d0002002000037824004e009000bb
:10323000de0090008df907004007980051079800c4
:103240000200200003e023004e009000de0090000a
:10325000e3f90700008fbe001e00be000600070055
:1032600010c0b300404798004e4090000080fb0023
:103270000080fa00000006000c00fa0030079800f9
:103280004107980010c0b3004047980095a0a900de
:10329000a10a200091407800f0c8b30000c060008f
:1032a00001c6b30001407000aae0b70086f3a90090
:1032b0008713a90086b3a90002002000031624008a
:1032c0003e009000ce009000f9f907000000e000f9
:1032d00001003c0006003700000020000116240019
:1032e00030079800410798000040eb0040479800e5
:1032f0006011b8003e009000ce009000eef907008b
:103300000000e000010032000b0037000000eb007d
:10331000800c8800319c8000000420000080600048
:103320000000e0000100320095a0a800100020007d
:10333000500798002c0037003e009000ce0090000f
:103340003233230033f32300a5f90700008fbe00ba
:1033500095a0a9001e00be00127e2a0083e3230070
:103360009ff90700629b8000739b8000e1f80700d3
:1033700022f90700c09b88000000eb00d09b88006a
:1033800050052000009c88003e009000ce00900078
:10339000127e2a0083e3230091f90700629b8000dc
:1033a000739b8000d3f8070002002000030824006c
:1033b0002ef9070011f90700e09b8800e09b8000d0
:1033c00068005000f09b88005105200010c0b30039
:1033d0006eff07008713a80095a0a8004e4090003c
:1033e0000080fb00500798005e0090000080fa000b
:1033f000000006001000fa00500798000040eb00a3
:10340000004f98005e009000cf80de008ef807002d
:1034100060079800710798005e0090000000e000cf
:1034200007003d0002002000037824006e00900099
:10343000fe0090000df907006007980071079800e2
:103440000200200003e023006e009000fe009000c8
:1034500063f9070020079800310798002e009000bc
:10346000be00900036000700d6fe0700008fbe00a9
:1034700010ff0700609c8800609c8000509c8800c2
:103480002e019000be0190001e00be00f6f807005d
:1034900001f0a100a2702d0033e2230086f907009d
:1034a0000000e000010035000300370010c0b30049
:1034b000004f980001003700000000000e48900007
:1034c0000080fb000080fa00000006000a00fa00fd
:1034d00030079800410798000040eb0040479800f3
:1034e0003e009000ce00900015000700b5fe0700da
:1034f000008fbe003e019000ce0190001e00be0075
:10350000d9f8070001f0a100a2702d0033e22300da
:1035100069f907000000e0000100350003003700f2
:1035200010c0b300404798000100370000000000c1
:103530004e4090000080fb000080fa000000060072
:103540000c00fa00300798004107980010c0b30043
:103550004047980095a0a90086d3a9006011b80043
:103560003e009000ce00900053f907000000e000fc
:1035700001003200050037000000eb00d00c88008d
:1035800010002000500798003d0037000200200086
:10359000030a24003e009000ce00900044f907008a
:1035a0000000e00001003c000600370000002000a1
:1035b000010a240030079800410798000040eb0002
:1035c000404798003e009000ce009000a29929004c
:1035d00093f5230002f90700008fbe00a2702d00b2
:1035e000330824001e00be0031f907000000e0008f
:1035f00001003c0003003700a0702d0031082400ba
:10360000008fbe001e00be00d27d2a0083eb230087
:10361000f3f80700629b8000739b800035f8070079
:1036200076f80700909b88000000eb00a09b8800c4
:103630003e009000ce009000f2282c0053d72300cb
:103640002cf807000200200003f0230087f8070091
:103650006af80700800078000040eb00cbfe07000e
:1036600086d3a80095a0a8000071220001002000c8
:10367000d8fb07004e4090000080fb0050079800e8
:103680005e0090000080fa0000000600809fbe00ef
:103690000800fa0042c0bf000080fb004500de00c9
:1036a0000080fb003007980090028000100798000f
:1036b000ff3ffc0042c0bf007f40600001ccb30070
:1036c0000140700042e0b7001e00900090028800a8
:1036d000119d80000000eb008008780034c0bf001e
:1036e0000080fb00200798000000200034e0b700b5
:1036f00085a0a90000188000809b88001018800019
:10370000b09b8800319c8000000820000080600091
:103710000000e00014003200309c80000102200014
:10372000010060000000e0000f003a00b19b800043
:10373000e09b8000808f5000020036000000eb000c
:10374000800c8800b19b8000f09b8000808f50002f
:1037500005003100800c80000000e00002003a000b
:1037600070402000800c88002e00900034e0b700ec
:10377000119d8000300020008008780090028000b9
:10378000000f7800ff3ffc003e00900067406000a3
:10379000c500dd0042c0bf007f40600001407000f6
:1037a00042e0b7001e007800900288000080fa0016
:1037b0004f00be00004006000200fa00004f7800f3
:1037c0001e04e0000e003200309c8000011020003a
:1037d000010060000000e0000600320070402000a0
:1037e000800c880086f3a800801a260001002000c3
:1037f00078fb0700e4c2a900e4a2a800100037008b
:10380000309c800001022000010060000000e00008
:1038100009003a0086f3a9000000eb00800c880044
:10382000e4c2a80080b521000100200069fb070068
:10383000e4a2a90002003700e4a2a900e4c2a800a3
:103840000080fa00000006000000fa00e4c2bf0099
:103850000080fb004500de00614060000080fb004e
:103860000080fa00000006000200fa006b02070068
:10387000000f78001e0078000000e0000200320017
:1038800010002000000f78001e0078000080fa0071
:10389000000006000600fa00000f780012079800ea
:1038a000230798001e019000ae0190001e007800d2
:1038b000820207001e0090001e0040000080fa00f7
:1038c000000006000200fa001200200003002000a1
:1038d0000e007800790207001e4078000080fb008f
:1038e0000080fa00000006000000fa0010c0b300db
:1038f00050e8b7006000b80090428800a1428800fc
:103900000040eb005ae8b7000040eb005be8b7006e
:103910000040eb005ce8b70010c0b3005de8b70002
:103920006000b800b0428800c14288000080fa0000
:10393000000006000000fa000000eb0000458800cf
:103940000000eb00104588000080fa00000006002f
:10395000a001fa00008a2000426120008000eb00f4
:10396000d7f80700e0ff0700f2ff07000000eb00b8
:10397000100798001c0037002110210091407800aa
:1039800030c2b30080cf50000b003a009e0190007f
:103990001e0090008000e800201021000080400000
:1039a000104078000081fb00e400470003804100e4
:1039b00002b07800090037009e0190009e00900040
:1039c000200e210000804000104078000081fb00a4
:1039d000e40047000380410002b078001e00900020
:1039e0000000e800100798001e009000ed0f500046
:1039f000e1ff340023070700640047004207070087
:103a0000000220000e00400081af2e005e00090081
:103a100031187800e00bb1000040eb0060df990046
:103a200010c0b300004f7800e20d20000e014100ed
:103a3000140020000500200000e820000100200004
:103a4000a50a0700004f7800eed8910000ccb30023
:103a500080cf500010003e006ed89100e24f500021
:103a60000d0036001e04e0000b0032006ed89100fd
:103a70000080fb000080e900cf80de000202200011
:103a80000e0141000002be0020e8200001002000dd
:103a9000910a0700004f7800000220000e0040004d
:103aa00010007800e10f4000070032000002200003
:103ab0000e004000100078000000e000020032001c
:103ac0001e04e00008003a00000220000e00400042
:103ad00081a02e0018000900311878002003b100e1
:103ae00040c3b30060df99006c060700eed8910078
:103af000000220000e00400089060700000e200092
:103b00000e004000a1a32e005e00090031187800cd
:103b1000e00bb1000040eb0060df990010c0b30083
:103b2000004f7800e20d20000e014100140020003b
:103b30000500200000f4200001002000660a0700b4
:103b4000004f7800eed8910000ccb30080cf500039
:103b500010003e006ed89100e24f50000d0036007c
:103b60001e04e0000b0032006ed891000080fb00c4
:103b70000080e900cf80de00020e20000e0141002f
:103b80000002be0020f4200001002000520a0700bd
:103b9000004f7800000e20000e004000100078005a
:103ba000e10f400007003200000e20000e00400030
:103bb000100078000000e000020032001e04e00067
:103bc00008003a00000e20000e004000819f2e00e9
:103bd00007000900311878000001b10020c1b300ce
:103be00060df99006a060700eed89100000e200001
:103bf0000e004000870607000000eb00708f990060
:103c000010c0b300004f7800e21920000e014100ff
:103c1000240020000500200000e420000100200016
:103c20002d0a0700004f78007e889100e10f4000c8
:103c3000110032007e8891000000e0000e0032008a
:103c40001e04e0000c0032007e899100f00f20007d
:103c5000800061009ad3bf006040600001407000a6
:103c60009af3b700c810de009bd3bf00604060002d
:103c7000014070009bf3b7008e03070010c0b30033
:103c8000a5e8b700100020000080fa000000060040
:103c90000200fa00000f78009e00780010c0b30008
:103ca000804878000080fa00000006000400fa0056
:103cb0000040eb00104798000040eb0020479800c0
:103cc0000040eb00004f78000e80e8000002780012
:103cd00083e421000001eb00006c2c00d1022000e5
:103ce000d3f907002efa07000f003700aa030700d8
:103cf00041f020009140780000c2b30080cf500016
:103d0000030032002e4090000004e0000600320064
:103d100010c0b3001047980010c0b300004f7800e7
:103d200010c0b30009fc07001e4090000004e00032
:103d3000eeff32001e04e000090032009ec0a90020
:103d40008ec0a900f10c20009140780080cfb30014
:103d500000c060006040b300cfe0b7009ec0a80084
:103d6000100020000080fa00000006000800fa00a1
:103d7000000f780012079800230798006147980009
:103d8000dc0007000004e000fdff32001e00e00040
:103d900010003a001e019000209d800090017800e4
:103da0001045800080007800808a2000008040005c
:103db00083007800c9f70700229d8000209d8000c5
:103dc000900078001e0090000080400000097800fc
:103dd000070037001e019000104580008000780029
:103de000808a2000008040009e007800bbf707001a
:103df000114580001e0090000080400010458800a2
:103e0000014580001e0090000080400000458800b1
:103e10006e4090000004e00001003200380007000e
:103e20000080fa00000006000000fa000080fa009e
:103e3000000006000800fa0010079800220798000a
:103e4000330798002e019000104580008000780014
:103e5000808a2000008040009e0090009ff70700ad
:103e6000014580002e009000008040000045880041
:103e70000000eb00000f78000b0037009e01780077
:103e80001e007800e8004000008a2000008040000a
:103e900010417800e8804100008a20000080400046
:103ea000024878001e0fe800f00320009e0f10006b
:103eb000f2ff360000458000004588001145800073
:103ec0002e009000008040001045880001458000d1
:103ed0002e009000008040000045880003c4b3001d
:103ee000828a200011c0b30010c0b3007808070018
:103ef000909d88008ffe07000080fa0000000600f9
:103f00000600fa00808a2000200798000045800003
:103f10000000e00040003200b8d3bf000004e00021
:103f2000030032008038210001002000a9f90700b9
:103f30000000eb00000f78000b0037009e017800b6
:103f40001e007800e8004000008a20000080400049
:103f500010417800e8804100008a20000080400085
:103f6000024878001e0fe800f00320009e0f1000aa
:103f7000f2ff36000045800000458800220037002f
:103f8000909d80000000e0000300320090000700d8
:103f90000004e000fdff3200014580000004200025
:103fa000808f50000300360000c4b3002047980003
:103fb000020037000045800020479800014580003e
:103fc0002e4090000080fb000080500000458800db
:103fd00003c4b3002e01900011c0b30010c0b300a1
:103fe0003b080700909d88002e4090000080fb0059
:103ff000800078002e00900001004000200798000b
:104000000040eb00a5e8b700004580000000e0009c
:10401000dbff3a0047fe07000080fa0000000600c0
:104020000000fa00809d80000000e00006003200e1
:10403000809d80009040900000c8b30000c06000e8
:104040000004e000f7ff3a00909d80000000e000cf
:1040500006003200909d80009040900000c8b300a0
:1040600000c060000004e000f7ff3a00006a28008a
:104070001100200057f907000000eb00a024880081
:104080000000eb00602488000040eb0004efb70064
:104090000080fa00000006000400fa00000f78001b
:1040a00041f02000914078000000eb0010079800dc
:1040b00000c2b30080cf500002003a001000200080
:1040c000100798001e0090000080fa000000060013
:1040d0000600fa00004f78001207980023079800a6
:1040e0000080fa00000006000000fa000080fa00dc
:1040f000000006000000fa00a5c8bf000080fb0019
:104100000080fa00000006000000fa001000200005
:104110000080fa00000006000800fa0042c0bf005c
:104120000080fb004500de000080fb0030079800a7
:104130009002800010079800ff3ffc0042c0bf00c3
:104140007f40600001ccb3000140700042e0b70046
:104150001e00900090028800119d80000000eb007e
:1041600080087800a1852000914078000040eb0095
:10417000404798000104e0000200320010c0b30084
:1041800040479800119d8000300020008008780092
:1041900090028000000f7800ff3ffc003e0090007e
:1041a00067406000c500dd0042c0bf007f40600086
:1041b0000140700042e0b7001e00780090028800c5
:1041c0004e4090000080fb000080fa0000000600d6
:1041d0000200fa00909d80000000e000060032001e
:1041e000909d80009040900000c8b30000c0600027
:1041f0000004e00003003a0010002000000f7800e7
:10420000020037000000eb00000f78001e4078002d
:104210000080fb000080fa00000006000800fa00a1
:1042200042c0bf000080fb004500de000080fb00b4
:10423000300798009002800010079800ff3ffc00b4
:1042400042c0bf007f40600001ccb300014070005d
:1042500042e0b7001e00900090028800119d80008f
:104260000000eb00800878005ac8bf000080fb0007
:1042700020079800119d8000300020008008780001
:1042800090028000000f7800ff3ffc003e0090008d
:1042900067406000c500dd0042c0bf007f40600095
:1042a0000140700042e0b7001e00780090028800d4
:1042b0002e0090000080fa00000006001800fa00ae
:1042c000100f9800220f9800330f98006000b8007c
:1042d00040079800510798000040eb00504f9800ad
:1042e00005013700cdff0700404f98004e48900071
:1042f0000004e000d800320042c0bf000080fb0094
:104300004500de000080fb00000f98009002800056
:1043100030079800ff3ffc0042c0bf007f406000b4
:1043200001ccb3000140700042e0b7003e009000b5
:1043300090028800119d80000000eb00800878004a
:104340004e4890000081fb00030020004e009000ca
:10435000de00900002014000838148002e0890009a
:10436000be089000800f5100818f59004000390035
:104370001e0890000000e00014003a00ae08900013
:104380004e009000008150005bc8bf000080fb0021
:1043900080007800e085200080804000209d800023
:1043a000100078004df60700239d8000209d8000be
:1043b00010017800ae0890004e0090000080500080
:1043c00000004100800978000a003700ae08900024
:1043d0004e009000008150005bc8bf000080fb00d1
:1043e00080007800e0852000808040001e0890005a
:1043f0003af60700b2852000124178002e0890009e
:10440000804078004e00900000c050000040410005
:104410005be8b700a2852000124178002e089000ca
:10442000804078004e00900000c0500000405100d5
:104430005ae8b700b4428000c54280002e099000bf
:10444000be0990004e009000de0090000000510078
:10445000818059000400400085804800b0428800f7
:10446000c142880010c0b300504f98004000370090
:104470001e0890000000e00012003a004e48900034
:104480000081fb005bc8bf000080fb00800078005b
:10449000e085200080804000209d80001000780092
:1044a0000ef60700229d8000209d8000900078007d
:1044b0004e4890000080fb0000804000000978001a
:1044c0000f0037004e4890000081fb005bc8bf0022
:1044d0000080fb0080007800e085200080804000a4
:1044e0001e089000fdf507004e4890000080fb007c
:1044f000800078001e08900001004000100f980016
:10450000b1852000914078004e48900000c04000e6
:104510005be8b700a1852000914078004e489000ec
:1045200000c050005ae8b700b2428000c342800089
:104530004e4890000080fb00010020000200400077
:1045400083804800b0428800c14288004e489000f5
:104550000081fb00030020004e009000de00900070
:1045600000004100818049004007980051079800f1
:1045700092428000a3428000b0428000c14280008d
:10458000800f5100818f590013003a006000b8007d
:1045900090428800a14288000040eb005ae8b70032
:1045a0000040eb005be8b7006000b800b042880054
:1045b000c142880010c0b3005de8b70003c4b30077
:1045c000e28520008040eb0010c0b300c006070069
:1045d000809d880011003700b1852000914078004f
:1045e00000c4b30080cf50000c003a000040eb0044
:1045f0005be8b7000040eb005ae8b70010c0b3001a
:104600005de8b70003c4b300e28520008040eb0002
:1046100010c0b300ae060700809d8800119d800089
:104620003000200080087800900280002007980069
:10463000ff3ffc000e08900067406000c500dd00f1
:1046400042c0bf007f4060000140700042e0b70000
:104650002e0090009002880042c0bf000080fb0046
:104660004500de000080fb0070079800900280008b
:1046700010079800ff3ffc0042c0bf007f40600071
:1046800001ccb3000140700042e0b7001e00900072
:1046900090028800119d80000000eb0080087800e7
:1046a0005cc8bf000004e000040032005dc8bf0029
:1046b0000004e000010032003b000700119d800073
:1046c000300020008008780090028000000f780001
:1046d000ff3ffc007e00900067406000c500dd00e9
:1046e00042c0bf007f4060000140700042e0b70060
:1046f0001e007800900288005e4890000004e000f0
:10470000f8fe32000080fa00000006000800fa00ff
:104710000000eb002007980042c0bf000080fb00b3
:104720004500de000080fb0030079800900280000a
:1047300010079800ff3ffc0042c0bf007f406000b0
:1047400001ccb3000140700042e0b7001e009000b1
:1047500090028800119d80000000eb008008780026
:10476000119d8000300020008008780090028000b9
:10477000000f7800ff3ffc003e00900067406000a3
:10478000c500dd0042c0bf007f40600001407000f6
:1047900042e0b7001e007800900288002e009000d2
:1047a0000080fa00000006000200fa0050c8bf00b6
:1047b0000004e00029003200000420000100200075
:1047c00090428800a142880000042000000f780079
:1047d0000a0037009e0178001e007800ee004000bd
:1047e000008520000080400010417800ee804100ec
:1047f0000085200000804000024878001e0fe9007c
:104800000080eb009e0f1000f2ff3a000040eb002a
:104810005be8b70092428000a342800000042000c1
:1048200001002000800f5100818f590005003600e3
:1048300000c4b3005ae8b7000040eb0050e8b700ee
:104840002000370090428000a14280005ae8b70063
:1048500010c0b30050e8b7001a0037000040eb006a
:104860005be8b700b0428000c14280000001be009a
:104870000204b0000380b00090428000a14280009a
:10488000800f5100818f59000a003900904280004a
:10489000a142800000417800b0428000c142800007
:1048a000004051005ae8b70010c0b30050e8b7000c
:1048b0000400370000c4b3005ae8b7000040eb0022
:1048c00050e8b7000080fa00000006000000fa007f
:1048d00039cfbf008080fb00b0ff2f000080600058
:1048e000f80f500008003a000040eb00a6e8b700bf
:1048f000a4c8bf000004e00010003a0010c0b300dc
:10490000a5e8b7000d00370039cfbf008080fb005d
:10491000b0ff2f0000806000f00f500007003a0049
:104920005dc8bf000004e000020032009eff0700e7
:104930000200370010c0b3005ce8b7000080fa0046
:1049400000000600809fbe000800fa0042c0bf00c1
:104950000080fb004500de000080fb00300798006f
:104960009002800010079800ff3ffc0042c0bf008b
:104970007f40600001ccb3000140700042e0b7000e
:104980001e00900090028800119d80000000eb0046
:104990008008780034c0bf000080fb00200798002a
:1049a0000000200034e0b7008460a9002e009000d1
:1049b00034e0b700119d80003000200080087800ae
:1049c00090028000000f7800ff3ffc003e00900046
:1049d00067406000c500dd0042c0bf007f4060004e
:1049e0000140700042e0b7001e007800900288008d
:1049f0000080fa004f00be00004006000000fa00f0
:104a00000080fa00000006000000fa000080fa00b2
:104a1000000006000000fa000080fa000000060016
:104a20000000fa000080fa00000006000000fa0012
:104a3000010607000080fa00000006000000fa00ee
:104a40000080fa00000006000000fa00d1c1b300a7
:104a500010c0b3004405070003c4b300e285200082
:104a60008040eb0010c0b30099050700809d8800ce
:104a70000000eb00909d88000080fa000000060016
:104a80000000fa009444a80080702000e09d880097
:104a9000e09d80000000e900e09d8800e09d80002e
:104aa0000000e000faff3a009444a9000080fa00f8
:104ab000000006000200fa00f00f200070248800b9
:104ac000f00f200050248800f00920008024880086
:104ad000f0092000602488008804a800004021001c
:104ae0004800de00c02488009424a8009424a90073
:104af0000000eb00b02488000040eb00004f78007d
:104b0000070037001e80fb00c200dd0000402100ce
:104b1000008140006000b8000089be001e4fe80020
:104b200070c0b3009e4f1000f6ff3600d00020008a
:104b30005025880003003700a048200031c0b30092
:104b4000b10507008ac4bf00684060000004e000af
:104b5000f9ff3a000040eb0008efb700c1f0200079
:104b60000040eb00a0409800c1f020000000eb00e6
:104b7000a000980094a4a90080402100a07888009b
:104b80000040eb0005efb7000040eb0004efb7007a
:104b90000080fa00000006000200fa0004cfbf0007
:104ba0000004e00010003a000000eb00a0248800a0
:104bb0000000eb0060248800010037009404a80086
:104bc00094c4bf00614060000004e000fbff3200bd
:104bd00010c0b30004efb70020002000302588008b
:104be000000120004025880004cfbf00e14f5000a5
:104bf00008003a00f00f2000502488000000eb006d
:104c0000602488008c04a8008c84a80020c0b30015
:104c100004efb70080c4bf00704060000004e000f3
:104c20000500320082c4bf00704060000004e00054
:104c3000010032008300070088c4bf0062406000aa
:104c40000004e0005d003a008ac4bf0061406000db
:104c50000004e000150032008cc4bf006140600019
:104c60000004e0001100320092ff070040c0b300d2
:104c700004efb70040eb200010a0880080c0b30014
:104c800000f4b700114021009140780030c0b3001b
:104c900000c0600001f4b70011402100914078008d
:104ca000c0c8b30000c0700001f4b7008ac4bf00e0
:104cb000704060000004e000050032008cc4bf00ba
:104cc000704060000004e000010032005500070061
:104cd0008ac4bf00644060000004e00008003200a5
:104ce0008cc4bf00644060000004e0000400320097
:104cf00048ff0700a048200021c0b300420507007c
:104d00008ac4bf0001c8b300014060000004e00095
:104d1000060032008cc4bf0001c8b300014060002f
:104d20000004e00001003200260007008ac4bf0032
:104d3000624060000004e000070032008cc4bf0045
:104d4000624060000004e0000300320034ff07000e
:104d5000f00f20007024880004cfbf00e34f500004
:104d6000160036008cc4bf00684060000004e000fc
:104d7000120032000040eb00004f78000c003700ba
:104d80008ac4bf00684060000004e0000b003200ed
:104d90009024800039efb700a048200031c0b30054
:104da000190507002f000700c8fe07001e4fe80086
:104db00030c0b3009e4f1000f1ff36000080fa00b3
:104dc000000006000000fa00aac4bf0062406000b4
:104dd0000004e0000e0032006079800090409000f6
:104de00000c8b30080cf500008003a00a0788000cf
:104df0009040900040c8b30080cf500003003a00bc
:104e000061798000c0c8b30090409800aa24a9002e
:104e1000a048200071c0b300fb0407000080fa0026
:104e2000000006000000fa008284a800a0482000cc
:104e300041c0b300f4040700f0fe07000080fa0050
:104e4000000006000000fa00effe07008284a900bf
:104e50000048200041c0b300eb0407000080fa00c6
:104e6000000006000000fa0039cfbf008080fb0080
:104e7000b0ff2f00008060000000e0001c003a003e
:104e800039cfbf008080fb00c00f20000080600091
:104e90004280de004200dd008000780000402100fa
:104ea0000080400060798800607980007079880017
:104eb000e1f22000e0f22000104078000024a2007f
:104ec000804878006079800010409000c2c3b30031
:104ed0008240600040c3b30080cf500002003a001f
:104ee0000c00070009003700210007000700370009
:104ef00039cfbf008080fb00b0ff2f000080600032
:104f0000e80f500001003a00220007000080fa007c
:104f1000000006000000fa00a07880009040900099
:104f200000c8b30000c060000004e00003003200cd
:104f3000a17880000040eb00904098000040eb001a
:104f400034efb7000040eb0035efb7000000eb0096
:104f5000507888000040eb0008efb7009d00070084
:104f6000b2fe0700b80207000080fa000000060049
:104f70000000fa0035cfbf00e24f500002003a00b7
:104f80006703070001003700380007000080fa00bf
:104f9000000006000200fa00a07880001040900097
:104fa0000080fb004600de0061406000004f78009a
:104fb00041f1200040f12000104078000024a200c0
:104fc0008048780004cfbf00e84f50000c003a0042
:104fd00040eb2000204090000080fb00b0248800bf
:104fe000b02480000000e0000300320000c1b300e4
:104ff00004efb7000200370040c0b30004efb70071
:1050000035cfbf00e14f500015003a00a078800076
:10501000c1eb200011009800fa02070034cfbf0056
:10502000e24f500004003a00a178800040c8b3006d
:10503000904098000b0037001e04e00004003a0086
:10504000a178800080ccb300904098000500370024
:10505000a178800080c8b30090409800010037001c
:10506000020007000080fa00000006000400fa00b9
:1050700035cfbf00e24f50002e003a0094c4bf006d
:105080000042b2000004e0002a0032006079800093
:1050900010407800e84f500026003a006079800008
:1050a00010409000c2c3b3008240600040c3b30010
:1050b00080cf50001f003a0070798000904090002f
:1050c00000c8b30000c060000004e00019003a000e
:1050d0007079800041eb2000110098000040eb0047
:1050e000204798000f0037002e4090000080fb0002
:1050f0008000780040eb2000008140002e409000ae
:105100000080fb0080007800c0eb200000804000a1
:1051100010407800004978002e4090000040e800e0
:10512000204798002e409000e74f5000eeff3600d9
:10513000140037000040eb0035efb70071798000b4
:1051400080c0b300804878007179800040eb200077
:105150009000980071798000c0c8b300904098001a
:10516000a17880000040eb0090409800a07880007b
:105170000020a200000f78009e0078000040eb00a5
:1051800090409800c0f0200090009000000820009f
:10519000008060000000e0000c003200c0f0200041
:1051a000300090000000e00003003200c0f020005a
:1051b0003000900000000100c2f02000920090003a
:1051c000f0f72f0000806000100198000080fa00c6
:1051d000000006000400fa0040eb200010407800b8
:1051e0000046b2000004e00043003a0040eb20001b
:1051f000104090000080fb006101b900028fbe00ea
:10520000b0002000010020001e01be00800f5100f0
:10521000818f590038003e001e00be000060010072
:105220001a0037001b003700330037001900370021
:105230003100370006003700090037002d00370025
:105240000b00370008003700140037001f0037003c
:1052500008efa80080c0b30004efb70026003700b5
:105260003f01070024003700fb020700220037003f
:1052700050f0200030788800080fa80010c0b3005c
:105280000aefb70008efa8001b003700aa010700cb
:10529000190037001a0007001700370040eb200004
:1052a000404090000080fb0080007800a0f22000c9
:1052b0000080400030788800080fa80010c0b300bc
:1052c0000aefb70008efa8000b00370008efa800ae
:1052d00040eb2000404090000081fb0040eb2000ac
:1052e000a0409000a0f2200000004100014878009a
:1052f00001003700d1fd07000080fa000000060021
:105300000600fa0040eb200020409000e14f5000e2
:105310000f003a0040eb2000104078007f40600012
:105320000004e0000a003a0008efa80040eb20006b
:1053300010409000e34f500003003a0010c0b3004b
:1053400038efb700020037000040eb0038efb7003d
:1053500040eb2000204090000004e0004d003a00a7
:1053600040eb2000104078007f406000e24f50008a
:1053700048003a0040eb2000404090006f40600041
:105380000004e0004300320008efa8000040eb00fa
:10539000004f78003c0037000040210020079800b3
:1053a00040eb2000404090006f4060000080fb0018
:1053b000000040008000780040eb2000404090005a
:1053c0000080fb004700de000080fb000080400002
:1053d00000004000800078001e80fb00008040003c
:1053e0004200dd00800078002e00900001004000a7
:1053f0002007980040eb200010409000e34f500041
:1054000004003a00ae00900040c8b30090409800fd
:105410001c00370040eb2000404090006f406000cf
:105420000080fb000000400080007800a04a2000bf
:1054300000804000100798001e0090009000780047
:10544000d0ff2f00808060001e00900001087800cf
:1054500040eb2000c040900000c8b30000c06000d6
:105460000004e00004003200ae00900000c4b3006d
:105470009040980003003700ae00900080ccb3004d
:10548000904098001e4fe80010c0b3009e4f1000df
:10549000c1ff36000080fa00000006000a00fa0092
:1054a000e0f3200020079800904f8700000f78005d
:1054b0001e007800104078000080fb003007980044
:1054c000a04f8700100798000000eb0040079800ed
:1054d0000d0037001e009000904078002e009000d4
:1054e000014878002e0090000000e8002007980096
:1054f0001e0090000000e800100798004e00900089
:105500000000e80040079800ce0090003e009000a8
:10551000808f5000efff39000080fa000000060085
:105520000600fa0010079800414798004e4090008e
:105530003eefb7000040eb00004f78000c00370052
:105540009e80fb001e00900010017800018040004a
:105550008080e800e0f3200000804000020878002e
:105560001e0090000080e800100798001e4fe80021
:105570009e80fb004e4090000080fb000080e90010
:10558000808f5000eeff35000080fa00000006001a
:105590000a00fa00e0ff200020079800a04f8700d3
:1055a000000f78001e007800104078000080fb009b
:1055b00030079800a04f8700100798000000eb000c
:1055c000400798000d0037001e00900090407800c2
:1055d0002e009000014878002e0090000000e800a6
:1055e000200798001e0090000000e80010079800b7
:1055f0004e0090000000e80040079800ce009000a8
:105600003e009000808f5000efff39000080fa00cc
:10561000000006000600fa001007980041479800b5
:105620004e409000feefb7000040eb00004f7800c6
:105630000c0037009e80fb001e00900010017800d7
:10564000018040008080e800e0ff200000804000f2
:10565000020878001e0090000080e8001007980003
:105660001e4fe8009e80fb004e4090000080fb0033
:105670000080e900808f5000eeff35000080fa00c6
:10568000000006000a00fa00e00b21002007980045
:10569000b04f8700000f78001e007800104078009f
:1056a0000080fb0030079800b04f8700100798007b
:1056b0000000eb00400798000d0037001e0090002e
:1056c000904078002e009000014878002e00900055
:1056d0000000e800200798001e0090000000e8008d
:1056e000100798004e0090000000e8004007980066
:1056f000ce0090003e009000808f5000efff3900f8
:105700000080fa00000006000400fa00100798006c
:105710000040eb00004f78000c0037009e80fb003b
:105720001e00900010017800018040008080e80099
:10573000e00b210000804000020878001e0090006d
:105740000080e800100798001e4fe800d0c0b300aa
:105750009e4f1000f1ff36000080fa0000000600a6
:105760000200fa0040eb20009040780000c8b3002f
:1057700080cf50006e003a0000ccb30008efb700b5
:1057800040eb2000304090000080fb00000f7800cc
:105790001e007800e20f50000c0032001e0078005e
:1057a000e30f5000170032001e007800e10f500098
:1057b000010032005c003700003921003078880099
:1057c00020012000507888005900370040eb20006d
:1057d000204090000080fb00000040008000780026
:1057e000e09e2e0000804000100078003078880095
:1057f000307880000080e800100078005078880041
:105800004b00370040eb200020409000e34f500059
:10581000070036000040eb0008efb700e00b210066
:10582000307888000000eb00507888004000370096
:1058300040eb200020409000e34f50000c003a0065
:1058400008cfbf0008efb70008cfbf000004a000da
:1058500008efb700e00b2100307888003078800036
:10586000104078000080fb0050788800300037003e
:1058700040eb200020409000e24f50000c003a0026
:1058800008cfbf0008efb70008cfbf000004a0009a
:1058900008efb700e0ff2000307888003078800003
:1058a000104078000080fb0050788800200037000e
:1058b00040eb200020409000e14f50000c003a00e7
:1058c00008cfbf0008efb70008cfbf000004a0005a
:1058d00008efb700e0f320003078880030788000cf
:1058e000104078000080fb005078880010003700de
:1058f00040eb2000204090000080fb0000004000b2
:1059000080007800009f2e0000804000100078008a
:105910003078880030788000104078000080fb00ec
:1059200050788800020037000040eb0008efb70015
:105930000080fa00000006000400fa000040eb00be
:10594000bceeb7000040eb00bdeeb70040eb20001e
:10595000904078007fc060000080fb001007980036
:105960001e009000e10f50000f0032009e009000da
:10597000e28f50000e0032001e0090000000e00098
:10598000010032002400370008efa80038cfbf0024
:10599000e14f500020003a00bccebf000014a00030
:1059a000bceeb7001c00370008efa8001a00370053
:1059b00008efa80000402100000f780040eb200015
:1059c000404090006f4060000080fb0000004000fd
:1059d0008000780040eb2000404090000080fb00f9
:1059e0004700de000080fb00008040004300dd0037
:1059f0001e0f40001e007800104090000080fb0049
:105a00004200de00610060000004e000020032009d
:105a100010c0b300bceeb700407880000108200041
:105a2000010060000000e00005003200c0eb200033
:105a300030788800080fa80020c0b3000aefb70034
:105a40000080fa00000006000000fa0094a4a900fb
:105a50004078800001082000010060000000e000a4
:105a600025003a00c0f020009000900000082000bf
:105a7000008060000000e0001200320020c0b3008f
:105a800035efb700a17880000040eb008048780037
:105a9000a178800080ccb30090409800717980009c
:105aa00080c0b3008048780071798000c0eb20008e
:105ab000900098007179800080ccb30090409800ed
:105ac0004e0037007179800080c0b30080487800b4
:105ad0007179800040eb200090009800717980007f
:105ae000c0c8b30090409800a178800040c8b300bf
:105af0009040980041003700c0f0200090009000d6
:105b000000082000008060000000e0003b003a0038
:105b100040eb20009040780000c8b30000c0600057
:105b20000004e0002400320040eb2000b0009000b0
:105b300050788000808f50000300310040eb20003f
:105b400030009000507888002e00070010c0b3008d
:105b500035efb7007179800080c0b30080487800cd
:105b60007179800040eb20009000980071798000ee
:105b700000c8b300904098006179800080c0b300f5
:105b8000804878006179800040eb20009000980008
:105b90006179800000c8b30090409800a17880002f
:105ba000c0eb200090009800a178800080ccb3006a
:105bb000904098001100370020c0b30035efb700c7
:105bc000a17880000040eb0080487800a178800038
:105bd00080ccb300904098007179800080c0b30001
:105be0008048780071798000c0eb20009000980018
:105bf0007179800080ccb300904098000080fa005a
:105c0000000006000200fa0050788000e70f500004
:105c10000e003e0050788000000f780034cfbf00a7
:105c20000004e00003003a0010c0b30034efb700f6
:105c30000800370034cfbf00e14f500005003a00a4
:105c400020c0b30034efb70002003700800020000e
:105c5000000f7800a2788000a0788000904090002b
:105c60001e40900000c0700010419800a178800094
:105c70001e40780080487800517880001e0078002f
:105c80000080500050788800c0eb2000b079880078
:105c900040788000610060000000e0001b003a00d6
:105ca0000b003700b1798000327880001240780014
:105cb000804878000100e800b07988000200e80020
:105cc000307888001e0078000000e900000f78009e
:105cd0001e0078000000e000f2ff3a000e003700de
:105ce000b1798000327880001240780080487800d6
:105cf0000100e800b07988000200e80030788800f0
:105d00001e0078000000e900000f78001e007800f7
:105d10000000e000f2ff3a000080fa0000000600f8
:105d20000200fa00607980009040780011479800e6
:105d30001e4090008080fb00c0f0200020009000fa
:105d4000808f500004003600c0f02000200090003a
:105d50001047980007003700c0f02000a000900016
:105d60001e4090000080fb0080805000c0f02000aa
:105d7000210098000040eb00004f78000b00370036
:105d8000c0f02000100178009e80fb00c0eb2000d6
:105d90000080400010407800004978008200e80050
:105da000c0f02000010878001e4fe8001e4090005f
:105db0009e4f1000f2ff3900c0f02000200090003c
:105dc0000000e000130032007179800080c0b30051
:105dd0008048780071798000c0eb20009000980026
:105de00060798000104090000044b2000004e000a0
:105df00004003a007179800080ccb3009040980094
:105e0000130037007179800080c8b300904098007b
:105e10000f0037007179800040eb2000900098005f
:105e2000c0f02000300090000000e00003003200cd
:105e3000c0f020003000900000000100c2f02000ff
:105e400092009000f0f72f00008060001001980091
:105e50000080fa00000006000000fa0008efa80029
:105e60000040eb002aefb70040eb200020409000fc
:105e700005efb70040eb2000204090000004e00058
:105e800003003a0000c1b30004efb700030037007d
:105e900000c2b30004efb700ebfa07000080fa007d
:105ea000000006000400fa002047980031479800df
:105eb00000402100000f78002e4090000080fb0081
:105ec00000004000800078003e4090000080fb0011
:105ed000008040004300dd004200de004200dd00a3
:105ee0001e0f40009e007800114090000074a10039
:105ef000904098003e4090000004e00007003a0007
:105f00002e4090000080fb008000400000f3200045
:105f1000008040001e087800060037002e409000e8
:105f20000080fb008000400040f120000080400025
:105f30001e0878001e01780092409000f0cbb3005c
:105f400000c06000104198001e007800640140000d
:105f50009240900000c4b30000c07000104198004f
:105f60000080fa00000006000400fa0020479800b4
:105f7000314798002e4090000080fb000000400058
:105f800080007800a04a200000804000000f7800c8
:105f90003e4090008080fb001e00780001087800e1
:105fa0003e4090000080fb004300de006100600086
:105fb0000004e000030032008040eb002e4090001f
:105fc000b8ff07003e4090000080fb004200de006a
:105fd000610060000004e0000300320011c0b30063
:105fe0002e409000afff07000080fa00000006007e
:105ff0000400fa0020479800314798002e40900096
:106000000004e0000d003a007179800080c0b30008
:10601000804878007179800040eb20009000980063
:1060200071798000c0c8b30090409800a1788000ca
:1060300040c8b30090409800230037002e409000e5
:106040000080fb0000004000800078003e4090008f
:106050000080fb00008040004300dd0080007800ed
:106060000040210000804000000f78001e007800f2
:106070009040900040c8b30080c070001e007800bf
:10608000114098002e4090000080fb00000040006e
:10609000800078003e4090000080fb0000804000bf
:1060a0004300dd008000780040402100008f400068
:1060b0001e0078009040900040c8b30080c070007f
:1060c0001e007800114098000080fa0000000600d1
:1060d0000800fa00204798003147980022079800ee
:1060e000634798003e4090000004e0000700320043
:1060f0002e4090000080fb008000400040f1200016
:1061000000804000100f7800060037002e409000fd
:106110000080fb008000400000f320000080400071
:10612000100f78001e007800ae009000110098005b
:106130001e0078006e419000024878001e00780032
:106140001040900002c4b300824060001e0078003e
:10615000114098001e0078009040900080c8b30065
:1061600080c070001e007800114098003e409000f2
:106170000004e000110032002e4090000080fb007f
:10618000000040008000780040f1200000804000c6
:10619000000178002e4090000080fb0000004000cd
:1061a0008000780040f1200000804000104078001e
:1061b0000024a20000497800100037002e40900013
:1061c0000080fb00000040008000780000f3200009
:1061d00000804000000178002e4090000080fb000d
:1061e000000040008000780000f3200000804000a4
:1061f000104078000024a200004978001e007800ba
:106200000080fa00000006000400fa00000f780089
:10621000214798002e4090008080fb001000200055
:106220000100dd00804078001e0078000148780001
:106230000080fa00000006000400fa0040eb200095
:10624000104078007f406000e14f50006f003a003e
:1062500040eb2000404090000004e0006b003a005a
:1062600040eb200010409000e64f500028003a001c
:1062700040eb2000304090000080fb0010079800a9
:10628000200220009e009000808f500014003200f9
:10629000300220001e019000800f51001a003200d1
:1062a000100220009e009000808f500001003200fc
:1062b0001700370005cfbf00e14f500014003a002f
:1062c00040802e007200400030788800900020004e
:1062d0005078880000ccb30008efb7000c003700fe
:1062e00005cfbf00e14f500009003a00009d2e008d
:1062f00030788800d00120005078880000ccb300ae
:1063000008efb7000200370000c8b30008efb7007d
:1063100040eb20001040780002c6b30082406000cd
:1063200000c2b30080cf500038003a0040eb20009c
:10633000104090000080fb00000f78001e007800e5
:10634000e30f5000250032009e007800e38f5000dc
:1063500007003c001e017800e10f51000e003200e2
:106360001e007800e20f50000f00320027003700b7
:106370009e007800ea8f5000120032001e01780063
:10638000eb0f51001c0032001e007800e90f500096
:10639000030032001d0037001e0007001b003700fd
:1063a0001f00070019003700503b2100307888009b
:1063b000100020005078880010ccb30008efb70020
:1063c0001200370000c8b30008efb70040eb200010
:1063d00030409000b5f3b7000c003700603b21005f
:1063e00030788800100020005078880010c8b30072
:1063f00008efb7000500370000c8b30008efb7008a
:1064000040eb200020409000b6f3b7000080fa0077
:10641000000006000000fa000080fa0000000600fc
:106420000000fa000080fa00000006000000fa00f8
:106430000080fa00000006000200fa00004f780019
:106440000000eb00001388008820a9009820a90014
:106450001e04e00003003200b01320001013880077
:1064600002003700e013200010138800000028000d
:10647000001388000080fa00000006000200fa0005
:10648000004f78001e80fb004013880060c2bf00f0
:10649000614060000004e000fcff32004013800017
:1064a0000080fb000080fa00000006000000fa00f7
:1064b000d8a2a900dca2a800f122a900f522a80018
:1064c000d8e2a900dce2a800e802a900ec02a800da
:1064d0000080fa00000006000c00fa001007980087
:1064e0002107980032079800440798005507980044
:1064f00010c0b300104798001e009000ae0090003e
:10650000e00f5000e08f580003003d0000cfb300c3
:10651000004f78000200370010cfb300004f780022
:106520000041eb0011c0b3001e407800ea000700f4
:10653000104798001e4090000004e0002a0032003e
:1065400030c0b300cdff070000cfb3009e4f100056
:1065500004003a000e80e8000080e8001040780057
:10656000c6ff07000e80e8000000e8001040780039
:10657000c2ff07000e80e80010407800bfff070050
:10658000080037000040eb00bcff070080407800a7
:106590003e009000014878003e0090000000e800b6
:1065a000300798004e009000de009000610050001f
:1065b000e080580040079800510798004e01900075
:1065c000de0190000080eb008080eb00800f510026
:1065d000818f5900ebff3a000041eb008040eb0057
:1065e0001e407800bc0007001e4090000080fb00a9
:1065f0000080fa00000006001e00fa00889fbe001e
:10660000200f9800310f9800420f9800540f980007
:10661000650f980010c0b300604f980010c0b30021
:10662000604798002e089000be089000e00f5000d0
:10663000e08f58000b003d0000cfb300004f780002
:1066400000102000600798000040eb0070479800a1
:10665000401f20000100200010079800210798002b
:106660000a00370010cfb300004f7800000420006c
:106670006007980010c0b30070479800803e20006b
:106680000100200010079800210798002e089000b4
:10669000be089000000f9800110f98007900370095
:1066a0006e0090006101b8005e089000ee08900056
:1066b000800f5100818f590003003e00ee009000d2
:1066c00051079800020037005e08900050079800bc
:1066d0005e0090006101b8000e0890009e089000d6
:1066e00002024000838248006e0090006101b80001
:1066f0000400be00c4eb07000004be000e0a9000b8
:106700009e0a90006e0090006101b8000400be0077
:10671000bdeb0700800f5400818f5c000e0032003b
:106720005e0090006101b8000e0890009e08900085
:1067300002024000838248006e0090006101b800b0
:106740000400be00deec0700800078005e009000d0
:1067500001005000500798006e4090000004e000d7
:10676000030032000040eb0060479800050037004e
:106770001e019000ae0190001e407800b500070099
:10678000604f98006e4890000004e0003d00320029
:1067900012c0b30011c0b3001e4078004e000700c5
:1067a000604f98006e4890000004e0003500320011
:1067b00020c0b30031ff07007e4090000004e000dd
:1067c00004003a00700047000080e80010407800a4
:1067d0002aff0700700047000000e8001040780022
:1067e00026ff0700700047001040780023ff0700d5
:1067f0000000eb00400798000a0037004e089000a8
:10680000904078004e0890000000e800400f98008b
:106810000140780019ff07004e0090000000e800da
:1068200040079800ce0090005e009000808f5000de
:10683000f2ff39000041eb008040eb001e40780081
:10684000250007005e0090006101b8005e0890001e
:10685000ee0890000200500083805800500f98000e
:10686000610f98005e0090006101b8000e08900072
:106870009e0890000200400083804800000f9800ae
:10688000110f98006e4890000004e00005003200ef
:106890005e089000ee089000e00f5000e08f580076
:1068a0007fff3a006e4890000004e00005003200cf
:1068b0001e019000ae0190001e40780065000700a8
:1068c000604f98006e4890000080fb004f04be00af
:1068d0000080fa00000006000600fa002047980039
:1068e000314798004247980010c0b3001047980005
:1068f0000040eb00004f78002e409000f04f400029
:1069000003003a0010c0b300004f780008003700c1
:106910002e409000ef4f400003003a000040eb0093
:10692000004f7800020037000040eb00104798004d
:10693000dca2a800dce2a800f522a800ec02a80076
:106940001e4090000004e000240032003e40900011
:106950000004e000210032001e04e00008003200c4
:1069600010c0b300b4fe0700f522a9004e4090000d
:106970000004e00009003200ec02a8000700370024
:106980000040eb00acfe0700dca2a9004e409000e6
:106990000004e00001003200dce2a8004e4090005c
:1069a0000004e0000d00320060c0b300b3fe070039
:1069b0001e04e00005003200f522a80000000000df
:1069c00000000000f522a90004003700dca2a800a6
:1069d0000000000000000000dca2a9001e409000a2
:1069e0000080fb000080fa00000006000600fa00ac
:1069f00020479800210798000040eb00004f7800e6
:106a00000041eb0011c0b3002e409000b2ff070020
:106a10000004e0000c00320050c0b30097fe0700f5
:106a20000040eb0095fe0700ae0090008048780023
:106a300010c0b300004f78000041eb008040eb0035
:106a40002e409000a4ff07001e80fb000080fa008b
:106a5000000006000a00fa0040479800320798003c
:106a6000430798000040eb001047980010c0b300a7
:106a7000004f78000a0037008e80e8004e409000fa
:106a8000daff0700004f78001e00900061006000f0
:106a90000000e00002003a0010c0b3001047980068
:106aa0001e4090000004e0000f003a003e009000fd
:106ab000ce00900061005000e08058003007980040
:106ac000410798003e019000ce0190000080eb004d
:106ad0008080eb00800f5100818f5900020032004e
:106ae0001e04e000e4ff3a003e009000ce0090005b
:106af000e00f5000e08f580002003a000040eb0029
:106b0000004f78001e80fb000080fa0000000600a5
:106b10000200fa000040eb00004f780012c0b30002
:106b200011c0b30000cfb3006bff07000004e0000a
:106b30001e00320010c0b30050fe07000040eb0002
:106b40004efe07000041eb008040eb0000cfb30099
:106b500061ff070010002000010020009dee0700eb
:106b600012c0b30011c0b30000cfb3005aff07003a
:106b700000c6b30041fe07000041eb008040eb007f
:106b800000cfb30054ff0700cd42a800cd62a8009b
:106b900002a821006300200000cfb300adff070072
:106ba000004f7800cd42a900cd62a9001e80fb00f5
:106bb0000080fa00000006000000fa0021742000a6
:106bc0006204200073052000824878008348780022
:106bd00042c7a9000080fa00000006000000fa0089
:106be0002174200062042000730520008248780090
:106bf0008348780042c7a8000080fa000000060021
:106c00000000fa00ecff0700a16c20009140780022
:106c100000ccb30000c060003040b300cae6b7004b
:106c2000416a20009140780000ccb30000c06000b1
:106c30001041b300a4e6b700916d200091407800a8
:106c400000ccb30000c060007040b300d9e6b700cc
:106c5000716d20009140780000ccb30000c060004e
:106c60000034a000d7e6b700816a20009140780088
:106c700000ccb30000c060006041b300a8e6b700dc
:106c8000916a20009140780000ccb30000c0600001
:106c90007041b300a9e6b700b16c200091407800c4
:106ca00000ccb30000c06000a040b300cbe6b7004a
:106cb000216c20009140780000ccb30000c060003f
